{
  "contractName": "CBOR",
  "abi": [
    {
      "inputs": [
        {
          "components": [
            {
              "components": [
                {
                  "internalType": "bytes",
                  "name": "data",
                  "type": "bytes"
                },
                {
                  "internalType": "uint32",
                  "name": "cursor",
                  "type": "uint32"
                }
              ],
              "internalType": "struct BufferLib.Buffer",
              "name": "buffer",
              "type": "tuple"
            },
            {
              "internalType": "uint8",
              "name": "initialByte",
              "type": "uint8"
            },
            {
              "internalType": "uint8",
              "name": "majorType",
              "type": "uint8"
            },
            {
              "internalType": "uint8",
              "name": "additionalInformation",
              "type": "uint8"
            },
            {
              "internalType": "uint64",
              "name": "len",
              "type": "uint64"
            },
            {
              "internalType": "uint64",
              "name": "tag",
              "type": "uint64"
            }
          ],
          "internalType": "struct CBOR.Value",
          "name": "_cborValue",
          "type": "tuple"
        }
      ],
      "name": "decodeBool",
      "outputs": [
        {
          "internalType": "bool",
          "name": "",
          "type": "bool"
        }
      ],
      "stateMutability": "pure",
      "type": "function"
    },
    {
      "inputs": [
        {
          "components": [
            {
              "components": [
                {
                  "internalType": "bytes",
                  "name": "data",
                  "type": "bytes"
                },
                {
                  "internalType": "uint32",
                  "name": "cursor",
                  "type": "uint32"
                }
              ],
              "internalType": "struct BufferLib.Buffer",
              "name": "buffer",
              "type": "tuple"
            },
            {
              "internalType": "uint8",
              "name": "initialByte",
              "type": "uint8"
            },
            {
              "internalType": "uint8",
              "name": "majorType",
              "type": "uint8"
            },
            {
              "internalType": "uint8",
              "name": "additionalInformation",
              "type": "uint8"
            },
            {
              "internalType": "uint64",
              "name": "len",
              "type": "uint64"
            },
            {
              "internalType": "uint64",
              "name": "tag",
              "type": "uint64"
            }
          ],
          "internalType": "struct CBOR.Value",
          "name": "_cborValue",
          "type": "tuple"
        }
      ],
      "name": "decodeBytes",
      "outputs": [
        {
          "internalType": "bytes",
          "name": "",
          "type": "bytes"
        }
      ],
      "stateMutability": "pure",
      "type": "function"
    },
    {
      "inputs": [
        {
          "components": [
            {
              "components": [
                {
                  "internalType": "bytes",
                  "name": "data",
                  "type": "bytes"
                },
                {
                  "internalType": "uint32",
                  "name": "cursor",
                  "type": "uint32"
                }
              ],
              "internalType": "struct BufferLib.Buffer",
              "name": "buffer",
              "type": "tuple"
            },
            {
              "internalType": "uint8",
              "name": "initialByte",
              "type": "uint8"
            },
            {
              "internalType": "uint8",
              "name": "majorType",
              "type": "uint8"
            },
            {
              "internalType": "uint8",
              "name": "additionalInformation",
              "type": "uint8"
            },
            {
              "internalType": "uint64",
              "name": "len",
              "type": "uint64"
            },
            {
              "internalType": "uint64",
              "name": "tag",
              "type": "uint64"
            }
          ],
          "internalType": "struct CBOR.Value",
          "name": "_cborValue",
          "type": "tuple"
        }
      ],
      "name": "decodeFixed16",
      "outputs": [
        {
          "internalType": "int32",
          "name": "",
          "type": "int32"
        }
      ],
      "stateMutability": "pure",
      "type": "function"
    },
    {
      "inputs": [
        {
          "components": [
            {
              "components": [
                {
                  "internalType": "bytes",
                  "name": "data",
                  "type": "bytes"
                },
                {
                  "internalType": "uint32",
                  "name": "cursor",
                  "type": "uint32"
                }
              ],
              "internalType": "struct BufferLib.Buffer",
              "name": "buffer",
              "type": "tuple"
            },
            {
              "internalType": "uint8",
              "name": "initialByte",
              "type": "uint8"
            },
            {
              "internalType": "uint8",
              "name": "majorType",
              "type": "uint8"
            },
            {
              "internalType": "uint8",
              "name": "additionalInformation",
              "type": "uint8"
            },
            {
              "internalType": "uint64",
              "name": "len",
              "type": "uint64"
            },
            {
              "internalType": "uint64",
              "name": "tag",
              "type": "uint64"
            }
          ],
          "internalType": "struct CBOR.Value",
          "name": "_cborValue",
          "type": "tuple"
        }
      ],
      "name": "decodeFixed16Array",
      "outputs": [
        {
          "internalType": "int32[]",
          "name": "",
          "type": "int32[]"
        }
      ],
      "stateMutability": "pure",
      "type": "function"
    },
    {
      "inputs": [
        {
          "components": [
            {
              "components": [
                {
                  "internalType": "bytes",
                  "name": "data",
                  "type": "bytes"
                },
                {
                  "internalType": "uint32",
                  "name": "cursor",
                  "type": "uint32"
                }
              ],
              "internalType": "struct BufferLib.Buffer",
              "name": "buffer",
              "type": "tuple"
            },
            {
              "internalType": "uint8",
              "name": "initialByte",
              "type": "uint8"
            },
            {
              "internalType": "uint8",
              "name": "majorType",
              "type": "uint8"
            },
            {
              "internalType": "uint8",
              "name": "additionalInformation",
              "type": "uint8"
            },
            {
              "internalType": "uint64",
              "name": "len",
              "type": "uint64"
            },
            {
              "internalType": "uint64",
              "name": "tag",
              "type": "uint64"
            }
          ],
          "internalType": "struct CBOR.Value",
          "name": "_cborValue",
          "type": "tuple"
        }
      ],
      "name": "decodeInt128",
      "outputs": [
        {
          "internalType": "int128",
          "name": "",
          "type": "int128"
        }
      ],
      "stateMutability": "pure",
      "type": "function"
    },
    {
      "inputs": [
        {
          "components": [
            {
              "components": [
                {
                  "internalType": "bytes",
                  "name": "data",
                  "type": "bytes"
                },
                {
                  "internalType": "uint32",
                  "name": "cursor",
                  "type": "uint32"
                }
              ],
              "internalType": "struct BufferLib.Buffer",
              "name": "buffer",
              "type": "tuple"
            },
            {
              "internalType": "uint8",
              "name": "initialByte",
              "type": "uint8"
            },
            {
              "internalType": "uint8",
              "name": "majorType",
              "type": "uint8"
            },
            {
              "internalType": "uint8",
              "name": "additionalInformation",
              "type": "uint8"
            },
            {
              "internalType": "uint64",
              "name": "len",
              "type": "uint64"
            },
            {
              "internalType": "uint64",
              "name": "tag",
              "type": "uint64"
            }
          ],
          "internalType": "struct CBOR.Value",
          "name": "_cborValue",
          "type": "tuple"
        }
      ],
      "name": "decodeInt128Array",
      "outputs": [
        {
          "internalType": "int128[]",
          "name": "",
          "type": "int128[]"
        }
      ],
      "stateMutability": "pure",
      "type": "function"
    },
    {
      "inputs": [
        {
          "components": [
            {
              "components": [
                {
                  "internalType": "bytes",
                  "name": "data",
                  "type": "bytes"
                },
                {
                  "internalType": "uint32",
                  "name": "cursor",
                  "type": "uint32"
                }
              ],
              "internalType": "struct BufferLib.Buffer",
              "name": "buffer",
              "type": "tuple"
            },
            {
              "internalType": "uint8",
              "name": "initialByte",
              "type": "uint8"
            },
            {
              "internalType": "uint8",
              "name": "majorType",
              "type": "uint8"
            },
            {
              "internalType": "uint8",
              "name": "additionalInformation",
              "type": "uint8"
            },
            {
              "internalType": "uint64",
              "name": "len",
              "type": "uint64"
            },
            {
              "internalType": "uint64",
              "name": "tag",
              "type": "uint64"
            }
          ],
          "internalType": "struct CBOR.Value",
          "name": "_cborValue",
          "type": "tuple"
        }
      ],
      "name": "decodeString",
      "outputs": [
        {
          "internalType": "string",
          "name": "",
          "type": "string"
        }
      ],
      "stateMutability": "pure",
      "type": "function"
    },
    {
      "inputs": [
        {
          "components": [
            {
              "components": [
                {
                  "internalType": "bytes",
                  "name": "data",
                  "type": "bytes"
                },
                {
                  "internalType": "uint32",
                  "name": "cursor",
                  "type": "uint32"
                }
              ],
              "internalType": "struct BufferLib.Buffer",
              "name": "buffer",
              "type": "tuple"
            },
            {
              "internalType": "uint8",
              "name": "initialByte",
              "type": "uint8"
            },
            {
              "internalType": "uint8",
              "name": "majorType",
              "type": "uint8"
            },
            {
              "internalType": "uint8",
              "name": "additionalInformation",
              "type": "uint8"
            },
            {
              "internalType": "uint64",
              "name": "len",
              "type": "uint64"
            },
            {
              "internalType": "uint64",
              "name": "tag",
              "type": "uint64"
            }
          ],
          "internalType": "struct CBOR.Value",
          "name": "_cborValue",
          "type": "tuple"
        }
      ],
      "name": "decodeStringArray",
      "outputs": [
        {
          "internalType": "string[]",
          "name": "",
          "type": "string[]"
        }
      ],
      "stateMutability": "pure",
      "type": "function"
    },
    {
      "inputs": [
        {
          "components": [
            {
              "components": [
                {
                  "internalType": "bytes",
                  "name": "data",
                  "type": "bytes"
                },
                {
                  "internalType": "uint32",
                  "name": "cursor",
                  "type": "uint32"
                }
              ],
              "internalType": "struct BufferLib.Buffer",
              "name": "buffer",
              "type": "tuple"
            },
            {
              "internalType": "uint8",
              "name": "initialByte",
              "type": "uint8"
            },
            {
              "internalType": "uint8",
              "name": "majorType",
              "type": "uint8"
            },
            {
              "internalType": "uint8",
              "name": "additionalInformation",
              "type": "uint8"
            },
            {
              "internalType": "uint64",
              "name": "len",
              "type": "uint64"
            },
            {
              "internalType": "uint64",
              "name": "tag",
              "type": "uint64"
            }
          ],
          "internalType": "struct CBOR.Value",
          "name": "_cborValue",
          "type": "tuple"
        }
      ],
      "name": "decodeUint64",
      "outputs": [
        {
          "internalType": "uint64",
          "name": "",
          "type": "uint64"
        }
      ],
      "stateMutability": "pure",
      "type": "function"
    },
    {
      "inputs": [
        {
          "components": [
            {
              "components": [
                {
                  "internalType": "bytes",
                  "name": "data",
                  "type": "bytes"
                },
                {
                  "internalType": "uint32",
                  "name": "cursor",
                  "type": "uint32"
                }
              ],
              "internalType": "struct BufferLib.Buffer",
              "name": "buffer",
              "type": "tuple"
            },
            {
              "internalType": "uint8",
              "name": "initialByte",
              "type": "uint8"
            },
            {
              "internalType": "uint8",
              "name": "majorType",
              "type": "uint8"
            },
            {
              "internalType": "uint8",
              "name": "additionalInformation",
              "type": "uint8"
            },
            {
              "internalType": "uint64",
              "name": "len",
              "type": "uint64"
            },
            {
              "internalType": "uint64",
              "name": "tag",
              "type": "uint64"
            }
          ],
          "internalType": "struct CBOR.Value",
          "name": "_cborValue",
          "type": "tuple"
        }
      ],
      "name": "decodeUint64Array",
      "outputs": [
        {
          "internalType": "uint64[]",
          "name": "",
          "type": "uint64[]"
        }
      ],
      "stateMutability": "pure",
      "type": "function"
    },
    {
      "inputs": [
        {
          "internalType": "bytes",
          "name": "_cborBytes",
          "type": "bytes"
        }
      ],
      "name": "valueFromBytes",
      "outputs": [
        {
          "components": [
            {
              "components": [
                {
                  "internalType": "bytes",
                  "name": "data",
                  "type": "bytes"
                },
                {
                  "internalType": "uint32",
                  "name": "cursor",
                  "type": "uint32"
                }
              ],
              "internalType": "struct BufferLib.Buffer",
              "name": "buffer",
              "type": "tuple"
            },
            {
              "internalType": "uint8",
              "name": "initialByte",
              "type": "uint8"
            },
            {
              "internalType": "uint8",
              "name": "majorType",
              "type": "uint8"
            },
            {
              "internalType": "uint8",
              "name": "additionalInformation",
              "type": "uint8"
            },
            {
              "internalType": "uint64",
              "name": "len",
              "type": "uint64"
            },
            {
              "internalType": "uint64",
              "name": "tag",
              "type": "uint64"
            }
          ],
          "internalType": "struct CBOR.Value",
          "name": "",
          "type": "tuple"
        }
      ],
      "stateMutability": "pure",
      "type": "function"
    },
    {
      "inputs": [
        {
          "components": [
            {
              "internalType": "bytes",
              "name": "data",
              "type": "bytes"
            },
            {
              "internalType": "uint32",
              "name": "cursor",
              "type": "uint32"
            }
          ],
          "internalType": "struct BufferLib.Buffer",
          "name": "_buffer",
          "type": "tuple"
        }
      ],
      "name": "valueFromBuffer",
      "outputs": [
        {
          "components": [
            {
              "components": [
                {
                  "internalType": "bytes",
                  "name": "data",
                  "type": "bytes"
                },
                {
                  "internalType": "uint32",
                  "name": "cursor",
                  "type": "uint32"
                }
              ],
              "internalType": "struct BufferLib.Buffer",
              "name": "buffer",
              "type": "tuple"
            },
            {
              "internalType": "uint8",
              "name": "initialByte",
              "type": "uint8"
            },
            {
              "internalType": "uint8",
              "name": "majorType",
              "type": "uint8"
            },
            {
              "internalType": "uint8",
              "name": "additionalInformation",
              "type": "uint8"
            },
            {
              "internalType": "uint64",
              "name": "len",
              "type": "uint64"
            },
            {
              "internalType": "uint64",
              "name": "tag",
              "type": "uint64"
            }
          ],
          "internalType": "struct CBOR.Value",
          "name": "",
          "type": "tuple"
        }
      ],
      "stateMutability": "pure",
      "type": "function"
    }
  ],
  "bytecode": "0x6122fe61003a600b82828239805160001a60731461002d57634e487b7160e01b600052600060045260246000fd5b30600052607381538281f3fe73000000000000000000000000000000000000000030146080604052600436106100be5760003560e01c80639ada26471161007b5780639ada26471461018c578063ac871cbd146101ac578063d9aee209146101cc578063dcb68ea1146101ec578063dfca5d341461020c578063f896fab31461021f576100be565b80631bc742b9146100c357806325652e89146100ec578063537ae6d71461010c57806354ee27e61461012c57806364af28171461014c5780636e16eb811461016c575b600080fd5b6100d66100d13660046114a9565b610232565b6040516100e39190611740565b60405180910390f35b6100ff6100fa3660046114a9565b6102dd565b6040516100e391906116ff565b61011f61011a3660046114a9565b610434565b6040516100e3919061175e565b61013f61013a3660046114a9565b6104b6565b6040516100e3919061161d565b61015f61015a3660046114a9565b610602565b6040516100e3919061174b565b61017f61017a3660046114a9565b6106ca565b6040516100e3919061169f565b61019f61019a3660046114a9565b610817565b6040516100e3919061176c565b6101bf6101ba366004611477565b610878565b6040516100e39190611dcf565b6101df6101da3660046114a9565b61095a565b6040516100e39190611e65565b6101ff6101fa3660046114a9565b610995565b6040516100e39190611664565b6101bf61021a366004611445565b610ae1565b61015f61022d3660046114a9565b610b0d565b600061024682600001518360600151610bfc565b6001600160401b03166080830152604082015160ff166007146102845760405162461bcd60e51b815260040161027b90611d65565b60405180910390fd5b81608001516001600160401b0316601414156102a2575060006102d8565b81608001516001600160401b0316601514156102c0575060016102d8565b60405162461bcd60e51b815260040161027b90611a5e565b919050565b6060816040015160ff166004146103065760405162461bcd60e51b815260040161027b90611d07565b600061031a83600001518460600151610bfc565b90506001600160401b03808216106103445760405162461bcd60e51b815260040161027b90611b35565b6000816001600160401b03166001600160401b0381111561037557634e487b7160e01b600052604160045260246000fd5b60405190808252806020026020018201604052801561039e578160200160208202803683370190505b50905060005b826001600160401b0316816001600160401b0316101561042c5760006103cd8660000151610878565b90506103d88161095a565b83836001600160401b03168151811061040157634e487b7160e01b600052603260045260246000fd5b6001600160401b0390921660209283029190910190910152508061042481612247565b9150506103a4565b509392505050565b6000816040015160ff166001141561047957600061045a83600001518460600151610bfc565b90506104716001600160401b038216600019612126565b9150506102d8565b604082015160ff1661049e5761048e8261095a565b6001600160401b031690506102d8565b60405162461bcd60e51b815260040161027b906118e0565b6060816040015160ff166004146104df5760405162461bcd60e51b815260040161027b90611bbb565b60006104f383600001518460600151610bfc565b90506001600160401b038082161061051d5760405162461bcd60e51b815260040161027b90611b35565b6000816001600160401b03166001600160401b0381111561054e57634e487b7160e01b600052604160045260246000fd5b604051908082528060200260200182016040528015610577578160200160208202803683370190505b50905060005b826001600160401b0316816001600160401b0316101561042c5760006105a68660000151610878565b90506105b181610434565b83836001600160401b0316815181106105da57634e487b7160e01b600052603260045260246000fd5b6020026020010190600f0b9081600f0b815250505080806105fa90612247565b91505061057d565b606061061682600001518360600151610bfc565b6001600160401b039081166080840181905214156106b157606060005b806106a957600061064c85600001518660400151610cc3565b90506001600160401b03808216101561069e578451839061067790610672600485611ede565b610d43565b6040516020016106889291906115bc565b60405160208183030381529060405292506106a3565b600191505b50610633565b5090506102d8565b6106c382600001518360800151610d43565b90506102d8565b6060816040015160ff166004146106f35760405162461bcd60e51b815260040161027b9061183b565b600061070783600001518460600151610bfc565b90506001600160401b03808216106107315760405162461bcd60e51b815260040161027b90611b35565b6000816001600160401b03166001600160401b0381111561076257634e487b7160e01b600052604160045260246000fd5b60405190808252806020026020018201604052801561079557816020015b60608152602001906001900390816107805790505b50905060005b826001600160401b0316816001600160401b0316101561042c5760006107c48660000151610878565b90506107cf81610602565b83836001600160401b0316815181106107f857634e487b7160e01b600052603260045260246000fd5b602002602001018190525050808061080f90612247565b91505061079b565b6000816040015160ff166007146108405760405162461bcd60e51b815260040161027b9061194a565b816060015160ff166019146108675760405162461bcd60e51b815260040161027b906119ec565b815161087290610e81565b92915050565b6108806112c9565b81515161089f5760405162461bcd60e51b815260040161027b90611cbd565b600060ff816001600160401b0360015b80156108f3576108be87610f65565b94506007600586901c169350601f8516925060068414156108ea576108e38784610bfc565b91506108ee565b5060005b6108af565b60078460ff1611156109175760405162461bcd60e51b815260040161027b906119b5565b506040805160c08101825296875260ff9485166020880152928416928601929092529091166060840152600060808401526001600160401b031660a08301525090565b6000816040015160ff166000146109835760405162461bcd60e51b815260040161027b90611c19565b61087282600001518360600151610bfc565b6060816040015160ff166004146109be5760405162461bcd60e51b815260040161027b90611bbb565b60006109d283600001518460600151610bfc565b90506001600160401b03808216106109fc5760405162461bcd60e51b815260040161027b90611b35565b6000816001600160401b03166001600160401b03811115610a2d57634e487b7160e01b600052604160045260246000fd5b604051908082528060200260200182016040528015610a56578160200160208202803683370190505b50905060005b826001600160401b0316816001600160401b0316101561042c576000610a858660000151610878565b9050610a9081610817565b83836001600160401b031681518110610ab957634e487b7160e01b600052603260045260246000fd5b602002602001019060030b908160030b81525050508080610ad990612247565b915050610a5c565b610ae96112c9565b6040805180820190915282815260006020820152610b0681610878565b9392505050565b6060610b2182600001518360600151610bfc565b6001600160401b03166080830181905263ffffffff1415610bec5760606000610b5284600001518560400151610cc3565b905063ffffffff80821610156106a95783518290610b709083610fc6565b604051602001610b819291906115bc565b6040516020818303038152906040529150610ba484600001518560400151610cc3565b905063ffffffff80821610156106a95783518290610bc29083610fc6565b604051602001610bd39291906115bc565b60405160208183030381529060405291505090506102d8565b608082015182516106c391610fc6565b600060188260ff161015610c14575060ff8116610872565b8160ff1660181415610c3357610c2983610f65565b60ff169050610872565b8160ff1660191415610c5357610c48836110a3565b61ffff169050610872565b8160ff16601a1415610c7557610c68836110fa565b63ffffffff169050610872565b8160ff16601b1415610c9157610c8a83611151565b9050610872565b8160ff16601f1415610cab57506001600160401b03610872565b60405162461bcd60e51b815260040161027b90611acd565b600080610ccf84610f65565b90508060ff1660ff1415610ced576001600160401b03915050610872565b6000610cfc8583601f16610bfc565b90506001600160401b03808216108015610d1f57506007600583901c1660ff8516145b610d3b5760405162461bcd60e51b815260040161027b90611b84565b949350505050565b60608060005b836001600160401b0316816001600160401b0316101561042c576000610d6e86610f65565b90506080811615610e495760e08160ff161015610db357610d8e86610f65565b603f16600682601f1660ff16901b179050600185610dac91906121cb565b9450610e49565b60f08160ff161015610dfa57610dc886610f65565b603f166006610dd688610f65565b603f1660ff16901b600c83600f1660ff16901b17179050600285610dac91906121cb565b610e0386610f65565b603f166006610e1188610f65565b603f16901b600c610e2189610f65565b603f1660ff16901b601284600f1660ff16901b1717179050600385610e4691906121cb565b94505b8281604051602001610e5c9291906115eb565b6040516020818303038152906040529250508080610e7990612247565b915050610d49565b600080610e8d836110a3565b61ffff81169150618000811690600090610eb390600f90617c001660030b600a1d612175565b90506103ff8316600f600383900b1415610ecc57610400175b6000808360030b12610f0a57600a8260030b610400178460030b6001901b612710610ef79190612018565b610f019190612018565b901d9050610f40565b600a610f1584612264565b60030b6001901b8360030b61040017612710610f319190612018565b610f3b9190611eb0565b901d90505b63ffffffff841615610f5b57610f586000198261209b565b90505b9695505050505050565b60008160200151826000015151808263ffffffff1610610f975760405162461bcd60e51b815260040161027b906117b1565b83516020850180518083016001015190918290610fb382612223565b63ffffffff169052509695505050505050565b6060826000015151828460200151610fde9190611e91565b63ffffffff1611156110025760405162461bcd60e51b815260040161027b90611c76565b60008263ffffffff166001600160401b0381111561103057634e487b7160e01b600052604160045260246000fd5b6040519080825280601f01601f19166020018201604052801561105a576020820181803683370190505b50905063ffffffff831615610b0657835160208086015190818301810190840161108b818363ffffffff8a166111a8565b61109788886001611239565b50505050509392505050565b6000816020015160016110b69190611e91565b82515163ffffffff821681116110de5760405162461bcd60e51b815260040161027b906117b1565b835160208501805160028184018101519192610fb38285611e91565b60008160200151600361110d9190611e91565b82515163ffffffff821681116111355760405162461bcd60e51b815260040161027b906117b1565b835160208501805160048184018101519192610fb38285611e91565b6000816020015160076111649190611e91565b82515163ffffffff8216811161118c5760405162461bcd60e51b815260040161027b906117b1565b835160208501805160088184018101519192610fb38285611e91565b600081116111c85760405162461bcd60e51b815260040161027b9061180e565b6020811061120057815183526111df602084611e79565b92506111ec602083611e79565b91506111f96020826121b4565b90506111c8565b6000600161120f8360206121b4565b61121b90610100611f4a565b61122591906121b4565b925184518416931916929092179092525050565b6000811561128d578263ffffffff168460200151846112589190611e91565b63ffffffff161161127b5760405162461bcd60e51b815260040161027b9061177a565b602084015161128a9084611e91565b92505b83515163ffffffff841611156112b55760405162461bcd60e51b815260040161027b90611899565b505063ffffffff1660209190910181905290565b6040518060c001604052806112dc611305565b815260006020820181905260408201819052606082018190526080820181905260a09091015290565b60408051808201909152606081526000602082015290565b600082601f83011261132d578081fd5b81356001600160401b0380821115611347576113476122b2565b604051601f8301601f19168101602001828111828210171561136b5761136b6122b2565b604052828152848301602001861015611382578384fd5b82602086016020830137918201602001929092529392505050565b6000604082840312156113ae578081fd5b604051604081016001600160401b0382821081831117156113d1576113d16122b2565b8160405282935084359150808211156113e957600080fd5b506113f68582860161131d565b825250602083013563ffffffff8116811461141057600080fd5b6020919091015292915050565b80356001600160401b03811681146102d857600080fd5b803560ff811681146102d857600080fd5b600060208284031215611456578081fd5b81356001600160401b0381111561146b578182fd5b610d3b8482850161131d565b600060208284031215611488578081fd5b81356001600160401b0381111561149d578182fd5b610d3b8482850161139d565b6000602082840312156114ba578081fd5b81356001600160401b03808211156114d0578283fd5b9083019060c082860312156114e3578283fd5b60405160c0810181811083821117156114fe576114fe6122b2565b60405282358281111561150f578485fd5b61151b8782860161139d565b82525061152a60208401611434565b602082015261153b60408401611434565b604082015261154c60608401611434565b606082015261155d6080840161141d565b608082015261156e60a0840161141d565b60a082015295945050505050565b600081518084526115948160208601602086016121f3565b601f01601f19169290920160200192915050565b6001600160401b03169052565b60ff169052565b600083516115ce8184602088016121f3565b8351908301906115e28183602088016121f3565b01949350505050565b600083516115fd8184602088016121f3565b60f89390931b6001600160f81b0319169190920190815260010192915050565b6020808252825182820181905260009190848201906040850190845b81811015611658578351600f0b83529284019291840191600101611639565b50909695505050505050565b6020808252825182820181905260009190848201906040850190845b8181101561165857835160030b83529284019291840191600101611680565b6000602080830181845280855180835260408601915060408482028701019250838701855b828110156116f257603f198886030184526116e085835161157c565b945092850192908501906001016116c4565b5092979650505050505050565b6020808252825182820181905260009190848201906040850190845b818110156116585783516001600160401b03168352928401929184019160010161171b565b901515815260200190565b600060208252610b06602083018461157c565b600f9190910b815260200190565b60039190910b815260200190565b6020808252601d908201527f496e7465676572206f766572666c6f77207768656e207365656b696e67000000604082015260600190565b6020808252603b908201527f547269656420746f20726561642066726f6d206120636f6e73756d656420427560408201527f6666657220286d75737420726577696e64206974206669727374290000000000606082015260800190565b60208082526013908201527243616e6e6f7420636f7079203020627974657360681b604082015260600190565b602080825260409082018190527f547269656420746f20726561642060737472696e675b5d602066726f6d206120908201527f6043424f522e56616c7565602077697468206d616a6f725479706520213d2034606082015260800190565b60208082526027908201527f4e6f7420656e6f75676820627974657320696e20627566666572207768656e206040820152667365656b696e6760c81b606082015260800190565b60208082526044908201527f547269656420746f20726561642060696e74313238602066726f6d206120604360408201527f424f522e56616c7565602077697468206d616a6f7254797065206e6f742030206060820152636f72203160e01b608082015260a00190565b60208082526045908201527f547269656420746f2072656164206120606669786564602076616c756520667260408201527f6f6d2061206043424f522e56616c7565602077697468206d616a6f725479706560608201526420213d203760d81b608082015260a00190565b60208082526017908201527f496e76616c69642043424f52206d616a6f722074797065000000000000000000604082015260600190565b6020808252604c908201527f547269656420746f2072656164206066697865643136602066726f6d2061206060408201527f43424f522e56616c7565602077697468206164646974696f6e616c496e666f7260608201526b6d6174696f6e20213d20323560a01b608082015260a00190565b60208082526049908201527f547269656420746f20726561642060626f6f6c602066726f6d2061206043424f60408201527f522e56616c7565602077697468206c656e20646966666572656e74207468616e606082015268203230206f7220323160b81b608082015260a00190565b60208082526042908201527f496e76616c6964206c656e67746820656e636f64696e6720286e6f6e2d65786960408201527f7374656e74206164646974696f6e616c496e666f726d6174696f6e2076616c75606082015261652960f01b608082015260a00190565b6020808252602f908201527f496e646566696e6974652d6c656e6774682043424f522061727261797320617260408201526e19481b9bdd081cdd5c1c1bdc9d1959608a1b606082015260800190565b60208082526019908201527f496e76616c696420696e646566696e697465206c656e67746800000000000000604082015260600190565b602080825260409082018190527f547269656420746f20726561642060696e743132385b5d602066726f6d206120908201527f6043424f522e56616c7565602077697468206d616a6f725479706520213d2034606082015260800190565b6020808252603e908201527f547269656420746f2072656164206075696e743634602066726f6d206120604360408201527f424f522e56616c7565602077697468206d616a6f725479706520213d20300000606082015260800190565b60208082526027908201527f4e6f7420656e6f75676820627974657320696e20627566666572207768656e2060408201526672656164696e6760c81b606082015260800190565b6020808252602a908201527f466f756e6420656d70747920627566666572207768656e2070617273696e672060408201526943424f522076616c756560b01b606082015260800190565b602080825260409082018190527f547269656420746f2072656164206075696e7436345b5d602066726f6d206120908201527f6043424f522e56616c7565602077697468206d616a6f725479706520213d2034606082015260800190565b60208082526044908201527f547269656420746f207265616420612060626f6f6c602076616c75652066726f60408201527f6d2061206043424f522e56616c7565602077697468206d616a6f725479706520606082015263213d203760e01b608082015260a00190565b600060208252825160c060208401528051604060e0850152611df561012085018261157c565b905063ffffffff60208301511661010085015260ff602086015116604085015260408501519150611e2960608501836115b5565b60608501519150611e3d60808501836115b5565b60808501519150611e5160a08501836115a8565b60a08501519150610d3b60c08501836115a8565b6001600160401b0391909116815260200190565b60008219821115611e8c57611e8c612286565b500190565b600063ffffffff8083168185168083038211156115e2576115e2612286565b600082611ebf57611ebf61229c565b600160ff1b821460001984141615611ed957611ed9612286565b500590565b60006001600160401b0380841680611ef857611ef861229c565b92169190910492915050565b80825b6001808611611f165750611f41565b818704821115611f2857611f28612286565b80861615611f3557918102915b9490941c938002611f07565b94509492505050565b6000610b066000198484600082611f6357506001610b06565b81611f7057506000610b06565b8160018114611f865760028114611f9057611fbd565b6001915050610b06565b60ff841115611fa157611fa1612286565b6001841b915084821115611fb757611fb7612286565b50610b06565b5060208310610133831016604e8410600b8410161715611ff0575081810a83811115611feb57611feb612286565b610b06565b611ffd8484846001611f04565b80860482111561200f5761200f612286565b02949350505050565b60006001600160ff1b038184138284138082168684048611161561203e5761203e612286565b600160ff1b8487128281168783058912161561205c5761205c612286565b85871292508782058712848416161561207757612077612286565b8785058712818416161561208d5761208d612286565b505050929093029392505050565b60008160030b8360030b637fffffff838213848413838304851182821616156120c6576120c6612286565b637fffffff19868512828116878305871216156120e5576120e5612286565b87871292508582058712848416161561210057612100612286565b8585058712818416161561211657612116612286565b5050509290910295945050505050565b600081600f0b83600f0b8281128160016001607f1b03190183128115161561215057612150612286565b8160016001607f1b0301831381161561216b5761216b612286565b5090039392505050565b60008160030b8360030b82811281637fffffff190183128115161561219c5761219c612286565b81637fffffff01831381161561216b5761216b612286565b6000828210156121c6576121c6612286565b500390565b60006001600160401b03838116908316818110156121eb576121eb612286565b039392505050565b60005b8381101561220e5781810151838201526020016121f6565b8381111561221d576000848401525b50505050565b600063ffffffff8083168181141561223d5761223d612286565b6001019392505050565b60006001600160401b038083168181141561223d5761223d612286565b60008160030b637fffffff1981141561227f5761227f612286565b9003919050565b634e487b7160e01b600052601160045260246000fd5b634e487b7160e01b600052601260045260246000fd5b634e487b7160e01b600052604160045260246000fdfea26469706673582212206b08688cc08d59aa3a520b7df9cd2dfdc6745b1feed9199e6c0f412d704da18e64736f6c63430008000033",
  "immutableReferences": {},
  "source": "// SPDX-License-Identifier: MIT\n\npragma solidity >=0.7.0 <0.9.0;\npragma experimental ABIEncoderV2;\n\nimport \"./BufferLib.sol\";\n\n\n/**\n * @title A minimalistic implementation of RFC 7049 Concise Binary Object Representation\n * @notice This library leverages a buffer-like structure for step-by-step decoding of bytes so as to minimize\n * the gas cost of decoding them into a useful native type.\n * @dev Most of the logic has been borrowed from Patrick Gansterers cbor.js library: https://github.com/paroga/cbor-js\n * TODO: add support for Array (majorType = 4)\n * TODO: add support for Map (majorType = 5)\n * TODO: add support for Float32 (majorType = 7, additionalInformation = 26)\n * TODO: add support for Float64 (majorType = 7, additionalInformation = 27)\n */\nlibrary CBOR {\n  using BufferLib for BufferLib.Buffer;\n\n  uint32 constant internal UINT32_MAX = type(uint32).max;\n\n  uint64 constant internal UINT64_MAX = type(uint64).max;\n\n  struct Value {\n    BufferLib.Buffer buffer;\n    uint8 initialByte;\n    uint8 majorType;\n    uint8 additionalInformation;\n    uint64 len;\n    uint64 tag;\n  }\n\n  /**\n   * @notice Decode a `CBOR.Value` structure into a native `bool` value.\n   * @param _cborValue An instance of `CBOR.Value`.\n   * @return The value represented by the input, as a `bool` value.\n   */\n  function decodeBool(Value memory _cborValue) public pure returns(bool) {\n    _cborValue.len = readLength(_cborValue.buffer, _cborValue.additionalInformation);\n    require(_cborValue.majorType == 7, \"Tried to read a `bool` value from a `CBOR.Value` with majorType != 7\");\n    if (_cborValue.len == 20) {\n      return false;\n    } else if (_cborValue.len == 21) {\n      return true;\n    } else {\n      revert(\"Tried to read `bool` from a `CBOR.Value` with len different than 20 or 21\");\n    }\n  }\n\n  /**\n   * @notice Decode a `CBOR.Value` structure into a native `bytes` value.\n   * @param _cborValue An instance of `CBOR.Value`.\n   * @return The value represented by the input, as a `bytes` value.\n   */\n  function decodeBytes(Value memory _cborValue) public pure returns(bytes memory) {\n    _cborValue.len = readLength(_cborValue.buffer, _cborValue.additionalInformation);\n    if (_cborValue.len == UINT32_MAX) {\n      bytes memory bytesData;\n\n      // These checks look repetitive but the equivalent loop would be more expensive.\n      uint32 itemLength = uint32(readIndefiniteStringLength(_cborValue.buffer, _cborValue.majorType));\n      if (itemLength < UINT32_MAX) {\n        bytesData = abi.encodePacked(bytesData, _cborValue.buffer.read(itemLength));\n        itemLength = uint32(readIndefiniteStringLength(_cborValue.buffer, _cborValue.majorType));\n        if (itemLength < UINT32_MAX) {\n          bytesData = abi.encodePacked(bytesData, _cborValue.buffer.read(itemLength));\n        }\n      }\n      return bytesData;\n    } else {\n      return _cborValue.buffer.read(uint32(_cborValue.len));\n    }\n  }\n\n  /**\n   * @notice Decode a `CBOR.Value` structure into a `fixed16` value.\n   * @dev Due to the lack of support for floating or fixed point arithmetic in the EVM, this method offsets all values\n   * by 5 decimal orders so as to get a fixed precision of 5 decimal positions, which should be OK for most `fixed16`\n   * use cases. In other words, the output of this method is 10,000 times the actual value, encoded into an `int32`.\n   * @param _cborValue An instance of `CBOR.Value`.\n   * @return The value represented by the input, as an `int128` value.\n   */\n  function decodeFixed16(Value memory _cborValue) public pure returns(int32) {\n    require(_cborValue.majorType == 7, \"Tried to read a `fixed` value from a `CBOR.Value` with majorType != 7\");\n    require(_cborValue.additionalInformation == 25, \"Tried to read `fixed16` from a `CBOR.Value` with additionalInformation != 25\");\n    return _cborValue.buffer.readFloat16();\n  }\n\n  /**\n   * @notice Decode a `CBOR.Value` structure into a native `int128[]` value whose inner values follow the same convention.\n   * as explained in `decodeFixed16`.\n   * @param _cborValue An instance of `CBOR.Value`.\n   * @return The value represented by the input, as an `int128[]` value.\n   */\n  function decodeFixed16Array(Value memory _cborValue) external pure returns(int32[] memory) {\n    require(_cborValue.majorType == 4, \"Tried to read `int128[]` from a `CBOR.Value` with majorType != 4\");\n\n    uint64 length = readLength(_cborValue.buffer, _cborValue.additionalInformation);\n    require(length < UINT64_MAX, \"Indefinite-length CBOR arrays are not supported\");\n\n    int32[] memory array = new int32[](length);\n    for (uint64 i = 0; i < length; i++) {\n      Value memory item = valueFromBuffer(_cborValue.buffer);\n      array[i] = decodeFixed16(item);\n    }\n\n    return array;\n  }\n\n  /**\n   * @notice Decode a `CBOR.Value` structure into a native `int128` value.\n   * @param _cborValue An instance of `CBOR.Value`.\n   * @return The value represented by the input, as an `int128` value.\n   */\n  function decodeInt128(Value memory _cborValue) public pure returns(int128) {\n    if (_cborValue.majorType == 1) {\n      uint64 length = readLength(_cborValue.buffer, _cborValue.additionalInformation);\n      return int128(-1) - int128(uint128(length));\n    } else if (_cborValue.majorType == 0) {\n      // Any `uint64` can be safely casted to `int128`, so this method supports majorType 1 as well so as to have offer\n      // a uniform API for positive and negative numbers\n      return int128(uint128(decodeUint64(_cborValue)));\n    }\n    revert(\"Tried to read `int128` from a `CBOR.Value` with majorType not 0 or 1\");\n  }\n\n  /**\n   * @notice Decode a `CBOR.Value` structure into a native `int128[]` value.\n   * @param _cborValue An instance of `CBOR.Value`.\n   * @return The value represented by the input, as an `int128[]` value.\n   */\n  function decodeInt128Array(Value memory _cborValue) external pure returns(int128[] memory) {\n    require(_cborValue.majorType == 4, \"Tried to read `int128[]` from a `CBOR.Value` with majorType != 4\");\n\n    uint64 length = readLength(_cborValue.buffer, _cborValue.additionalInformation);\n    require(length < UINT64_MAX, \"Indefinite-length CBOR arrays are not supported\");\n\n    int128[] memory array = new int128[](length);\n    for (uint64 i = 0; i < length; i++) {\n      Value memory item = valueFromBuffer(_cborValue.buffer);\n      array[i] = decodeInt128(item);\n    }\n\n    return array;\n  }\n\n  /**\n   * @notice Decode a `CBOR.Value` structure into a native `string` value.\n   * @param _cborValue An instance of `CBOR.Value`.\n   * @return The value represented by the input, as a `string` value.\n   */\n  function decodeString(Value memory _cborValue) public pure returns(string memory) {\n    _cborValue.len = readLength(_cborValue.buffer, _cborValue.additionalInformation);\n    if (_cborValue.len == UINT64_MAX) {\n      bytes memory textData;\n      bool done;\n      while (!done) {\n        uint64 itemLength = readIndefiniteStringLength(_cborValue.buffer, _cborValue.majorType);\n        if (itemLength < UINT64_MAX) {\n          textData = abi.encodePacked(textData, readText(_cborValue.buffer, itemLength / 4));\n        } else {\n          done = true;\n        }\n      }\n      return string(textData);\n    } else {\n      return string(readText(_cborValue.buffer, _cborValue.len));\n    }\n  }\n\n  /**\n   * @notice Decode a `CBOR.Value` structure into a native `string[]` value.\n   * @param _cborValue An instance of `CBOR.Value`.\n   * @return The value represented by the input, as an `string[]` value.\n   */\n  function decodeStringArray(Value memory _cborValue) external pure returns(string[] memory) {\n    require(_cborValue.majorType == 4, \"Tried to read `string[]` from a `CBOR.Value` with majorType != 4\");\n\n    uint64 length = readLength(_cborValue.buffer, _cborValue.additionalInformation);\n    require(length < UINT64_MAX, \"Indefinite-length CBOR arrays are not supported\");\n\n    string[] memory array = new string[](length);\n    for (uint64 i = 0; i < length; i++) {\n      Value memory item = valueFromBuffer(_cborValue.buffer);\n      array[i] = decodeString(item);\n    }\n\n    return array;\n  }\n\n  /**\n   * @notice Decode a `CBOR.Value` structure into a native `uint64` value.\n   * @param _cborValue An instance of `CBOR.Value`.\n   * @return The value represented by the input, as an `uint64` value.\n   */\n  function decodeUint64(Value memory _cborValue) public pure returns(uint64) {\n    require(_cborValue.majorType == 0, \"Tried to read `uint64` from a `CBOR.Value` with majorType != 0\");\n    return readLength(_cborValue.buffer, _cborValue.additionalInformation);\n  }\n\n  /**\n   * @notice Decode a `CBOR.Value` structure into a native `uint64[]` value.\n   * @param _cborValue An instance of `CBOR.Value`.\n   * @return The value represented by the input, as an `uint64[]` value.\n   */\n  function decodeUint64Array(Value memory _cborValue) external pure returns(uint64[] memory) {\n    require(_cborValue.majorType == 4, \"Tried to read `uint64[]` from a `CBOR.Value` with majorType != 4\");\n\n    uint64 length = readLength(_cborValue.buffer, _cborValue.additionalInformation);\n    require(length < UINT64_MAX, \"Indefinite-length CBOR arrays are not supported\");\n\n    uint64[] memory array = new uint64[](length);\n    for (uint64 i = 0; i < length; i++) {\n      Value memory item = valueFromBuffer(_cborValue.buffer);\n      array[i] = decodeUint64(item);\n    }\n\n    return array;\n  }\n\n  /**\n   * @notice Decode a CBOR.Value structure from raw bytes.\n   * @dev This is the main factory for CBOR.Value instances, which can be later decoded into native EVM types.\n   * @param _cborBytes Raw bytes representing a CBOR-encoded value.\n   * @return A `CBOR.Value` instance containing a partially decoded value.\n   */\n  function valueFromBytes(bytes memory _cborBytes) external pure returns(Value memory) {\n    BufferLib.Buffer memory buffer = BufferLib.Buffer(_cborBytes, 0);\n\n    return valueFromBuffer(buffer);\n  }\n\n  /**\n   * @notice Decode a CBOR.Value structure from raw bytes.\n   * @dev This is an alternate factory for CBOR.Value instances, which can be later decoded into native EVM types.\n   * @param _buffer A Buffer structure representing a CBOR-encoded value.\n   * @return A `CBOR.Value` instance containing a partially decoded value.\n   */\n  function valueFromBuffer(BufferLib.Buffer memory _buffer) public pure returns(Value memory) {\n    require(_buffer.data.length > 0, \"Found empty buffer when parsing CBOR value\");\n\n    uint8 initialByte;\n    uint8 majorType = 255;\n    uint8 additionalInformation;\n    uint64 tag = UINT64_MAX;\n\n    bool isTagged = true;\n    while (isTagged) {\n      // Extract basic CBOR properties from input bytes\n      initialByte = _buffer.readUint8();\n      majorType = initialByte >> 5;\n      additionalInformation = initialByte & 0x1f;\n\n      // Early CBOR tag parsing.\n      if (majorType == 6) {\n        tag = readLength(_buffer, additionalInformation);\n      } else {\n        isTagged = false;\n      }\n    }\n\n    require(majorType <= 7, \"Invalid CBOR major type\");\n\n    return CBOR.Value(\n      _buffer,\n      initialByte,\n      majorType,\n      additionalInformation,\n      0,\n      tag);\n  }\n\n  // Reads the length of the next CBOR item from a buffer, consuming a different number of bytes depending on the\n  // value of the `additionalInformation` argument.\n  function readLength(BufferLib.Buffer memory _buffer, uint8 additionalInformation) private pure returns(uint64) {\n    if (additionalInformation < 24) {\n      return additionalInformation;\n    }\n    if (additionalInformation == 24) {\n      return _buffer.readUint8();\n    }\n    if (additionalInformation == 25) {\n      return _buffer.readUint16();\n    }\n    if (additionalInformation == 26) {\n      return _buffer.readUint32();\n    }\n    if (additionalInformation == 27) {\n      return _buffer.readUint64();\n    }\n    if (additionalInformation == 31) {\n      return UINT64_MAX;\n    }\n    revert(\"Invalid length encoding (non-existent additionalInformation value)\");\n  }\n\n  // Read the length of a CBOR indifinite-length item (arrays, maps, byte strings and text) from a buffer, consuming\n  // as many bytes as specified by the first byte.\n  function readIndefiniteStringLength(BufferLib.Buffer memory _buffer, uint8 majorType) private pure returns(uint64) {\n    uint8 initialByte = _buffer.readUint8();\n    if (initialByte == 0xff) {\n      return UINT64_MAX;\n    }\n    uint64 length = readLength(_buffer, initialByte & 0x1f);\n    require(length < UINT64_MAX && (initialByte >> 5) == majorType, \"Invalid indefinite length\");\n    return length;\n  }\n\n  // Read a text string of a given length from a buffer. Returns a `bytes memory` value for the sake of genericness,\n  // but it can be easily casted into a string with `string(result)`.\n  // solium-disable-next-line security/no-assign-params\n  function readText(BufferLib.Buffer memory _buffer, uint64 _length) private pure returns(bytes memory) {\n    bytes memory result;\n    for (uint64 index = 0; index < _length; index++) {\n      uint8 value = _buffer.readUint8();\n      if (value & 0x80 != 0) {\n        if (value < 0xe0) {\n          value = (value & 0x1f) << 6 |\n            (_buffer.readUint8() & 0x3f);\n          _length -= 1;\n        } else if (value < 0xf0) {\n          value = (value & 0x0f) << 12 |\n            (_buffer.readUint8() & 0x3f) << 6 |\n            (_buffer.readUint8() & 0x3f);\n          _length -= 2;\n        } else {\n          value = (value & 0x0f) << 18 |\n            (_buffer.readUint8() & 0x3f) << 12 |\n            (_buffer.readUint8() & 0x3f) << 6  |\n            (_buffer.readUint8() & 0x3f);\n          _length -= 3;\n        }\n      }\n      result = abi.encodePacked(result, value);\n    }\n    return result;\n  }\n}\n",
  "sourcePath": "witnet-ethereum-bridge/contracts/CBOR.sol",
  "compiler": {
    "name": "solc",
    "version": "0.8.0+commit.c7dfd78e.Emscripten.clang"
  },
  "schemaVersion": "3.4.2",
  "updatedAt": "2021-07-25T13:34:07.263Z",
  "devdoc": {
    "details": "Most of the logic has been borrowed from Patrick Gansterers cbor.js library: https://github.com/paroga/cbor-js TODO: add support for Array (majorType = 4) TODO: add support for Map (majorType = 5) TODO: add support for Float32 (majorType = 7, additionalInformation = 26) TODO: add support for Float64 (majorType = 7, additionalInformation = 27)",
    "kind": "dev",
    "methods": {
      "decodeBool(CBOR.Value)": {
        "params": {
          "_cborValue": "An instance of `CBOR.Value`."
        },
        "returns": {
          "_0": "The value represented by the input, as a `bool` value."
        }
      },
      "decodeBytes(CBOR.Value)": {
        "params": {
          "_cborValue": "An instance of `CBOR.Value`."
        },
        "returns": {
          "_0": "The value represented by the input, as a `bytes` value."
        }
      },
      "decodeFixed16(CBOR.Value)": {
        "details": "Due to the lack of support for floating or fixed point arithmetic in the EVM, this method offsets all values by 5 decimal orders so as to get a fixed precision of 5 decimal positions, which should be OK for most `fixed16` use cases. In other words, the output of this method is 10,000 times the actual value, encoded into an `int32`.",
        "params": {
          "_cborValue": "An instance of `CBOR.Value`."
        },
        "returns": {
          "_0": "The value represented by the input, as an `int128` value."
        }
      },
      "decodeFixed16Array(CBOR.Value)": {
        "params": {
          "_cborValue": "An instance of `CBOR.Value`."
        },
        "returns": {
          "_0": "The value represented by the input, as an `int128[]` value."
        }
      },
      "decodeInt128(CBOR.Value)": {
        "params": {
          "_cborValue": "An instance of `CBOR.Value`."
        },
        "returns": {
          "_0": "The value represented by the input, as an `int128` value."
        }
      },
      "decodeInt128Array(CBOR.Value)": {
        "params": {
          "_cborValue": "An instance of `CBOR.Value`."
        },
        "returns": {
          "_0": "The value represented by the input, as an `int128[]` value."
        }
      },
      "decodeString(CBOR.Value)": {
        "params": {
          "_cborValue": "An instance of `CBOR.Value`."
        },
        "returns": {
          "_0": "The value represented by the input, as a `string` value."
        }
      },
      "decodeStringArray(CBOR.Value)": {
        "params": {
          "_cborValue": "An instance of `CBOR.Value`."
        },
        "returns": {
          "_0": "The value represented by the input, as an `string[]` value."
        }
      },
      "decodeUint64(CBOR.Value)": {
        "params": {
          "_cborValue": "An instance of `CBOR.Value`."
        },
        "returns": {
          "_0": "The value represented by the input, as an `uint64` value."
        }
      },
      "decodeUint64Array(CBOR.Value)": {
        "params": {
          "_cborValue": "An instance of `CBOR.Value`."
        },
        "returns": {
          "_0": "The value represented by the input, as an `uint64[]` value."
        }
      },
      "valueFromBuffer(BufferLib.Buffer)": {
        "details": "This is an alternate factory for CBOR.Value instances, which can be later decoded into native EVM types.",
        "params": {
          "_buffer": "A Buffer structure representing a CBOR-encoded value."
        },
        "returns": {
          "_0": "A `CBOR.Value` instance containing a partially decoded value."
        }
      },
      "valueFromBytes(bytes)": {
        "details": "This is the main factory for CBOR.Value instances, which can be later decoded into native EVM types.",
        "params": {
          "_cborBytes": "Raw bytes representing a CBOR-encoded value."
        },
        "returns": {
          "_0": "A `CBOR.Value` instance containing a partially decoded value."
        }
      }
    },
    "title": "A minimalistic implementation of RFC 7049 Concise Binary Object Representation",
    "version": 1
  },
  "userdoc": {
    "kind": "user",
    "methods": {
      "decodeBool(CBOR.Value)": {
        "notice": "Decode a `CBOR.Value` structure into a native `bool` value."
      },
      "decodeBytes(CBOR.Value)": {
        "notice": "Decode a `CBOR.Value` structure into a native `bytes` value."
      },
      "decodeFixed16(CBOR.Value)": {
        "notice": "Decode a `CBOR.Value` structure into a `fixed16` value."
      },
      "decodeFixed16Array(CBOR.Value)": {
        "notice": "Decode a `CBOR.Value` structure into a native `int128[]` value whose inner values follow the same convention. as explained in `decodeFixed16`."
      },
      "decodeInt128(CBOR.Value)": {
        "notice": "Decode a `CBOR.Value` structure into a native `int128` value."
      },
      "decodeInt128Array(CBOR.Value)": {
        "notice": "Decode a `CBOR.Value` structure into a native `int128[]` value."
      },
      "decodeString(CBOR.Value)": {
        "notice": "Decode a `CBOR.Value` structure into a native `string` value."
      },
      "decodeStringArray(CBOR.Value)": {
        "notice": "Decode a `CBOR.Value` structure into a native `string[]` value."
      },
      "decodeUint64(CBOR.Value)": {
        "notice": "Decode a `CBOR.Value` structure into a native `uint64` value."
      },
      "decodeUint64Array(CBOR.Value)": {
        "notice": "Decode a `CBOR.Value` structure into a native `uint64[]` value."
      },
      "valueFromBuffer(BufferLib.Buffer)": {
        "notice": "Decode a CBOR.Value structure from raw bytes."
      },
      "valueFromBytes(bytes)": {
        "notice": "Decode a CBOR.Value structure from raw bytes."
      }
    },
    "notice": "This library leverages a buffer-like structure for step-by-step decoding of bytes so as to minimize the gas cost of decoding them into a useful native type.",
    "version": 1
  }
}