{
  "contractName": "CBOR",
  "abi": [
    {
      "inputs": [
        {
          "components": [
            {
              "components": [
                {
                  "internalType": "bytes",
                  "name": "data",
                  "type": "bytes"
                },
                {
                  "internalType": "uint32",
                  "name": "cursor",
                  "type": "uint32"
                }
              ],
              "internalType": "struct BufferLib.Buffer",
              "name": "buffer",
              "type": "tuple"
            },
            {
              "internalType": "uint8",
              "name": "initialByte",
              "type": "uint8"
            },
            {
              "internalType": "uint8",
              "name": "majorType",
              "type": "uint8"
            },
            {
              "internalType": "uint8",
              "name": "additionalInformation",
              "type": "uint8"
            },
            {
              "internalType": "uint64",
              "name": "len",
              "type": "uint64"
            },
            {
              "internalType": "uint64",
              "name": "tag",
              "type": "uint64"
            }
          ],
          "internalType": "struct CBOR.Value",
          "name": "_cborValue",
          "type": "tuple"
        }
      ],
      "name": "decodeBool",
      "outputs": [
        {
          "internalType": "bool",
          "name": "",
          "type": "bool"
        }
      ],
      "stateMutability": "pure",
      "type": "function"
    },
    {
      "inputs": [
        {
          "components": [
            {
              "components": [
                {
                  "internalType": "bytes",
                  "name": "data",
                  "type": "bytes"
                },
                {
                  "internalType": "uint32",
                  "name": "cursor",
                  "type": "uint32"
                }
              ],
              "internalType": "struct BufferLib.Buffer",
              "name": "buffer",
              "type": "tuple"
            },
            {
              "internalType": "uint8",
              "name": "initialByte",
              "type": "uint8"
            },
            {
              "internalType": "uint8",
              "name": "majorType",
              "type": "uint8"
            },
            {
              "internalType": "uint8",
              "name": "additionalInformation",
              "type": "uint8"
            },
            {
              "internalType": "uint64",
              "name": "len",
              "type": "uint64"
            },
            {
              "internalType": "uint64",
              "name": "tag",
              "type": "uint64"
            }
          ],
          "internalType": "struct CBOR.Value",
          "name": "_cborValue",
          "type": "tuple"
        }
      ],
      "name": "decodeBytes",
      "outputs": [
        {
          "internalType": "bytes",
          "name": "",
          "type": "bytes"
        }
      ],
      "stateMutability": "pure",
      "type": "function"
    },
    {
      "inputs": [
        {
          "components": [
            {
              "components": [
                {
                  "internalType": "bytes",
                  "name": "data",
                  "type": "bytes"
                },
                {
                  "internalType": "uint32",
                  "name": "cursor",
                  "type": "uint32"
                }
              ],
              "internalType": "struct BufferLib.Buffer",
              "name": "buffer",
              "type": "tuple"
            },
            {
              "internalType": "uint8",
              "name": "initialByte",
              "type": "uint8"
            },
            {
              "internalType": "uint8",
              "name": "majorType",
              "type": "uint8"
            },
            {
              "internalType": "uint8",
              "name": "additionalInformation",
              "type": "uint8"
            },
            {
              "internalType": "uint64",
              "name": "len",
              "type": "uint64"
            },
            {
              "internalType": "uint64",
              "name": "tag",
              "type": "uint64"
            }
          ],
          "internalType": "struct CBOR.Value",
          "name": "_cborValue",
          "type": "tuple"
        }
      ],
      "name": "decodeFixed16",
      "outputs": [
        {
          "internalType": "int32",
          "name": "",
          "type": "int32"
        }
      ],
      "stateMutability": "pure",
      "type": "function"
    },
    {
      "inputs": [
        {
          "components": [
            {
              "components": [
                {
                  "internalType": "bytes",
                  "name": "data",
                  "type": "bytes"
                },
                {
                  "internalType": "uint32",
                  "name": "cursor",
                  "type": "uint32"
                }
              ],
              "internalType": "struct BufferLib.Buffer",
              "name": "buffer",
              "type": "tuple"
            },
            {
              "internalType": "uint8",
              "name": "initialByte",
              "type": "uint8"
            },
            {
              "internalType": "uint8",
              "name": "majorType",
              "type": "uint8"
            },
            {
              "internalType": "uint8",
              "name": "additionalInformation",
              "type": "uint8"
            },
            {
              "internalType": "uint64",
              "name": "len",
              "type": "uint64"
            },
            {
              "internalType": "uint64",
              "name": "tag",
              "type": "uint64"
            }
          ],
          "internalType": "struct CBOR.Value",
          "name": "_cborValue",
          "type": "tuple"
        }
      ],
      "name": "decodeFixed16Array",
      "outputs": [
        {
          "internalType": "int32[]",
          "name": "",
          "type": "int32[]"
        }
      ],
      "stateMutability": "pure",
      "type": "function"
    },
    {
      "inputs": [
        {
          "components": [
            {
              "components": [
                {
                  "internalType": "bytes",
                  "name": "data",
                  "type": "bytes"
                },
                {
                  "internalType": "uint32",
                  "name": "cursor",
                  "type": "uint32"
                }
              ],
              "internalType": "struct BufferLib.Buffer",
              "name": "buffer",
              "type": "tuple"
            },
            {
              "internalType": "uint8",
              "name": "initialByte",
              "type": "uint8"
            },
            {
              "internalType": "uint8",
              "name": "majorType",
              "type": "uint8"
            },
            {
              "internalType": "uint8",
              "name": "additionalInformation",
              "type": "uint8"
            },
            {
              "internalType": "uint64",
              "name": "len",
              "type": "uint64"
            },
            {
              "internalType": "uint64",
              "name": "tag",
              "type": "uint64"
            }
          ],
          "internalType": "struct CBOR.Value",
          "name": "_cborValue",
          "type": "tuple"
        }
      ],
      "name": "decodeInt128",
      "outputs": [
        {
          "internalType": "int128",
          "name": "",
          "type": "int128"
        }
      ],
      "stateMutability": "pure",
      "type": "function"
    },
    {
      "inputs": [
        {
          "components": [
            {
              "components": [
                {
                  "internalType": "bytes",
                  "name": "data",
                  "type": "bytes"
                },
                {
                  "internalType": "uint32",
                  "name": "cursor",
                  "type": "uint32"
                }
              ],
              "internalType": "struct BufferLib.Buffer",
              "name": "buffer",
              "type": "tuple"
            },
            {
              "internalType": "uint8",
              "name": "initialByte",
              "type": "uint8"
            },
            {
              "internalType": "uint8",
              "name": "majorType",
              "type": "uint8"
            },
            {
              "internalType": "uint8",
              "name": "additionalInformation",
              "type": "uint8"
            },
            {
              "internalType": "uint64",
              "name": "len",
              "type": "uint64"
            },
            {
              "internalType": "uint64",
              "name": "tag",
              "type": "uint64"
            }
          ],
          "internalType": "struct CBOR.Value",
          "name": "_cborValue",
          "type": "tuple"
        }
      ],
      "name": "decodeInt128Array",
      "outputs": [
        {
          "internalType": "int128[]",
          "name": "",
          "type": "int128[]"
        }
      ],
      "stateMutability": "pure",
      "type": "function"
    },
    {
      "inputs": [
        {
          "components": [
            {
              "components": [
                {
                  "internalType": "bytes",
                  "name": "data",
                  "type": "bytes"
                },
                {
                  "internalType": "uint32",
                  "name": "cursor",
                  "type": "uint32"
                }
              ],
              "internalType": "struct BufferLib.Buffer",
              "name": "buffer",
              "type": "tuple"
            },
            {
              "internalType": "uint8",
              "name": "initialByte",
              "type": "uint8"
            },
            {
              "internalType": "uint8",
              "name": "majorType",
              "type": "uint8"
            },
            {
              "internalType": "uint8",
              "name": "additionalInformation",
              "type": "uint8"
            },
            {
              "internalType": "uint64",
              "name": "len",
              "type": "uint64"
            },
            {
              "internalType": "uint64",
              "name": "tag",
              "type": "uint64"
            }
          ],
          "internalType": "struct CBOR.Value",
          "name": "_cborValue",
          "type": "tuple"
        }
      ],
      "name": "decodeString",
      "outputs": [
        {
          "internalType": "string",
          "name": "",
          "type": "string"
        }
      ],
      "stateMutability": "pure",
      "type": "function"
    },
    {
      "inputs": [
        {
          "components": [
            {
              "components": [
                {
                  "internalType": "bytes",
                  "name": "data",
                  "type": "bytes"
                },
                {
                  "internalType": "uint32",
                  "name": "cursor",
                  "type": "uint32"
                }
              ],
              "internalType": "struct BufferLib.Buffer",
              "name": "buffer",
              "type": "tuple"
            },
            {
              "internalType": "uint8",
              "name": "initialByte",
              "type": "uint8"
            },
            {
              "internalType": "uint8",
              "name": "majorType",
              "type": "uint8"
            },
            {
              "internalType": "uint8",
              "name": "additionalInformation",
              "type": "uint8"
            },
            {
              "internalType": "uint64",
              "name": "len",
              "type": "uint64"
            },
            {
              "internalType": "uint64",
              "name": "tag",
              "type": "uint64"
            }
          ],
          "internalType": "struct CBOR.Value",
          "name": "_cborValue",
          "type": "tuple"
        }
      ],
      "name": "decodeStringArray",
      "outputs": [
        {
          "internalType": "string[]",
          "name": "",
          "type": "string[]"
        }
      ],
      "stateMutability": "pure",
      "type": "function"
    },
    {
      "inputs": [
        {
          "components": [
            {
              "components": [
                {
                  "internalType": "bytes",
                  "name": "data",
                  "type": "bytes"
                },
                {
                  "internalType": "uint32",
                  "name": "cursor",
                  "type": "uint32"
                }
              ],
              "internalType": "struct BufferLib.Buffer",
              "name": "buffer",
              "type": "tuple"
            },
            {
              "internalType": "uint8",
              "name": "initialByte",
              "type": "uint8"
            },
            {
              "internalType": "uint8",
              "name": "majorType",
              "type": "uint8"
            },
            {
              "internalType": "uint8",
              "name": "additionalInformation",
              "type": "uint8"
            },
            {
              "internalType": "uint64",
              "name": "len",
              "type": "uint64"
            },
            {
              "internalType": "uint64",
              "name": "tag",
              "type": "uint64"
            }
          ],
          "internalType": "struct CBOR.Value",
          "name": "_cborValue",
          "type": "tuple"
        }
      ],
      "name": "decodeUint64",
      "outputs": [
        {
          "internalType": "uint64",
          "name": "",
          "type": "uint64"
        }
      ],
      "stateMutability": "pure",
      "type": "function"
    },
    {
      "inputs": [
        {
          "components": [
            {
              "components": [
                {
                  "internalType": "bytes",
                  "name": "data",
                  "type": "bytes"
                },
                {
                  "internalType": "uint32",
                  "name": "cursor",
                  "type": "uint32"
                }
              ],
              "internalType": "struct BufferLib.Buffer",
              "name": "buffer",
              "type": "tuple"
            },
            {
              "internalType": "uint8",
              "name": "initialByte",
              "type": "uint8"
            },
            {
              "internalType": "uint8",
              "name": "majorType",
              "type": "uint8"
            },
            {
              "internalType": "uint8",
              "name": "additionalInformation",
              "type": "uint8"
            },
            {
              "internalType": "uint64",
              "name": "len",
              "type": "uint64"
            },
            {
              "internalType": "uint64",
              "name": "tag",
              "type": "uint64"
            }
          ],
          "internalType": "struct CBOR.Value",
          "name": "_cborValue",
          "type": "tuple"
        }
      ],
      "name": "decodeUint64Array",
      "outputs": [
        {
          "internalType": "uint64[]",
          "name": "",
          "type": "uint64[]"
        }
      ],
      "stateMutability": "pure",
      "type": "function"
    },
    {
      "inputs": [
        {
          "internalType": "bytes",
          "name": "_cborBytes",
          "type": "bytes"
        }
      ],
      "name": "valueFromBytes",
      "outputs": [
        {
          "components": [
            {
              "components": [
                {
                  "internalType": "bytes",
                  "name": "data",
                  "type": "bytes"
                },
                {
                  "internalType": "uint32",
                  "name": "cursor",
                  "type": "uint32"
                }
              ],
              "internalType": "struct BufferLib.Buffer",
              "name": "buffer",
              "type": "tuple"
            },
            {
              "internalType": "uint8",
              "name": "initialByte",
              "type": "uint8"
            },
            {
              "internalType": "uint8",
              "name": "majorType",
              "type": "uint8"
            },
            {
              "internalType": "uint8",
              "name": "additionalInformation",
              "type": "uint8"
            },
            {
              "internalType": "uint64",
              "name": "len",
              "type": "uint64"
            },
            {
              "internalType": "uint64",
              "name": "tag",
              "type": "uint64"
            }
          ],
          "internalType": "struct CBOR.Value",
          "name": "",
          "type": "tuple"
        }
      ],
      "stateMutability": "pure",
      "type": "function"
    },
    {
      "inputs": [
        {
          "components": [
            {
              "internalType": "bytes",
              "name": "data",
              "type": "bytes"
            },
            {
              "internalType": "uint32",
              "name": "cursor",
              "type": "uint32"
            }
          ],
          "internalType": "struct BufferLib.Buffer",
          "name": "_buffer",
          "type": "tuple"
        }
      ],
      "name": "valueFromBuffer",
      "outputs": [
        {
          "components": [
            {
              "components": [
                {
                  "internalType": "bytes",
                  "name": "data",
                  "type": "bytes"
                },
                {
                  "internalType": "uint32",
                  "name": "cursor",
                  "type": "uint32"
                }
              ],
              "internalType": "struct BufferLib.Buffer",
              "name": "buffer",
              "type": "tuple"
            },
            {
              "internalType": "uint8",
              "name": "initialByte",
              "type": "uint8"
            },
            {
              "internalType": "uint8",
              "name": "majorType",
              "type": "uint8"
            },
            {
              "internalType": "uint8",
              "name": "additionalInformation",
              "type": "uint8"
            },
            {
              "internalType": "uint64",
              "name": "len",
              "type": "uint64"
            },
            {
              "internalType": "uint64",
              "name": "tag",
              "type": "uint64"
            }
          ],
          "internalType": "struct CBOR.Value",
          "name": "",
          "type": "tuple"
        }
      ],
      "stateMutability": "pure",
      "type": "function"
    }
  ],
  "bytecode": "0x61222c61003a600b82828239805160001a60731461002d57634e487b7160e01b600052600060045260246000fd5b30600052607381538281f3fe73000000000000000000000000000000000000000030146080604052600436106100be5760003560e01c80639ada26471161007b5780639ada264714610191578063ac871cbd146101b7578063d9aee209146101d7578063dcb68ea114610202578063dfca5d3414610222578063f896fab31461023557600080fd5b80631bc742b9146100c357806325652e89146100eb578063537ae6d71461010b57806354ee27e61461013157806364af2817146101515780636e16eb8114610171575b600080fd5b6100d66100d1366004611980565b610248565b60405190151581526020015b60405180910390f35b6100fe6100f9366004611980565b6103bb565b6040516100e29190611bad565b61011e610119366004611980565b61056a565b604051600f9190910b81526020016100e2565b61014461013f366004611980565b61064e565b6040516100e29190611aca565b61016461015f366004611980565b61079a565b6040516100e29190611bee565b61018461017f366004611980565b610860565b6040516100e29190611b4c565b6101a461019f366004611980565b610a05565b60405160039190910b81526020016100e2565b6101ca6101c536600461194e565b610b2f565b6040516100e29190611d0b565b6101ea6101e5366004611980565b610c83565b6040516001600160401b0390911681526020016100e2565b610215610210366004611980565b610d14565b6040516100e29190611b11565b6101ca61023036600461191c565b610e60565b610164610243366004611980565b610e85565b600061025c82600001518360600151610f73565b6001600160401b03166080830152604082015160ff166007146102fa5760405162461bcd60e51b8152602060048201526044602482018190527f547269656420746f207265616420612060626f6f6c602076616c75652066726f908201527f6d2061206043424f522e56616c7565602077697468206d616a6f725479706520606482015263213d203760e01b608482015260a4015b60405180910390fd5b81608001516001600160401b03166014141561031857506000919050565b81608001516001600160401b03166015141561033657506001919050565b60405162461bcd60e51b815260206004820152604960248201527f547269656420746f20726561642060626f6f6c602066726f6d2061206043424f60448201527f522e56616c7565602077697468206c656e20646966666572656e74207468616e606482015268203230206f7220323160b81b608482015260a4016102f1565b919050565b6060816040015160ff1660041461043c576040805162461bcd60e51b81526020600482015260248101919091527f547269656420746f2072656164206075696e7436345b5d602066726f6d20612060448201527f6043424f522e56616c7565602077697468206d616a6f725479706520213d203460648201526084016102f1565b600061045083600001518460600151610f73565b90506001600160401b038082161061047a5760405162461bcd60e51b81526004016102f190611c5e565b6000816001600160401b03166001600160401b038111156104ab57634e487b7160e01b600052604160045260246000fd5b6040519080825280602002602001820160405280156104d4578160200160208202803683370190505b50905060005b826001600160401b0316816001600160401b031610156105625760006105038660000151610b2f565b905061050e81610c83565b83836001600160401b03168151811061053757634e487b7160e01b600052603260045260246000fd5b6001600160401b0390921660209283029190910190910152508061055a81612175565b9150506104da565b509392505050565b6000816040015160ff16600114156105ae57600061059083600001518460600151610f73565b90506105a76001600160401b038216600019612054565b9392505050565b604082015160ff166105d2576105c382610c83565b6001600160401b031692915050565b60405162461bcd60e51b8152602060048201526044602482018190527f547269656420746f20726561642060696e74313238602066726f6d2061206043908201527f424f522e56616c7565602077697468206d616a6f7254797065206e6f742030206064820152636f72203160e01b608482015260a4016102f1565b6060816040015160ff166004146106775760405162461bcd60e51b81526004016102f190611cad565b600061068b83600001518460600151610f73565b90506001600160401b03808216106106b55760405162461bcd60e51b81526004016102f190611c5e565b6000816001600160401b03166001600160401b038111156106e657634e487b7160e01b600052604160045260246000fd5b60405190808252806020026020018201604052801561070f578160200160208202803683370190505b50905060005b826001600160401b0316816001600160401b0316101561056257600061073e8660000151610b2f565b90506107498161056a565b83836001600160401b03168151811061077257634e487b7160e01b600052603260045260246000fd5b6020026020010190600f0b9081600f0b8152505050808061079290612175565b915050610715565b60606107ae82600001518360600151610f73565b6001600160401b0390811660808401819052141561084857606060005b806108415760006107e48560000151866040015161109b565b90506001600160401b038082161015610836578451839061080f9061080a600485611e35565b61114b565b604051602001610820929190611a69565b604051602081830303815290604052925061083b565b600191505b506107cb565b5092915050565b61085a8260000151836080015161114b565b92915050565b6060816040015160ff166004146108e1576040805162461bcd60e51b81526020600482015260248101919091527f547269656420746f20726561642060737472696e675b5d602066726f6d20612060448201527f6043424f522e56616c7565602077697468206d616a6f725479706520213d203460648201526084016102f1565b60006108f583600001518460600151610f73565b90506001600160401b038082161061091f5760405162461bcd60e51b81526004016102f190611c5e565b6000816001600160401b03166001600160401b0381111561095057634e487b7160e01b600052604160045260246000fd5b60405190808252806020026020018201604052801561098357816020015b606081526020019060019003908161096e5790505b50905060005b826001600160401b0316816001600160401b031610156105625760006109b28660000151610b2f565b90506109bd8161079a565b83836001600160401b0316815181106109e657634e487b7160e01b600052603260045260246000fd5b60200260200101819052505080806109fd90612175565b915050610989565b6000816040015160ff16600714610a925760405162461bcd60e51b815260206004820152604560248201527f547269656420746f2072656164206120606669786564602076616c756520667260448201527f6f6d2061206043424f522e56616c7565602077697468206d616a6f725479706560648201526420213d203760d81b608482015260a4016102f1565b816060015160ff16601914610b245760405162461bcd60e51b815260206004820152604c60248201527f547269656420746f2072656164206066697865643136602066726f6d2061206060448201527f43424f522e56616c7565602077697468206164646974696f6e616c496e666f7260648201526b6d6174696f6e20213d20323560a01b608482015260a4016102f1565b815161085a90611289565b610b376117a7565b815151610b995760405162461bcd60e51b815260206004820152602a60248201527f466f756e6420656d70747920627566666572207768656e2070617273696e672060448201526943424f522076616c756560b01b60648201526084016102f1565b600060ff816001600160401b0360015b8015610bec57610bb88761136d565b94506007600586901c169350601f851692506006841415610be457610bdd8784610f73565b9150610ba9565b506000610ba9565b60078460ff161115610c405760405162461bcd60e51b815260206004820152601760248201527f496e76616c69642043424f52206d616a6f72207479706500000000000000000060448201526064016102f1565b506040805160c08101825296875260ff9485166020880152928416928601929092529091166060840152600060808401526001600160401b031660a08301525090565b6000816040015160ff16600014610d025760405162461bcd60e51b815260206004820152603e60248201527f547269656420746f2072656164206075696e743634602066726f6d206120604360448201527f424f522e56616c7565602077697468206d616a6f725479706520213d2030000060648201526084016102f1565b61085a82600001518360600151610f73565b6060816040015160ff16600414610d3d5760405162461bcd60e51b81526004016102f190611cad565b6000610d5183600001518460600151610f73565b90506001600160401b0380821610610d7b5760405162461bcd60e51b81526004016102f190611c5e565b6000816001600160401b03166001600160401b03811115610dac57634e487b7160e01b600052604160045260246000fd5b604051908082528060200260200182016040528015610dd5578160200160208202803683370190505b50905060005b826001600160401b0316816001600160401b03161015610562576000610e048660000151610b2f565b9050610e0f81610a05565b83836001600160401b031681518110610e3857634e487b7160e01b600052603260045260246000fd5b602002602001019060030b908160030b81525050508080610e5890612175565b915050610ddb565b610e686117a7565b60408051808201909152828152600060208201526105a781610b2f565b6060610e9982600001518360600151610f73565b6001600160401b03166080830181905263ffffffff1415610f635760606000610eca8460000151856040015161109b565b905063ffffffff80821610156108415783518290610ee890836113ce565b604051602001610ef9929190611a69565b6040516020818303038152906040529150610f1c8460000151856040015161109b565b905063ffffffff80821610156108415783518290610f3a90836113ce565b604051602001610f4b929190611a69565b60405160208183030381529060405291505092915050565b6080820151825161085a916113ce565b600060188260ff161015610f8b575060ff811661085a565b8160ff1660181415610faa57610fa08361136d565b60ff16905061085a565b8160ff1660191415610fca57610fbf836114eb565b61ffff16905061085a565b8160ff16601a1415610fec57610fdf83611542565b63ffffffff16905061085a565b8160ff16601b14156110085761100183611599565b905061085a565b8160ff16601f141561102257506001600160401b0361085a565b60405162461bcd60e51b815260206004820152604260248201527f496e76616c6964206c656e67746820656e636f64696e6720286e6f6e2d65786960448201527f7374656e74206164646974696f6e616c496e666f726d6174696f6e2076616c75606482015261652960f01b608482015260a4016102f1565b6000806110a78461136d565b90508060ff1660ff14156110c5576001600160401b0391505061085a565b60006110d48583601f16610f73565b90506001600160401b038082161080156110f757506007600583901c1660ff8516145b6111435760405162461bcd60e51b815260206004820152601960248201527f496e76616c696420696e646566696e697465206c656e6774680000000000000060448201526064016102f1565b949350505050565b60608060005b836001600160401b0316816001600160401b031610156105625760006111768661136d565b905060808116156112515760e08160ff1610156111bb576111968661136d565b603f16600682601f1660ff16901b1790506001856111b491906120f9565b9450611251565b60f08160ff161015611202576111d08661136d565b603f1660066111de8861136d565b603f1660ff16901b600c83600f1660ff16901b171790506002856111b491906120f9565b61120b8661136d565b603f1660066112198861136d565b603f16901b600c6112298961136d565b603f1660ff16901b601284600f1660ff16901b171717905060038561124e91906120f9565b94505b8281604051602001611264929190611a98565b604051602081830303815290604052925050808061128190612175565b915050611151565b600080611295836114eb565b61ffff811691506180008116906000906112bb90600f90617c001660030b600a1d6120a3565b90506103ff8316600f600383900b14156112d457610400175b6000808360030b1261131257600a8260030b610400178460030b6001901b6127106112ff9190611f46565b6113099190611f46565b901d9050611348565b600a61131d84612192565b60030b6001901b8360030b610400176127106113399190611f46565b6113439190611e07565b901d90505b63ffffffff8416156113635761136060001982611fc9565b90505b9695505050505050565b60008160200151826000015151808263ffffffff161061139f5760405162461bcd60e51b81526004016102f190611c01565b835160208501805180830160010151909182906113bb82612151565b63ffffffff169052509695505050505050565b60608260000151518284602001516113e69190611de8565b63ffffffff16111561144a5760405162461bcd60e51b815260206004820152602760248201527f4e6f7420656e6f75676820627974657320696e20627566666572207768656e2060448201526672656164696e6760c81b60648201526084016102f1565b60008263ffffffff166001600160401b0381111561147857634e487b7160e01b600052604160045260246000fd5b6040519080825280601f01601f1916602001820160405280156114a2576020820181803683370190505b50905063ffffffff8316156105a75783516020808601519081830181019084016114d3818363ffffffff8a166115f0565b6114df888860016116a7565b50505050509392505050565b6000816020015160016114fe9190611de8565b82515163ffffffff821681116115265760405162461bcd60e51b81526004016102f190611c01565b8351602085018051600281840181015191926113bb8285611de8565b6000816020015160036115559190611de8565b82515163ffffffff8216811161157d5760405162461bcd60e51b81526004016102f190611c01565b8351602085018051600481840181015191926113bb8285611de8565b6000816020015160076115ac9190611de8565b82515163ffffffff821681116115d45760405162461bcd60e51b81526004016102f190611c01565b8351602085018051600881840181015191926113bb8285611de8565b600081116116365760405162461bcd60e51b815260206004820152601360248201527243616e6e6f7420636f7079203020627974657360681b60448201526064016102f1565b6020811061166e578151835261164d602084611dd0565b925061165a602083611dd0565b91506116676020826120e2565b9050611636565b6000600161167d8360206120e2565b61168990610100611e9e565b61169391906120e2565b925184518416931916929092179092525050565b6000811561172b578263ffffffff168460200151846116c69190611de8565b63ffffffff16116117195760405162461bcd60e51b815260206004820152601d60248201527f496e7465676572206f766572666c6f77207768656e207365656b696e6700000060448201526064016102f1565b60208401516117289084611de8565b92505b83515163ffffffff841611156117935760405162461bcd60e51b815260206004820152602760248201527f4e6f7420656e6f75676820627974657320696e20627566666572207768656e206044820152667365656b696e6760c81b60648201526084016102f1565b505063ffffffff1660209190910181905290565b604080516101008101909152606060c08201908152600060e08301528190815260006020820181905260408201819052606082018190526080820181905260a09091015290565b600082601f8301126117fe578081fd5b81356001600160401b0380821115611818576118186121e0565b604051601f8301601f19908116603f01168101908282118183101715611840576118406121e0565b81604052838152866020858801011115611858578485fd5b8360208701602083013792830160200193909352509392505050565b600060408284031215611885578081fd5b604051604081016001600160401b0382821081831117156118a8576118a86121e0565b8160405282935084359150808211156118c057600080fd5b506118cd858286016117ee565b825250602083013563ffffffff811681146118e757600080fd5b6020919091015292915050565b80356001600160401b03811681146103b657600080fd5b803560ff811681146103b657600080fd5b60006020828403121561192d578081fd5b81356001600160401b03811115611942578182fd5b611143848285016117ee565b60006020828403121561195f578081fd5b81356001600160401b03811115611974578182fd5b61114384828501611874565b600060208284031215611991578081fd5b81356001600160401b03808211156119a7578283fd5b9083019060c082860312156119ba578283fd5b6119c2611da8565b8235828111156119d0578485fd5b6119dc87828601611874565b8252506119eb6020840161190b565b60208201526119fc6040840161190b565b6040820152611a0d6060840161190b565b6060820152611a1e608084016118f4565b6080820152611a2f60a084016118f4565b60a082015295945050505050565b60008151808452611a55816020860160208601612121565b601f01601f19169290920160200192915050565b60008351611a7b818460208801612121565b835190830190611a8f818360208801612121565b01949350505050565b60008351611aaa818460208801612121565b60f89390931b6001600160f81b0319169190920190815260010192915050565b6020808252825182820181905260009190848201906040850190845b81811015611b05578351600f0b83529284019291840191600101611ae6565b50909695505050505050565b6020808252825182820181905260009190848201906040850190845b81811015611b0557835160030b83529284019291840191600101611b2d565b6000602080830181845280855180835260408601915060408160051b8701019250838701855b82811015611ba057603f19888603018452611b8e858351611a3d565b94509285019290850190600101611b72565b5092979650505050505050565b6020808252825182820181905260009190848201906040850190845b81811015611b055783516001600160401b031683529284019291840191600101611bc9565b6020815260006105a76020830184611a3d565b6020808252603b908201527f547269656420746f20726561642066726f6d206120636f6e73756d656420427560408201527f6666657220286d75737420726577696e64206974206669727374290000000000606082015260800190565b6020808252602f908201527f496e646566696e6974652d6c656e6774682043424f522061727261797320617260408201526e19481b9bdd081cdd5c1c1bdc9d1959608a1b606082015260800190565b602080825260409082018190527f547269656420746f20726561642060696e743132385b5d602066726f6d206120908201527f6043424f522e56616c7565602077697468206d616a6f725479706520213d2034606082015260800190565b602081526000825160c060208401528051604060e0850152611d31610120850182611a3d565b905063ffffffff60208301511661010085015260ff602086015116604085015260408501519150611d67606085018360ff169052565b606085015160ff81166080860152915060808501516001600160401b03811660a0860152915060a08501516001600160401b03811660c08601529150611143565b60405160c081016001600160401b0381118282101715611dca57611dca6121e0565b60405290565b60008219821115611de357611de36121b4565b500190565b600063ffffffff808316818516808303821115611a8f57611a8f6121b4565b600082611e1657611e166121ca565b600160ff1b821460001984141615611e3057611e306121b4565b500590565b60006001600160401b0380841680611e4f57611e4f6121ca565b92169190910492915050565b600181815b80851115611e96578160001904821115611e7c57611e7c6121b4565b80851615611e8957918102915b93841c9390800290611e60565b509250929050565b60006105a78383600082611eb45750600161085a565b81611ec15750600061085a565b8160018114611ed75760028114611ee157611efd565b600191505061085a565b60ff841115611ef257611ef26121b4565b50506001821b61085a565b5060208310610133831016604e8410600b8410161715611f20575081810a61085a565b611f2a8383611e5b565b8060001904821115611f3e57611f3e6121b4565b029392505050565b60006001600160ff1b0381841382841380821686840486111615611f6c57611f6c6121b4565b600160ff1b84871282811687830589121615611f8a57611f8a6121b4565b858712925087820587128484161615611fa557611fa56121b4565b87850587128184161615611fbb57611fbb6121b4565b505050929093029392505050565b60008160030b8360030b637fffffff83821384841383830485118282161615611ff457611ff46121b4565b637fffffff1986851282811687830587121615612013576120136121b4565b87871292508582058712848416161561202e5761202e6121b4565b85850587128184161615612044576120446121b4565b5050509290910295945050505050565b600081600f0b83600f0b8281128160016001607f1b03190183128115161561207e5761207e6121b4565b8160016001607f1b03018313811615612099576120996121b4565b5090039392505050565b60008160030b8360030b82811281637fffffff19018312811516156120ca576120ca6121b4565b81637fffffff018313811615612099576120996121b4565b6000828210156120f4576120f46121b4565b500390565b60006001600160401b0383811690831681811015612119576121196121b4565b039392505050565b60005b8381101561213c578181015183820152602001612124565b8381111561214b576000848401525b50505050565b600063ffffffff8083168181141561216b5761216b6121b4565b6001019392505050565b60006001600160401b038083168181141561216b5761216b6121b4565b60008160030b637fffffff198114156121ad576121ad6121b4565b9003919050565b634e487b7160e01b600052601160045260246000fd5b634e487b7160e01b600052601260045260246000fd5b634e487b7160e01b600052604160045260246000fdfea26469706673582212204966dbc374702b5cd2e711b08c6f2417bfedab7c6c95f156327ae52ed5ac437464736f6c63430008040033",
  "immutableReferences": {},
  "source": "// SPDX-License-Identifier: MIT\n\npragma solidity >=0.7.0 <0.9.0;\npragma experimental ABIEncoderV2;\n\nimport \"./BufferLib.sol\";\n\n\n/**\n * @title A minimalistic implementation of RFC 7049 Concise Binary Object Representation\n * @notice This library leverages a buffer-like structure for step-by-step decoding of bytes so as to minimize\n * the gas cost of decoding them into a useful native type.\n * @dev Most of the logic has been borrowed from Patrick Gansterers cbor.js library: https://github.com/paroga/cbor-js\n * TODO: add support for Array (majorType = 4)\n * TODO: add support for Map (majorType = 5)\n * TODO: add support for Float32 (majorType = 7, additionalInformation = 26)\n * TODO: add support for Float64 (majorType = 7, additionalInformation = 27)\n */\nlibrary CBOR {\n  using BufferLib for BufferLib.Buffer;\n\n  uint32 constant internal UINT32_MAX = type(uint32).max;\n\n  uint64 constant internal UINT64_MAX = type(uint64).max;\n\n  struct Value {\n    BufferLib.Buffer buffer;\n    uint8 initialByte;\n    uint8 majorType;\n    uint8 additionalInformation;\n    uint64 len;\n    uint64 tag;\n  }\n\n  /**\n   * @notice Decode a `CBOR.Value` structure into a native `bool` value.\n   * @param _cborValue An instance of `CBOR.Value`.\n   * @return The value represented by the input, as a `bool` value.\n   */\n  function decodeBool(Value memory _cborValue) public pure returns(bool) {\n    _cborValue.len = readLength(_cborValue.buffer, _cborValue.additionalInformation);\n    require(_cborValue.majorType == 7, \"Tried to read a `bool` value from a `CBOR.Value` with majorType != 7\");\n    if (_cborValue.len == 20) {\n      return false;\n    } else if (_cborValue.len == 21) {\n      return true;\n    } else {\n      revert(\"Tried to read `bool` from a `CBOR.Value` with len different than 20 or 21\");\n    }\n  }\n\n  /**\n   * @notice Decode a `CBOR.Value` structure into a native `bytes` value.\n   * @param _cborValue An instance of `CBOR.Value`.\n   * @return The value represented by the input, as a `bytes` value.\n   */\n  function decodeBytes(Value memory _cborValue) public pure returns(bytes memory) {\n    _cborValue.len = readLength(_cborValue.buffer, _cborValue.additionalInformation);\n    if (_cborValue.len == UINT32_MAX) {\n      bytes memory bytesData;\n\n      // These checks look repetitive but the equivalent loop would be more expensive.\n      uint32 itemLength = uint32(readIndefiniteStringLength(_cborValue.buffer, _cborValue.majorType));\n      if (itemLength < UINT32_MAX) {\n        bytesData = abi.encodePacked(bytesData, _cborValue.buffer.read(itemLength));\n        itemLength = uint32(readIndefiniteStringLength(_cborValue.buffer, _cborValue.majorType));\n        if (itemLength < UINT32_MAX) {\n          bytesData = abi.encodePacked(bytesData, _cborValue.buffer.read(itemLength));\n        }\n      }\n      return bytesData;\n    } else {\n      return _cborValue.buffer.read(uint32(_cborValue.len));\n    }\n  }\n\n  /**\n   * @notice Decode a `CBOR.Value` structure into a `fixed16` value.\n   * @dev Due to the lack of support for floating or fixed point arithmetic in the EVM, this method offsets all values\n   * by 5 decimal orders so as to get a fixed precision of 5 decimal positions, which should be OK for most `fixed16`\n   * use cases. In other words, the output of this method is 10,000 times the actual value, encoded into an `int32`.\n   * @param _cborValue An instance of `CBOR.Value`.\n   * @return The value represented by the input, as an `int128` value.\n   */\n  function decodeFixed16(Value memory _cborValue) public pure returns(int32) {\n    require(_cborValue.majorType == 7, \"Tried to read a `fixed` value from a `CBOR.Value` with majorType != 7\");\n    require(_cborValue.additionalInformation == 25, \"Tried to read `fixed16` from a `CBOR.Value` with additionalInformation != 25\");\n    return _cborValue.buffer.readFloat16();\n  }\n\n  /**\n   * @notice Decode a `CBOR.Value` structure into a native `int128[]` value whose inner values follow the same convention.\n   * as explained in `decodeFixed16`.\n   * @param _cborValue An instance of `CBOR.Value`.\n   * @return The value represented by the input, as an `int128[]` value.\n   */\n  function decodeFixed16Array(Value memory _cborValue) external pure returns(int32[] memory) {\n    require(_cborValue.majorType == 4, \"Tried to read `int128[]` from a `CBOR.Value` with majorType != 4\");\n\n    uint64 length = readLength(_cborValue.buffer, _cborValue.additionalInformation);\n    require(length < UINT64_MAX, \"Indefinite-length CBOR arrays are not supported\");\n\n    int32[] memory array = new int32[](length);\n    for (uint64 i = 0; i < length; i++) {\n      Value memory item = valueFromBuffer(_cborValue.buffer);\n      array[i] = decodeFixed16(item);\n    }\n\n    return array;\n  }\n\n  /**\n   * @notice Decode a `CBOR.Value` structure into a native `int128` value.\n   * @param _cborValue An instance of `CBOR.Value`.\n   * @return The value represented by the input, as an `int128` value.\n   */\n  function decodeInt128(Value memory _cborValue) public pure returns(int128) {\n    if (_cborValue.majorType == 1) {\n      uint64 length = readLength(_cborValue.buffer, _cborValue.additionalInformation);\n      return int128(-1) - int128(uint128(length));\n    } else if (_cborValue.majorType == 0) {\n      // Any `uint64` can be safely casted to `int128`, so this method supports majorType 1 as well so as to have offer\n      // a uniform API for positive and negative numbers\n      return int128(uint128(decodeUint64(_cborValue)));\n    }\n    revert(\"Tried to read `int128` from a `CBOR.Value` with majorType not 0 or 1\");\n  }\n\n  /**\n   * @notice Decode a `CBOR.Value` structure into a native `int128[]` value.\n   * @param _cborValue An instance of `CBOR.Value`.\n   * @return The value represented by the input, as an `int128[]` value.\n   */\n  function decodeInt128Array(Value memory _cborValue) external pure returns(int128[] memory) {\n    require(_cborValue.majorType == 4, \"Tried to read `int128[]` from a `CBOR.Value` with majorType != 4\");\n\n    uint64 length = readLength(_cborValue.buffer, _cborValue.additionalInformation);\n    require(length < UINT64_MAX, \"Indefinite-length CBOR arrays are not supported\");\n\n    int128[] memory array = new int128[](length);\n    for (uint64 i = 0; i < length; i++) {\n      Value memory item = valueFromBuffer(_cborValue.buffer);\n      array[i] = decodeInt128(item);\n    }\n\n    return array;\n  }\n\n  /**\n   * @notice Decode a `CBOR.Value` structure into a native `string` value.\n   * @param _cborValue An instance of `CBOR.Value`.\n   * @return The value represented by the input, as a `string` value.\n   */\n  function decodeString(Value memory _cborValue) public pure returns(string memory) {\n    _cborValue.len = readLength(_cborValue.buffer, _cborValue.additionalInformation);\n    if (_cborValue.len == UINT64_MAX) {\n      bytes memory textData;\n      bool done;\n      while (!done) {\n        uint64 itemLength = readIndefiniteStringLength(_cborValue.buffer, _cborValue.majorType);\n        if (itemLength < UINT64_MAX) {\n          textData = abi.encodePacked(textData, readText(_cborValue.buffer, itemLength / 4));\n        } else {\n          done = true;\n        }\n      }\n      return string(textData);\n    } else {\n      return string(readText(_cborValue.buffer, _cborValue.len));\n    }\n  }\n\n  /**\n   * @notice Decode a `CBOR.Value` structure into a native `string[]` value.\n   * @param _cborValue An instance of `CBOR.Value`.\n   * @return The value represented by the input, as an `string[]` value.\n   */\n  function decodeStringArray(Value memory _cborValue) external pure returns(string[] memory) {\n    require(_cborValue.majorType == 4, \"Tried to read `string[]` from a `CBOR.Value` with majorType != 4\");\n\n    uint64 length = readLength(_cborValue.buffer, _cborValue.additionalInformation);\n    require(length < UINT64_MAX, \"Indefinite-length CBOR arrays are not supported\");\n\n    string[] memory array = new string[](length);\n    for (uint64 i = 0; i < length; i++) {\n      Value memory item = valueFromBuffer(_cborValue.buffer);\n      array[i] = decodeString(item);\n    }\n\n    return array;\n  }\n\n  /**\n   * @notice Decode a `CBOR.Value` structure into a native `uint64` value.\n   * @param _cborValue An instance of `CBOR.Value`.\n   * @return The value represented by the input, as an `uint64` value.\n   */\n  function decodeUint64(Value memory _cborValue) public pure returns(uint64) {\n    require(_cborValue.majorType == 0, \"Tried to read `uint64` from a `CBOR.Value` with majorType != 0\");\n    return readLength(_cborValue.buffer, _cborValue.additionalInformation);\n  }\n\n  /**\n   * @notice Decode a `CBOR.Value` structure into a native `uint64[]` value.\n   * @param _cborValue An instance of `CBOR.Value`.\n   * @return The value represented by the input, as an `uint64[]` value.\n   */\n  function decodeUint64Array(Value memory _cborValue) external pure returns(uint64[] memory) {\n    require(_cborValue.majorType == 4, \"Tried to read `uint64[]` from a `CBOR.Value` with majorType != 4\");\n\n    uint64 length = readLength(_cborValue.buffer, _cborValue.additionalInformation);\n    require(length < UINT64_MAX, \"Indefinite-length CBOR arrays are not supported\");\n\n    uint64[] memory array = new uint64[](length);\n    for (uint64 i = 0; i < length; i++) {\n      Value memory item = valueFromBuffer(_cborValue.buffer);\n      array[i] = decodeUint64(item);\n    }\n\n    return array;\n  }\n\n  /**\n   * @notice Decode a CBOR.Value structure from raw bytes.\n   * @dev This is the main factory for CBOR.Value instances, which can be later decoded into native EVM types.\n   * @param _cborBytes Raw bytes representing a CBOR-encoded value.\n   * @return A `CBOR.Value` instance containing a partially decoded value.\n   */\n  function valueFromBytes(bytes memory _cborBytes) external pure returns(Value memory) {\n    BufferLib.Buffer memory buffer = BufferLib.Buffer(_cborBytes, 0);\n\n    return valueFromBuffer(buffer);\n  }\n\n  /**\n   * @notice Decode a CBOR.Value structure from raw bytes.\n   * @dev This is an alternate factory for CBOR.Value instances, which can be later decoded into native EVM types.\n   * @param _buffer A Buffer structure representing a CBOR-encoded value.\n   * @return A `CBOR.Value` instance containing a partially decoded value.\n   */\n  function valueFromBuffer(BufferLib.Buffer memory _buffer) public pure returns(Value memory) {\n    require(_buffer.data.length > 0, \"Found empty buffer when parsing CBOR value\");\n\n    uint8 initialByte;\n    uint8 majorType = 255;\n    uint8 additionalInformation;\n    uint64 tag = UINT64_MAX;\n\n    bool isTagged = true;\n    while (isTagged) {\n      // Extract basic CBOR properties from input bytes\n      initialByte = _buffer.readUint8();\n      majorType = initialByte >> 5;\n      additionalInformation = initialByte & 0x1f;\n\n      // Early CBOR tag parsing.\n      if (majorType == 6) {\n        tag = readLength(_buffer, additionalInformation);\n      } else {\n        isTagged = false;\n      }\n    }\n\n    require(majorType <= 7, \"Invalid CBOR major type\");\n\n    return CBOR.Value(\n      _buffer,\n      initialByte,\n      majorType,\n      additionalInformation,\n      0,\n      tag);\n  }\n\n  // Reads the length of the next CBOR item from a buffer, consuming a different number of bytes depending on the\n  // value of the `additionalInformation` argument.\n  function readLength(BufferLib.Buffer memory _buffer, uint8 additionalInformation) private pure returns(uint64) {\n    if (additionalInformation < 24) {\n      return additionalInformation;\n    }\n    if (additionalInformation == 24) {\n      return _buffer.readUint8();\n    }\n    if (additionalInformation == 25) {\n      return _buffer.readUint16();\n    }\n    if (additionalInformation == 26) {\n      return _buffer.readUint32();\n    }\n    if (additionalInformation == 27) {\n      return _buffer.readUint64();\n    }\n    if (additionalInformation == 31) {\n      return UINT64_MAX;\n    }\n    revert(\"Invalid length encoding (non-existent additionalInformation value)\");\n  }\n\n  // Read the length of a CBOR indifinite-length item (arrays, maps, byte strings and text) from a buffer, consuming\n  // as many bytes as specified by the first byte.\n  function readIndefiniteStringLength(BufferLib.Buffer memory _buffer, uint8 majorType) private pure returns(uint64) {\n    uint8 initialByte = _buffer.readUint8();\n    if (initialByte == 0xff) {\n      return UINT64_MAX;\n    }\n    uint64 length = readLength(_buffer, initialByte & 0x1f);\n    require(length < UINT64_MAX && (initialByte >> 5) == majorType, \"Invalid indefinite length\");\n    return length;\n  }\n\n  // Read a text string of a given length from a buffer. Returns a `bytes memory` value for the sake of genericness,\n  // but it can be easily casted into a string with `string(result)`.\n  // solium-disable-next-line security/no-assign-params\n  function readText(BufferLib.Buffer memory _buffer, uint64 _length) private pure returns(bytes memory) {\n    bytes memory result;\n    for (uint64 index = 0; index < _length; index++) {\n      uint8 value = _buffer.readUint8();\n      if (value & 0x80 != 0) {\n        if (value < 0xe0) {\n          value = (value & 0x1f) << 6 |\n            (_buffer.readUint8() & 0x3f);\n          _length -= 1;\n        } else if (value < 0xf0) {\n          value = (value & 0x0f) << 12 |\n            (_buffer.readUint8() & 0x3f) << 6 |\n            (_buffer.readUint8() & 0x3f);\n          _length -= 2;\n        } else {\n          value = (value & 0x0f) << 18 |\n            (_buffer.readUint8() & 0x3f) << 12 |\n            (_buffer.readUint8() & 0x3f) << 6  |\n            (_buffer.readUint8() & 0x3f);\n          _length -= 3;\n        }\n      }\n      result = abi.encodePacked(result, value);\n    }\n    return result;\n  }\n}\n",
  "sourcePath": "/home/ay/harmony/lottery/node_modules/witnet-ethereum-bridge/contracts/CBOR.sol",
  "compiler": {
    "name": "solc",
    "version": "0.8.4+commit.c7e474f2.Emscripten.clang"
  },
  "schemaVersion": "3.4.2",
  "updatedAt": "2021-07-25T13:12:32.333Z",
  "devdoc": {
    "details": "Most of the logic has been borrowed from Patrick Gansterers cbor.js library: https://github.com/paroga/cbor-js TODO: add support for Array (majorType = 4) TODO: add support for Map (majorType = 5) TODO: add support for Float32 (majorType = 7, additionalInformation = 26) TODO: add support for Float64 (majorType = 7, additionalInformation = 27)",
    "kind": "dev",
    "methods": {
      "decodeBool(CBOR.Value)": {
        "params": {
          "_cborValue": "An instance of `CBOR.Value`."
        },
        "returns": {
          "_0": "The value represented by the input, as a `bool` value."
        }
      },
      "decodeBytes(CBOR.Value)": {
        "params": {
          "_cborValue": "An instance of `CBOR.Value`."
        },
        "returns": {
          "_0": "The value represented by the input, as a `bytes` value."
        }
      },
      "decodeFixed16(CBOR.Value)": {
        "details": "Due to the lack of support for floating or fixed point arithmetic in the EVM, this method offsets all values by 5 decimal orders so as to get a fixed precision of 5 decimal positions, which should be OK for most `fixed16` use cases. In other words, the output of this method is 10,000 times the actual value, encoded into an `int32`.",
        "params": {
          "_cborValue": "An instance of `CBOR.Value`."
        },
        "returns": {
          "_0": "The value represented by the input, as an `int128` value."
        }
      },
      "decodeFixed16Array(CBOR.Value)": {
        "params": {
          "_cborValue": "An instance of `CBOR.Value`."
        },
        "returns": {
          "_0": "The value represented by the input, as an `int128[]` value."
        }
      },
      "decodeInt128(CBOR.Value)": {
        "params": {
          "_cborValue": "An instance of `CBOR.Value`."
        },
        "returns": {
          "_0": "The value represented by the input, as an `int128` value."
        }
      },
      "decodeInt128Array(CBOR.Value)": {
        "params": {
          "_cborValue": "An instance of `CBOR.Value`."
        },
        "returns": {
          "_0": "The value represented by the input, as an `int128[]` value."
        }
      },
      "decodeString(CBOR.Value)": {
        "params": {
          "_cborValue": "An instance of `CBOR.Value`."
        },
        "returns": {
          "_0": "The value represented by the input, as a `string` value."
        }
      },
      "decodeStringArray(CBOR.Value)": {
        "params": {
          "_cborValue": "An instance of `CBOR.Value`."
        },
        "returns": {
          "_0": "The value represented by the input, as an `string[]` value."
        }
      },
      "decodeUint64(CBOR.Value)": {
        "params": {
          "_cborValue": "An instance of `CBOR.Value`."
        },
        "returns": {
          "_0": "The value represented by the input, as an `uint64` value."
        }
      },
      "decodeUint64Array(CBOR.Value)": {
        "params": {
          "_cborValue": "An instance of `CBOR.Value`."
        },
        "returns": {
          "_0": "The value represented by the input, as an `uint64[]` value."
        }
      },
      "valueFromBuffer(BufferLib.Buffer)": {
        "details": "This is an alternate factory for CBOR.Value instances, which can be later decoded into native EVM types.",
        "params": {
          "_buffer": "A Buffer structure representing a CBOR-encoded value."
        },
        "returns": {
          "_0": "A `CBOR.Value` instance containing a partially decoded value."
        }
      },
      "valueFromBytes(bytes)": {
        "details": "This is the main factory for CBOR.Value instances, which can be later decoded into native EVM types.",
        "params": {
          "_cborBytes": "Raw bytes representing a CBOR-encoded value."
        },
        "returns": {
          "_0": "A `CBOR.Value` instance containing a partially decoded value."
        }
      }
    },
    "title": "A minimalistic implementation of RFC 7049 Concise Binary Object Representation",
    "version": 1
  },
  "userdoc": {
    "kind": "user",
    "methods": {
      "decodeBool(CBOR.Value)": {
        "notice": "Decode a `CBOR.Value` structure into a native `bool` value."
      },
      "decodeBytes(CBOR.Value)": {
        "notice": "Decode a `CBOR.Value` structure into a native `bytes` value."
      },
      "decodeFixed16(CBOR.Value)": {
        "notice": "Decode a `CBOR.Value` structure into a `fixed16` value."
      },
      "decodeFixed16Array(CBOR.Value)": {
        "notice": "Decode a `CBOR.Value` structure into a native `int128[]` value whose inner values follow the same convention. as explained in `decodeFixed16`."
      },
      "decodeInt128(CBOR.Value)": {
        "notice": "Decode a `CBOR.Value` structure into a native `int128` value."
      },
      "decodeInt128Array(CBOR.Value)": {
        "notice": "Decode a `CBOR.Value` structure into a native `int128[]` value."
      },
      "decodeString(CBOR.Value)": {
        "notice": "Decode a `CBOR.Value` structure into a native `string` value."
      },
      "decodeStringArray(CBOR.Value)": {
        "notice": "Decode a `CBOR.Value` structure into a native `string[]` value."
      },
      "decodeUint64(CBOR.Value)": {
        "notice": "Decode a `CBOR.Value` structure into a native `uint64` value."
      },
      "decodeUint64Array(CBOR.Value)": {
        "notice": "Decode a `CBOR.Value` structure into a native `uint64[]` value."
      },
      "valueFromBuffer(BufferLib.Buffer)": {
        "notice": "Decode a CBOR.Value structure from raw bytes."
      },
      "valueFromBytes(bytes)": {
        "notice": "Decode a CBOR.Value structure from raw bytes."
      }
    },
    "notice": "This library leverages a buffer-like structure for step-by-step decoding of bytes so as to minimize the gas cost of decoding them into a useful native type.",
    "version": 1
  }
}