{
  "contractName": "PriceFeed",
  "abi": [
    {
      "inputs": [
        {
          "internalType": "address",
          "name": "_wrb",
          "type": "address"
        }
      ],
      "stateMutability": "nonpayable",
      "type": "constructor"
    },
    {
      "anonymous": false,
      "inputs": [
        {
          "indexed": false,
          "internalType": "uint64",
          "name": "",
          "type": "uint64"
        }
      ],
      "name": "RandomNumberGenerated",
      "type": "event"
    },
    {
      "anonymous": false,
      "inputs": [
        {
          "indexed": false,
          "internalType": "string",
          "name": "",
          "type": "string"
        }
      ],
      "name": "ResultError",
      "type": "event"
    },
    {
      "inputs": [],
      "name": "lastRequestId",
      "outputs": [
        {
          "internalType": "uint256",
          "name": "",
          "type": "uint256"
        }
      ],
      "stateMutability": "view",
      "type": "function"
    },
    {
      "inputs": [],
      "name": "pending",
      "outputs": [
        {
          "internalType": "bool",
          "name": "",
          "type": "bool"
        }
      ],
      "stateMutability": "view",
      "type": "function"
    },
    {
      "inputs": [],
      "name": "randomNumber",
      "outputs": [
        {
          "internalType": "uint64",
          "name": "",
          "type": "uint64"
        }
      ],
      "stateMutability": "view",
      "type": "function"
    },
    {
      "inputs": [],
      "name": "request",
      "outputs": [
        {
          "internalType": "contract Request",
          "name": "",
          "type": "address"
        }
      ],
      "stateMutability": "view",
      "type": "function"
    },
    {
      "inputs": [],
      "name": "requestUpdate",
      "outputs": [],
      "stateMutability": "payable",
      "type": "function"
    },
    {
      "inputs": [],
      "name": "completeUpdate",
      "outputs": [],
      "stateMutability": "nonpayable",
      "type": "function"
    }
  ],
  "bytecode": "0x60a060405234801561001057600080fd5b506040516111c93803806111c983398101604081905261002f916100a3565b6001600160601b0319606082901b1660805260405161004d90610096565b604051809103906000f080158015610069573d6000803e3d6000fd5b50600260016101000a8154816001600160a01b0302191690836001600160a01b03160217905550506100d1565b61035880610e7183390190565b6000602082840312156100b4578081fd5b81516001600160a01b03811681146100ca578182fd5b9392505050565b60805160601c610d746100fd600039600081816104720152818161053101526105e20152610d746000f3fe6080604052600436106100555760003560e01c8063338cdca11461005a5780639c312cfd14610085578063ccbac9f51461008f578063e20ccec3146100b1578063f9881eb6146100d3578063fc2a88c3146100e8575b600080fd5b34801561006657600080fd5b5061006f61010a565b60405161007c9190610b04565b60405180910390f35b61008d61011e565b005b34801561009b57600080fd5b506100a4610178565b60405161007c9190610ce3565b3480156100bd57600080fd5b506100c6610188565b60405161007c9190610b18565b3480156100df57600080fd5b5061008d610191565b3480156100f457600080fd5b506100fd610468565b60405161007c9190610cda565b60025461010090046001600160a01b031681565b60025460ff161561014a5760405162461bcd60e51b815260040161014190610b93565b60405180910390fd5b6002546101649061010090046001600160a01b031661046e565b60019081556002805460ff19169091179055565b60005467ffffffffffffffff1681565b60025460ff1681565b60015461019d81610517565b6101b95760405162461bcd60e51b815260040161014190610b36565b60025460ff166101db5760405162461bcd60e51b815260040161014190610be7565b60006101e86001546105be565b604051636646c11960e01b815290915073__Witnet________________________________90636646c11990610222908490600401610c1e565b60206040518083038186803b15801561023a57600080fd5b505af415801561024e573d6000803e3d6000fd5b505050506040513d601f19601f8201168201806040525081019061027291906108b3565b1561035b57604051638233f9b360e01b815273__Witnet________________________________90638233f9b3906102ae908490600401610c1e565b60206040518083038186803b1580156102c657600080fd5b505af41580156102da573d6000803e3d6000fd5b505050506040513d601f19601f820116820180604052508101906102fe9190610aa9565b6000805467ffffffffffffffff191667ffffffffffffffff92831617908190556040517f9aaedb8f2a864815ef1fd579f85a0e639cc1f71587537e39856ede864e9f36679261034e921690610ce3565b60405180910390a161045a565b6040516323317ad560e21b815260609073__Witnet________________________________90638cc5eb5490610395908590600401610c1e565b60006040518083038186803b1580156103ad57600080fd5b505af49250505080156103e257506040513d6000823e601f3d908101601f191682016040526103df9190810190610908565b60015b61041d573d808015610410576040519150601f19603f3d011682016040523d82523d6000602084013e610415565b606091505b509050610421565b9150505b7fbfea49e8f99b20639d8417dbf46bab7c20b217fbe894ea27a249c990c1a359d6816040516104509190610b23565b60405180910390a1505b50506002805460ff19169055565b60015481565b60007f00000000000000000000000000000000000000000000000000000000000000006001600160a01b03166375f0fea934846040518363ffffffff1660e01b81526004016104bd9190610b04565b6020604051808303818588803b1580156104d657600080fd5b505af11580156104ea573d6000803e3d6000fd5b50505050506040513d601f19601f8201168201806040525081019061050f9190610a91565b90505b919050565b604051631a315e0f60e11b81526000906001600160a01b037f00000000000000000000000000000000000000000000000000000000000000001690633462bc1e90610566908590600401610cda565b60206040518083038186803b15801561057e57600080fd5b505afa158015610592573d6000803e3d6000fd5b505050506040513d601f19601f820116820180604052508101906105b69190610a91565b151592915050565b6105c66106f0565b73__Witnet________________________________63e99e47f37f00000000000000000000000000000000000000000000000000000000000000006001600160a01b03166345b3d782856040518263ffffffff1660e01b815260040161062c9190610cda565b60006040518083038186803b15801561064457600080fd5b505afa158015610658573d6000803e3d6000fd5b505050506040513d6000823e601f3d908101601f1916820160405261068091908101906108cd565b6040518263ffffffff1660e01b815260040161069c9190610b23565b60006040518083038186803b1580156106b457600080fd5b505af41580156106c8573d6000803e3d6000fd5b505050506040513d6000823e601f3d908101601f1916820160405261050f919081019061096e565b604051806040016040528060001515815260200161070c610711565b905290565b6040518060c0016040528061072461074d565b815260006020820181905260408201819052606082018190526080820181905260a09091015290565b60408051808201909152606081526000602082015290565b600067ffffffffffffffff8084111561078057610780610d28565b604051601f8501601f1916810160200182811182821017156107a4576107a4610d28565b6040528481529150818385018610156107bc57600080fd5b6107ca856020830186610cf8565b50509392505050565b8051801515811461051257600080fd5b600082601f8301126107f3578081fd5b61080283835160208501610765565b9392505050565b60006040828403121561081a578081fd5b6040516040810167ffffffffffffffff828210818311171561083e5761083e610d28565b81604052829350845191508082111561085657600080fd5b50610863858286016107e3565b825250602083015163ffffffff8116811461087d57600080fd5b6020919091015292915050565b805167ffffffffffffffff8116811461051257600080fd5b805160ff8116811461051257600080fd5b6000602082840312156108c4578081fd5b610802826107d3565b6000602082840312156108de578081fd5b815167ffffffffffffffff8111156108f4578182fd5b610900848285016107e3565b949350505050565b6000806040838503121561091a578081fd5b82516101008110610929578182fd5b602084015190925067ffffffffffffffff811115610945578182fd5b8301601f81018513610955578182fd5b61096485825160208401610765565b9150509250929050565b60006020828403121561097f578081fd5b815167ffffffffffffffff80821115610996578283fd5b818401915060408083870312156109ab578384fd5b805181810181811084821117156109c4576109c4610d28565b82526109cf846107d3565b81526020840151838111156109e2578586fd5b939093019260c084880312156109f6578485fd5b815160c081018181108582111715610a1057610a10610d28565b8352845184811115610a20578687fd5b610a2c89828801610809565b825250610a3b602086016108a2565b6020820152610a4b8386016108a2565b83820152610a5b606086016108a2565b6060820152610a6c6080860161088a565b6080820152610a7d60a0860161088a565b60a082015260208201529695505050505050565b600060208284031215610aa2578081fd5b5051919050565b600060208284031215610aba578081fd5b6108028261088a565b60008151808452610adb816020860160208601610cf8565b601f01601f19169290920160200192915050565b67ffffffffffffffff169052565b60ff169052565b6001600160a01b0391909116815260200190565b901515815260200190565b6000602082526108026020830184610ac3565b60208082526038908201527f5769746e65742072657175657374206973206e6f7420796574207265736f6c7660408201527f656420627920746865205769746e6574206e6574776f726b0000000000000000606082015260800190565b60208082526034908201527f436f6d706c6574652070656e64696e672072657175657374206265666f72652060408201527372657175657374696e672061206e6577206f6e6560601b606082015260800190565b6020808252601b908201527f5468657265206973206e6f2070656e64696e67207570646174652e0000000000604082015260600190565b6000602082528251151560208301526020830151604080840152805160c0606085015280516040610120860152610c59610160860182610ac3565b905063ffffffff60208301511661014086015260208301519150610c806080860183610afd565b60408301519150610c9460a0860183610afd565b60608301519150610ca860c0860183610afd565b60808301519150610cbc60e0860183610aef565b60a08301519250610cd1610100860184610aef565b95945050505050565b90815260200190565b67ffffffffffffffff91909116815260200190565b60005b83811015610d13578181015183820152602001610cfb565b83811115610d22576000848401525b50505050565b634e487b7160e01b600052604160045260246000fdfea26469706673582212205e5b91117b963b5a1c429e40de01e9bc6b67aeded2de425975c3cb0262f8c18564736f6c63430008000033608060405234801561001057600080fd5b506040518060c00160405280609181526020016102c760919139805161003d906000906020840190610044565b5050610118565b828054610050906100dd565b90600052602060002090601f01602090048101928261007257600085556100b8565b82601f1061008b57805160ff19168380011785556100b8565b828001600101855582156100b8579182015b828111156100b857825182559160200191906001019061009d565b506100c49291506100c8565b5090565b5b808211156100c457600081556001016100c9565b6002810460018216806100f157607f821691505b6020821081141561011257634e487b7160e01b600052602260045260246000fd5b50919050565b6101a0806101276000396000f3fe608060405234801561001057600080fd5b506004361061002b5760003560e01c8063f094000214610030575b600080fd5b61003861004e565b60405161004591906100dc565b60405180910390f35b6000805461005b9061012f565b80601f01602080910402602001604051908101604052809291908181526020018280546100879061012f565b80156100d45780601f106100a9576101008083540402835291602001916100d4565b820191906000526020600020905b8154815290600101906020018083116100b757829003601f168201915b505050505081565b6000602080835283518082850152825b81811015610108578581018301518582016040015282016100ec565b818111156101195783604083870101525b50601f01601f1916929092016040019392505050565b60028104600182168061014357607f821691505b6020821081141561016457634e487b7160e01b600052602260045260246000fd5b5091905056fea2646970667358221220e9b60bbc43fc6a93d0662c21a63e13b41ad26f79f1534e26cd3850508426c9de64736f6c634300080000330a7e08c4d0f587061258124c7777772e72616e646f6d6e756d6265726170692e636f6d2f6170692f76312e302f72616e646f6d7265646469746e756d6265723f6d696e3d313030266d61783d3130303026636f756e743d311a0882187782186561301a0d0a0908051205fa3fc000001003220d0a0908051205fa3fc00000100310c0843d186420e80728333080c8afa025",
  "immutableReferences": {
    "1958": [
      {
        "length": 32,
        "start": 1138
      },
      {
        "length": 32,
        "start": 1329
      },
      {
        "length": 32,
        "start": 1506
      }
    ]
  },
  "source": "// SPDX-License-Identifier: MIT\npragma solidity >=0.7.0 <0.9.0;\npragma experimental ABIEncoderV2;\n\n// Import the UsingWitnet library that enables interacting with Witnet\nimport \"witnet-ethereum-bridge/contracts/UsingWitnet.sol\";\n// Import the BitcoinPrice request that you created before\nimport \"./requests/RandomNumber.sol\";\n\n// Your contract needs to inherit from UsingWitnet\ncontract PriceFeed is UsingWitnet {\n\n  using Witnet for Witnet.Result;\n\n  // random number\n  uint64 public randomNumber;\n\n  // Stores the ID of the last Witnet request\n  uint256 public lastRequestId;\n\n  // Tells if an update has been requested but not yet completed\n  bool public pending;\n\n  // The Witnet request object, is set in the constructor\n  Request public request;\n\n  // Emits when the random number is generated\n  event RandomNumberGenerated(uint64);\n\n  // Emits when found an error decoding request result\n  event ResultError(string);\n\n  // This constructor does a nifty trick to tell the `UsingWitnet` library where\n  // to find the Witnet contracts on whatever Ethereum network you use.\n  constructor (address _wrb) UsingWitnet(_wrb) {\n    // Instantiate the Witnet request\n    request = new RandomNumberRequest();\n  }\n\n  /**\n  * @notice Sends `request` to the WitnetRequestBoard.\n  * @dev This method will only succeed if `pending` is 0.\n  **/\n  function requestUpdate() public payable {\n    require(!pending, \"Complete pending request before requesting a new one\");\n\n    // Send the request to Witnet and store the ID for later retrieval of the result\n    // The `witnetPostRequest` method comes with `UsingWitnet`\n    lastRequestId = witnetPostRequest(request);\n\n    // Signal that there is already a pending request\n    pending = true;\n  }\n\n  /**\n  * @notice Reads the result, if ready, from the WitnetRequestBoard.\n  * @dev The `witnetRequestAccepted` modifier comes with `UsingWitnet` and allows to\n  * protect your methods from being called before the request has been successfully\n  * relayed into Witnet.\n  **/\n  function completeUpdate() public witnetRequestResolved(lastRequestId) {\n    require(pending, \"There is no pending update.\");\n\n    // Read the result of the Witnet request\n    // The `witnetReadResult` method comes with `UsingWitnet`\n    Witnet.Result memory result = witnetReadResult(lastRequestId);\n\n    // If the Witnet request succeeded, decode the result and update the price point\n    // If it failed, revert the transaction with a pretty-printed error message\n    if (result.isOk()) {\n      randomNumber = result.asUint64();\n      emit RandomNumberGenerated(randomNumber);\n    } else {\n      string memory errorMessage;\n\n      // Try to read the value as an error message, catch error bytes if read fails\n      try result.asErrorMessage() returns (Witnet.ErrorCodes, string memory e) {\n        errorMessage = e;\n      }\n      catch (bytes memory errorBytes){\n        errorMessage = string(errorBytes);\n      }\n      emit ResultError(errorMessage);\n    }\n\n    // In any case, set `pending` to false so a new update can be requested\n    pending = false;\n  }\n}\n\n",
  "sourcePath": "/home/ay/harmony/social-game/contracts/PriceFeed.sol",
  "compiler": {
    "name": "solc",
    "version": "0.8.0+commit.c7dfd78e.Emscripten.clang"
  },
  "schemaVersion": "3.4.2",
  "updatedAt": "2021-07-25T13:34:07.229Z",
  "devdoc": {
    "kind": "dev",
    "methods": {
      "completeUpdate()": {
        "details": "The `witnetRequestAccepted` modifier comes with `UsingWitnet` and allows to protect your methods from being called before the request has been successfully relayed into Witnet.*"
      },
      "requestUpdate()": {
        "details": "This method will only succeed if `pending` is 0.*"
      }
    },
    "version": 1
  },
  "userdoc": {
    "kind": "user",
    "methods": {
      "completeUpdate()": {
        "notice": "Reads the result, if ready, from the WitnetRequestBoard."
      },
      "requestUpdate()": {
        "notice": "Sends `request` to the WitnetRequestBoard."
      }
    },
    "version": 1
  }
}