{
  "contractName": "RandomNumberRequest",
  "abi": [
    {
      "inputs": [],
      "stateMutability": "nonpayable",
      "type": "constructor"
    },
    {
      "inputs": [],
      "name": "bytecode",
      "outputs": [
        {
          "internalType": "bytes",
          "name": "",
          "type": "bytes"
        }
      ],
      "stateMutability": "view",
      "type": "function"
    }
  ],
  "bytecode": "0x608060405234801561001057600080fd5b506040518060c00160405280609181526020016102c760919139805161003d906000906020840190610044565b5050610118565b828054610050906100dd565b90600052602060002090601f01602090048101928261007257600085556100b8565b82601f1061008b57805160ff19168380011785556100b8565b828001600101855582156100b8579182015b828111156100b857825182559160200191906001019061009d565b506100c49291506100c8565b5090565b5b808211156100c457600081556001016100c9565b6002810460018216806100f157607f821691505b6020821081141561011257634e487b7160e01b600052602260045260246000fd5b50919050565b6101a0806101276000396000f3fe608060405234801561001057600080fd5b506004361061002b5760003560e01c8063f094000214610030575b600080fd5b61003861004e565b60405161004591906100dc565b60405180910390f35b6000805461005b9061012f565b80601f01602080910402602001604051908101604052809291908181526020018280546100879061012f565b80156100d45780601f106100a9576101008083540402835291602001916100d4565b820191906000526020600020905b8154815290600101906020018083116100b757829003601f168201915b505050505081565b6000602080835283518082850152825b81811015610108578581018301518582016040015282016100ec565b818111156101195783604083870101525b50601f01601f1916929092016040019392505050565b60028104600182168061014357607f821691505b6020821081141561016457634e487b7160e01b600052602260045260246000fd5b5091905056fea2646970667358221220e9b60bbc43fc6a93d0662c21a63e13b41ad26f79f1534e26cd3850508426c9de64736f6c634300080000330a7e08c4d0f587061258124c7777772e72616e646f6d6e756d6265726170692e636f6d2f6170692f76312e302f72616e646f6d7265646469746e756d6265723f6d696e3d313030266d61783d3130303026636f756e743d311a0882187782186561301a0d0a0908051205fa3fc000001003220d0a0908051205fa3fc00000100310c0843d186420e80728333080c8afa025",
  "immutableReferences": {},
  "source": "// SPDX-License-Identifier: MIT\n\npragma solidity >=0.7.0 <0.9.0;\n\nimport \"witnet-ethereum-bridge/contracts/Request.sol\";\n\n// The bytecode of the RandomNumber request that will be sent to Witnet\ncontract RandomNumberRequest is Request {\n  constructor () Request(hex\"0a7e08c4d0f587061258124c7777772e72616e646f6d6e756d6265726170692e636f6d2f6170692f76312e302f72616e646f6d7265646469746e756d6265723f6d696e3d313030266d61783d3130303026636f756e743d311a0882187782186561301a0d0a0908051205fa3fc000001003220d0a0908051205fa3fc00000100310c0843d186420e80728333080c8afa025\") { }\n}\n",
  "sourcePath": "/home/ay/harmony/social-game/contracts/requests/RandomNumber.sol",
  "compiler": {
    "name": "solc",
    "version": "0.8.0+commit.c7dfd78e.Emscripten.clang"
  },
  "schemaVersion": "3.4.2",
  "updatedAt": "2021-07-25T13:34:07.233Z",
  "devdoc": {
    "kind": "dev",
    "methods": {},
    "version": 1
  },
  "userdoc": {
    "kind": "user",
    "methods": {},
    "version": 1
  }
}