{
  "contractName": "Request",
  "abi": [
    {
      "inputs": [
        {
          "internalType": "bytes",
          "name": "_bytecode",
          "type": "bytes"
        }
      ],
      "stateMutability": "nonpayable",
      "type": "constructor"
    },
    {
      "inputs": [],
      "name": "bytecode",
      "outputs": [
        {
          "internalType": "bytes",
          "name": "",
          "type": "bytes"
        }
      ],
      "stateMutability": "view",
      "type": "function"
    }
  ],
  "bytecode": "0x608060405234801561001057600080fd5b506040516103a43803806103a483398101604081905261002f916100e2565b8051610042906000906020840190610049565b50506101f5565b828054610055906101a4565b90600052602060002090601f01602090048101928261007757600085556100bd565b82601f1061009057805160ff19168380011785556100bd565b828001600101855582156100bd579182015b828111156100bd5782518255916020019190600101906100a2565b506100c99291506100cd565b5090565b5b808211156100c957600081556001016100ce565b600060208083850312156100f4578182fd5b82516001600160401b038082111561010a578384fd5b818501915085601f83011261011d578384fd5b81518181111561012f5761012f6101df565b604051601f8201601f1916810185018381118282101715610152576101526101df565b6040528181528382018501881015610168578586fd5b8592505b81831015610189578383018501518184018601529184019161016c565b8183111561019957858583830101525b979650505050505050565b6002810460018216806101b857607f821691505b602082108114156101d957634e487b7160e01b600052602260045260246000fd5b50919050565b634e487b7160e01b600052604160045260246000fd5b6101a0806102046000396000f3fe608060405234801561001057600080fd5b506004361061002b5760003560e01c8063f094000214610030575b600080fd5b61003861004e565b60405161004591906100dc565b60405180910390f35b6000805461005b9061012f565b80601f01602080910402602001604051908101604052809291908181526020018280546100879061012f565b80156100d45780601f106100a9576101008083540402835291602001916100d4565b820191906000526020600020905b8154815290600101906020018083116100b757829003601f168201915b505050505081565b6000602080835283518082850152825b81811015610108578581018301518582016040015282016100ec565b818111156101195783604083870101525b50601f01601f1916929092016040019392505050565b60028104600182168061014357607f821691505b6020821081141561016457634e487b7160e01b600052602260045260246000fd5b5091905056fea2646970667358221220390711c31c1c1a9560b1c8af8014f668ba5be0158d8188b42441b1059200b2ea64736f6c63430008000033",
  "immutableReferences": {},
  "source": "// SPDX-License-Identifier: MIT\n\npragma solidity >=0.7.0 <0.9.0;\n\n\n\n/**\n * @title The serialized form of a Witnet data request\n */\ncontract Request {\n  bytes public bytecode;\n\n /**\n  * @dev A `Request` is constructed around a `bytes memory` value containing a well-formed Witnet data request serialized\n  * using Protocol Buffers. However, we cannot verify its validity at this point. This implies that contracts using\n  * the WRB should not be considered trustless before a valid Proof-of-Inclusion has been posted for the requests.\n  * The hash of the request is computed in the constructor to guarantee consistency. Otherwise there could be a\n  * mismatch and a data request could be resolved with the result of another.\n  * @param _bytecode Witnet request in bytes.\n  */\n  constructor(bytes memory _bytecode) {\n    bytecode = _bytecode;\n  }\n}\n",
  "sourcePath": "witnet-ethereum-bridge/contracts/Request.sol",
  "compiler": {
    "name": "solc",
    "version": "0.8.0+commit.c7dfd78e.Emscripten.clang"
  },
  "schemaVersion": "3.4.2",
  "updatedAt": "2021-07-25T13:34:07.277Z",
  "devdoc": {
    "kind": "dev",
    "methods": {
      "constructor": {
        "details": "A `Request` is constructed around a `bytes memory` value containing a well-formed Witnet data request serialized using Protocol Buffers. However, we cannot verify its validity at this point. This implies that contracts using the WRB should not be considered trustless before a valid Proof-of-Inclusion has been posted for the requests. The hash of the request is computed in the constructor to guarantee consistency. Otherwise there could be a mismatch and a data request could be resolved with the result of another.",
        "params": {
          "_bytecode": "Witnet request in bytes."
        }
      }
    },
    "title": "The serialized form of a Witnet data request",
    "version": 1
  },
  "userdoc": {
    "kind": "user",
    "methods": {},
    "version": 1
  }
}