{
  "contractName": "WitnetRequestBoard",
  "abi": [
    {
      "inputs": [
        {
          "internalType": "address[]",
          "name": "_committee",
          "type": "address[]"
        }
      ],
      "stateMutability": "nonpayable",
      "type": "constructor"
    },
    {
      "anonymous": false,
      "inputs": [
        {
          "indexed": false,
          "internalType": "uint256",
          "name": "_id",
          "type": "uint256"
        }
      ],
      "name": "PostedRequest",
      "type": "event"
    },
    {
      "anonymous": false,
      "inputs": [
        {
          "indexed": false,
          "internalType": "uint256",
          "name": "_id",
          "type": "uint256"
        }
      ],
      "name": "PostedResult",
      "type": "event"
    },
    {
      "inputs": [],
      "name": "ESTIMATED_REPORT_RESULT_GAS",
      "outputs": [
        {
          "internalType": "uint256",
          "name": "",
          "type": "uint256"
        }
      ],
      "stateMutability": "view",
      "type": "function"
    },
    {
      "inputs": [
        {
          "internalType": "address",
          "name": "",
          "type": "address"
        }
      ],
      "name": "isInCommittee",
      "outputs": [
        {
          "internalType": "bool",
          "name": "",
          "type": "bool"
        }
      ],
      "stateMutability": "view",
      "type": "function"
    },
    {
      "inputs": [],
      "name": "owner",
      "outputs": [
        {
          "internalType": "address",
          "name": "",
          "type": "address"
        }
      ],
      "stateMutability": "view",
      "type": "function"
    },
    {
      "inputs": [
        {
          "internalType": "uint256",
          "name": "",
          "type": "uint256"
        }
      ],
      "name": "requests",
      "outputs": [
        {
          "internalType": "address",
          "name": "requestAddress",
          "type": "address"
        },
        {
          "internalType": "uint256",
          "name": "drOutputHash",
          "type": "uint256"
        },
        {
          "internalType": "uint256",
          "name": "reward",
          "type": "uint256"
        },
        {
          "internalType": "uint256",
          "name": "gasPrice",
          "type": "uint256"
        },
        {
          "internalType": "bytes",
          "name": "result",
          "type": "bytes"
        },
        {
          "internalType": "uint256",
          "name": "drTxHash",
          "type": "uint256"
        }
      ],
      "stateMutability": "view",
      "type": "function"
    },
    {
      "inputs": [
        {
          "internalType": "address",
          "name": "_requestAddress",
          "type": "address"
        }
      ],
      "name": "postDataRequest",
      "outputs": [
        {
          "internalType": "uint256",
          "name": "",
          "type": "uint256"
        }
      ],
      "stateMutability": "payable",
      "type": "function"
    },
    {
      "inputs": [
        {
          "internalType": "uint256",
          "name": "_id",
          "type": "uint256"
        }
      ],
      "name": "upgradeDataRequest",
      "outputs": [],
      "stateMutability": "payable",
      "type": "function"
    },
    {
      "inputs": [
        {
          "internalType": "uint256",
          "name": "_id",
          "type": "uint256"
        },
        {
          "internalType": "uint256",
          "name": "_drTxHash",
          "type": "uint256"
        },
        {
          "internalType": "bytes",
          "name": "_result",
          "type": "bytes"
        }
      ],
      "name": "reportResult",
      "outputs": [],
      "stateMutability": "nonpayable",
      "type": "function"
    },
    {
      "inputs": [
        {
          "internalType": "uint256",
          "name": "_id",
          "type": "uint256"
        }
      ],
      "name": "readDataRequest",
      "outputs": [
        {
          "internalType": "bytes",
          "name": "",
          "type": "bytes"
        }
      ],
      "stateMutability": "view",
      "type": "function"
    },
    {
      "inputs": [
        {
          "internalType": "uint256",
          "name": "_id",
          "type": "uint256"
        }
      ],
      "name": "readResult",
      "outputs": [
        {
          "internalType": "bytes",
          "name": "",
          "type": "bytes"
        }
      ],
      "stateMutability": "view",
      "type": "function"
    },
    {
      "inputs": [
        {
          "internalType": "uint256",
          "name": "_id",
          "type": "uint256"
        }
      ],
      "name": "readGasPrice",
      "outputs": [
        {
          "internalType": "uint256",
          "name": "",
          "type": "uint256"
        }
      ],
      "stateMutability": "view",
      "type": "function"
    },
    {
      "inputs": [
        {
          "internalType": "uint256",
          "name": "_id",
          "type": "uint256"
        }
      ],
      "name": "readDrTxHash",
      "outputs": [
        {
          "internalType": "uint256",
          "name": "",
          "type": "uint256"
        }
      ],
      "stateMutability": "view",
      "type": "function"
    },
    {
      "inputs": [],
      "name": "requestsCount",
      "outputs": [
        {
          "internalType": "uint256",
          "name": "",
          "type": "uint256"
        }
      ],
      "stateMutability": "view",
      "type": "function"
    },
    {
      "inputs": [
        {
          "internalType": "address",
          "name": "_address",
          "type": "address"
        }
      ],
      "name": "isUpgradable",
      "outputs": [
        {
          "internalType": "bool",
          "name": "",
          "type": "bool"
        }
      ],
      "stateMutability": "view",
      "type": "function"
    },
    {
      "inputs": [
        {
          "internalType": "uint256",
          "name": "_gasPrice",
          "type": "uint256"
        }
      ],
      "name": "estimateGasCost",
      "outputs": [
        {
          "internalType": "uint256",
          "name": "",
          "type": "uint256"
        }
      ],
      "stateMutability": "pure",
      "type": "function"
    },
    {
      "inputs": [
        {
          "internalType": "bytes",
          "name": "_bytecode",
          "type": "bytes"
        }
      ],
      "name": "computeDrOutputHash",
      "outputs": [
        {
          "internalType": "uint256",
          "name": "",
          "type": "uint256"
        }
      ],
      "stateMutability": "pure",
      "type": "function"
    }
  ],
  "bytecode": "0x60806040523480156200001157600080fd5b506040516200190e3803806200190e8339810160408190526200003491620002e9565b600080546001600160a01b031916331781555b8151811015620000be5760018060008484815181106200007757634e487b7160e01b600052603260045260246000fd5b6020908102919091018101516001600160a01b03168252810191909152604001600020805460ff191691151591909117905580620000b581620003fa565b91505062000047565b50620001026040518060c0016040528060006001600160a01b0316815260200160008152602001600081526020016000815260200160608152602001600081525090565b6002805460018101825560009190915281517f405787fa12a823e0f2b7631cc41b3ba8828b3321ca811111fa75cd3aa3bb5ace600690920291820180546001600160a01b0319166001600160a01b039092169190911781556020808401517f405787fa12a823e0f2b7631cc41b3ba8828b3321ca811111fa75cd3aa3bb5acf84015560408401517f405787fa12a823e0f2b7631cc41b3ba8828b3321ca811111fa75cd3aa3bb5ad084015560608401517f405787fa12a823e0f2b7631cc41b3ba8828b3321ca811111fa75cd3aa3bb5ad184015560808401518051859462000211937f405787fa12a823e0f2b7631cc41b3ba8828b3321ca811111fa75cd3aa3bb5ad290910192019062000226565b5060a082015181600501555050505062000438565b8280546200023490620003bd565b90600052602060002090601f016020900481019282620002585760008555620002a3565b82601f106200027357805160ff1916838001178555620002a3565b82800160010185558215620002a3579182015b82811115620002a357825182559160200191906001019062000286565b50620002b1929150620002b5565b5090565b5b80821115620002b15760008155600101620002b6565b80516001600160a01b0381168114620002e457600080fd5b919050565b60006020808385031215620002fc578182fd5b82516001600160401b038082111562000313578384fd5b818501915085601f83011262000327578384fd5b8151818111156200033c576200033c62000422565b8060051b604051601f19603f8301168101818110858211171562000364576200036462000422565b604052828152858101935084860182860187018a101562000383578788fd5b8795505b83861015620003b0576200039b81620002cc565b85526001959095019493860193860162000387565b5098975050505050505050565b600181811c90821680620003d257607f821691505b60208210811415620003f457634e487b7160e01b600052602260045260246000fd5b50919050565b60006000198214156200041b57634e487b7160e01b81526011600452602481fd5b5060010190565b634e487b7160e01b600052604160045260246000fd5b6114c680620004486000396000f3fe6080604052600436106100e85760003560e01c806381d12c581161008a578063be2adb3511610059578063be2adb3514610296578063c6de1d55146102b6578063e5bcdafa146102d6578063fbfa4b7f146102f657600080fd5b806381d12c58146101ec5780638da5cb5b1461021e578063a16f44f614610256578063bd4725a61461027657600080fd5b80633462bc1e116100c65780633462bc1e1461017757806345b3d7821461019757806375f0fea9146101c457806380a1376f146101d757600080fd5b8063014358dd146100ed5780631a880ff5146101325780632f80a44d14610160575b600080fd5b3480156100f957600080fd5b5061011d61010836600461107c565b60016020526000908152604090205460ff1681565b60405190151581526020015b60405180910390f35b34801561013e57600080fd5b5061015261014d3660046111a5565b61030b565b604051908152602001610129565b34801561016c57600080fd5b506101526201906081565b34801561018357600080fd5b506101526101923660046111a5565b610377565b3480156101a357600080fd5b506101b76101b23660046111a5565b6103d9565b60405161012991906112c6565b6101526101d236600461107c565b610554565b6101ea6101e53660046111a5565b61079c565b005b3480156101f857600080fd5b5061020c6102073660046111a5565b610945565b60405161012996959493929190611280565b34801561022a57600080fd5b5060005461023e906001600160a01b031681565b6040516001600160a01b039091168152602001610129565b34801561026257600080fd5b506101ea6102713660046111bd565b610a22565b34801561028257600080fd5b506101526102913660046111a5565b610cec565b3480156102a257600080fd5b5061011d6102b136600461107c565b610d01565b3480156102c257600080fd5b506101b76102d13660046111a5565b610d28565b3480156102e257600080fd5b506101526102f13660046110c2565b610f1d565b34801561030257600080fd5b50600254610152565b600081806002805490501161033b5760405162461bcd60e51b8152600401610332906112d9565b60405180910390fd5b6002838154811061035c57634e487b7160e01b600052603260045260246000fd5b90600052602060002090600602016003015491505b50919050565b600081806002805490501161039e5760405162461bcd60e51b8152600401610332906112d9565b600283815481106103bf57634e487b7160e01b600052603260045260246000fd5b906000526020600020906006020160050154915050919050565b60608180600280549050116104005760405162461bcd60e51b8152600401610332906112d9565b6002838154811061042157634e487b7160e01b600052603260045260246000fd5b906000526020600020906006020160050154600014156104915760405162461bcd60e51b815260206004820152602560248201527f546865207265717565737420686173206e6f7420796574206265656e207265736044820152641bdb1d995960da1b6064820152608401610332565b600283815481106104b257634e487b7160e01b600052603260045260246000fd5b906000526020600020906006020160040180546104ce9061142f565b80601f01602080910402602001604051908101604052809291908181526020018280546104fa9061142f565b80156105475780601f1061051c57610100808354040283529160200191610547565b820191906000526020600020905b81548152906001019060200180831161052a57829003601f168201915b5050505050915050919050565b600080610564620190603a6113e0565b9050803410156105865760405162461bcd60e51b8152600401610332906112ff565b6002546040805160c0810182526000602082018190526060808301829052608083015260a082018190526001600160a01b0387168083523483850152835163784a000160e11b815293519293909261063792849263f09400029260048083019392829003018186803b1580156105fb57600080fd5b505afa15801561060f573d6000803e3d6000fd5b505050506040513d6000823e601f3d908101601f191682016040526102f1919081019061113b565b60208381019182523a606085019081526002805460018101825560009190915285517f405787fa12a823e0f2b7631cc41b3ba8828b3321ca811111fa75cd3aa3bb5ace600690920291820180546001600160a01b0319166001600160a01b0390921691909117815593517f405787fa12a823e0f2b7631cc41b3ba8828b3321ca811111fa75cd3aa3bb5acf82015560408601517f405787fa12a823e0f2b7631cc41b3ba8828b3321ca811111fa75cd3aa3bb5ad082015590517f405787fa12a823e0f2b7631cc41b3ba8828b3321ca811111fa75cd3aa3bb5ad18201556080850151805186949361074c937f405787fa12a823e0f2b7631cc41b3ba8828b3321ca811111fa75cd3aa3bb5ad201920190610f6f565b5060a0820151816005015550507fa314c21664a31a8265784dec1e55b878ec22bcc053aa467b5b855b2065dd2eb08360405161078a91815260200190565b60405180910390a15090949350505050565b80600281815481106107be57634e487b7160e01b600052603260045260246000fd5b906000526020600020906006020160040180546107da9061142f565b1590506108235760405162461bcd60e51b815260206004820152601760248201527614995cdd5b1d08185b1c9958591e481a5b98db1d591959604a1b6044820152606401610332565b6000346002848154811061084757634e487b7160e01b600052603260045260246000fd5b90600052602060002090600602016002015461086391906113c8565b90506002838154811061088657634e487b7160e01b600052603260045260246000fd5b9060005260206000209060060201600301543a11156109095760006108ae620190603a6113e0565b9050808210156108d05760405162461bcd60e51b8152600401610332906112ff565b3a600285815481106108f257634e487b7160e01b600052603260045260246000fd5b906000526020600020906006020160030181905550505b806002848154811061092b57634e487b7160e01b600052603260045260246000fd5b906000526020600020906006020160020181905550505050565b6002818154811061095557600080fd5b6000918252602090912060069091020180546001820154600283015460038401546004850180546001600160a01b039095169650929491939092906109999061142f565b80601f01602080910402602001604051908101604052809291908181526020018280546109c59061142f565b8015610a125780601f106109e757610100808354040283529160200191610a12565b820191906000526020600020905b8154815290600101906020018083116109f557829003601f168201915b5050505050908060050154905086565b3360009081526001602081905260409091205460ff16151514610a7f5760405162461bcd60e51b815260206004820152601560248201527414d95b99195c881b9bdd08185d5d1a1bdc9a5e9959605a1b6044820152606401610332565b60025484908110610aa25760405162461bcd60e51b8152600401610332906112d9565b8460028181548110610ac457634e487b7160e01b600052603260045260246000fd5b90600052602060002090600602016004018054610ae09061142f565b159050610b295760405162461bcd60e51b815260206004820152601760248201527614995cdd5b1d08185b1c9958591e481a5b98db1d591959604a1b6044820152606401610332565b84610b865760405162461bcd60e51b815260206004820152602760248201527f446174612072657175657374207472616e73616374696f6e2063616e6e6f74206044820152666265207a65726f60c81b6064820152608401610332565b82610bcc5760405162461bcd60e51b81526020600482015260166024820152750a4cae6ead8e840d0c2e640f4cae4de40d8cadccee8d60531b6044820152606401610332565b8460028781548110610bee57634e487b7160e01b600052603260045260246000fd5b906000526020600020906006020160050181905550838360028881548110610c2657634e487b7160e01b600052603260045260246000fd5b90600052602060002090600602016004019190610c44929190610ff3565b506040518681527fac626c1abd6affb58454ddb775cafc6be2d9f14970a0b33128c36dc163c35fe39060200160405180910390a1336001600160a01b03166108fc60028881548110610ca657634e487b7160e01b600052603260045260246000fd5b9060005260206000209060060201600201549081150290604051600060405180830381858888f19350505050158015610ce3573d6000803e3d6000fd5b50505050505050565b6000610cfb62019060836113e0565b92915050565b600080546001600160a01b0383811691161415610d2057506001919050565b506000919050565b6060818060028054905011610d4f5760405162461bcd60e51b8152600401610332906112d9565b82610dc060028281548110610d7457634e487b7160e01b600052603260045260246000fd5b600091825260208220600690910201546040805163784a000160e11b815290516001600160a01b039092169263f094000292600480840193829003018186803b1580156105fb57600080fd5b60028281548110610de157634e487b7160e01b600052603260045260246000fd5b90600052602060002090600602016001015414610e665760405162461bcd60e51b815260206004820152603860248201527f54686520647220686173206265656e206d616e6970756c6174656420616e642060448201527f7468652062797465636f646520686173206368616e67656400000000000000006064820152608401610332565b600060028581548110610e8957634e487b7160e01b600052603260045260246000fd5b600091825260208220600690910201546040805163784a000160e11b815290516001600160a01b039092169350839263f094000292600480840193829003018186803b158015610ed857600080fd5b505afa158015610eec573d6000803e3d6000fd5b505050506040513d6000823e601f3d908101601f19168201604052610f14919081019061113b565b95945050505050565b6000600282604051610f2f9190611264565b602060405180830381855afa158015610f4c573d6000803e3d6000fd5b5050506040513d601f19601f82011682018060405250810190610cfb91906110aa565b828054610f7b9061142f565b90600052602060002090601f016020900481019282610f9d5760008555610fe3565b82601f10610fb657805160ff1916838001178555610fe3565b82800160010185558215610fe3579182015b82811115610fe3578251825591602001919060010190610fc8565b50610fef929150611067565b5090565b828054610fff9061142f565b90600052602060002090601f0160209004810192826110215760008555610fe3565b82601f1061103a5782800160ff19823516178555610fe3565b82800160010185558215610fe3579182015b82811115610fe357823582559160200191906001019061104c565b5b80821115610fef5760008155600101611068565b60006020828403121561108d578081fd5b81356001600160a01b03811681146110a3578182fd5b9392505050565b6000602082840312156110bb578081fd5b5051919050565b6000602082840312156110d3578081fd5b813567ffffffffffffffff8111156110e9578182fd5b8201601f810184136110f9578182fd5b803561110c611107826113a0565b61136f565b818152856020838501011115611120578384fd5b81602084016020830137908101602001929092525092915050565b60006020828403121561114c578081fd5b815167ffffffffffffffff811115611162578182fd5b8201601f81018413611172578182fd5b8051611180611107826113a0565b818152856020838501011115611194578384fd5b610f148260208301602086016113ff565b6000602082840312156111b6578081fd5b5035919050565b600080600080606085870312156111d2578283fd5b8435935060208501359250604085013567ffffffffffffffff808211156111f7578384fd5b818701915087601f83011261120a578384fd5b813581811115611218578485fd5b886020828501011115611229578485fd5b95989497505060200194505050565b600081518084526112508160208601602086016113ff565b601f01601f19169290920160200192915050565b600082516112768184602087016113ff565b9190910192915050565b60018060a01b038716815285602082015284604082015283606082015260c0608082015260006112b360c0830185611238565b90508260a0830152979650505050505050565b6020815260006110a36020830184611238565b6020808252600c908201526b1259081b9bdd08199bdd5b9960a21b604082015260600190565b6020808252604a908201527f526573756c74207265776172642073686f756c6420636f76657220676173206560408201527f7870656e7365732e20436865636b2074686520657374696d617465476173436f60608201526939ba1036b2ba3437b21760b11b608082015260a00190565b604051601f8201601f1916810167ffffffffffffffff811182821017156113985761139861147a565b604052919050565b600067ffffffffffffffff8211156113ba576113ba61147a565b50601f01601f191660200190565b600082198211156113db576113db611464565b500190565b60008160001904831182151516156113fa576113fa611464565b500290565b60005b8381101561141a578181015183820152602001611402565b83811115611429576000848401525b50505050565b600181811c9082168061144357607f821691505b6020821081141561037157634e487b7160e01b600052602260045260246000fd5b634e487b7160e01b600052601160045260246000fd5b634e487b7160e01b600052604160045260246000fdfea2646970667358221220e82fd8f581cd924655083ad3a1f5cb0c01448934bf432d82eaf1f3aed77d27cb64736f6c63430008040033",
  "immutableReferences": {},
  "source": "// SPDX-License-Identifier: MIT\n\npragma solidity >=0.7.0 <0.9.0;\n\n\nimport \"./WitnetRequestBoardInterface.sol\";\nimport \"./Request.sol\";\n\n/**\n * @title Witnet Requests Board mocked\n * @notice Contract to bridge requests to Witnet for testing purposes.\n * @dev This contract enables posting requests that Witnet bridges will insert into the Witnet network.\n * The result of the requests will be posted back to this contract by the bridge nodes too.\n * @author Witnet Foundation\n */\ncontract WitnetRequestBoard is WitnetRequestBoardInterface {\n    // TODO: update max report result gas value\n    uint256 public constant ESTIMATED_REPORT_RESULT_GAS = 102496;\n\n    struct DataRequest {\n        address requestAddress;\n        uint256 drOutputHash;\n        uint256 reward;\n        uint256 gasPrice;\n        bytes result;\n        uint256 drTxHash;\n    }\n\n    // Owner of the Witnet Request Board\n    address public owner;\n\n    // Map of addresses to a bool, true if they are committee members\n    mapping(address => bool) public isInCommittee;\n\n    // Witnet Requests within the board\n    DataRequest[] public requests;\n\n    // Only the committee defined when deploying the contract should be able to report results\n    modifier isAuthorized() {\n        require(isInCommittee[msg.sender] == true, \"Sender not authorized\");\n        _;\n    }\n\n    // Ensures the result has not been reported yet\n    modifier resultNotIncluded(uint256 _id) {\n        require(requests[_id].result.length == 0, \"Result already included\");\n        _;\n    }\n\n    // Ensures the request has not been manipulated\n    modifier validDrOutputHash(uint256 _id) {\n        require(\n            requests[_id].drOutputHash ==\n                computeDrOutputHash(Request(requests[_id].requestAddress).bytecode()),\n            \"The dr has been manipulated and the bytecode has changed\"\n        );\n        _;\n    }\n\n    // Ensures the request id exists\n    modifier validId(uint256 _id) {\n        require(requests.length > _id, \"Id not found\");\n        _;\n    }\n\n    /// @notice Initilizes a centralized Witnet Request Board with an authorized committee.\n    /// @param _committee list of authorized addresses.\n    constructor(address[] memory _committee) {\n        owner = msg.sender;\n        for (uint256 i = 0; i < _committee.length; i++) {\n            isInCommittee[_committee[i]] = true;\n        }\n        // Insert an empty request so as to initialize the requests array with length > 0\n        DataRequest memory request;\n        requests.push(request);\n    }\n\n    /// @dev Posts a data request into the WRB in expectation that it will be relayed and resolved in Witnet with a total reward that equals to msg.value.\n    /// @param _requestAddress The request contract address which includes the request bytecode.\n    /// @return The unique identifier of the data request.\n    function postDataRequest(address _requestAddress)\n        external\n        payable\n        override\n        returns (uint256)\n    {\n        // Checks the tally reward is covering gas cost\n        uint256 minResultReward = tx.gasprice * ESTIMATED_REPORT_RESULT_GAS;\n        require(\n            msg.value >= minResultReward,\n            \"Result reward should cover gas expenses. Check the estimateGasCost method.\"\n        );\n\n        uint256 _id = requests.length;\n\n        DataRequest memory request;\n        request.requestAddress = _requestAddress;\n        request.reward = msg.value;\n        Request requestContract = Request(request.requestAddress);\n        request.drOutputHash = computeDrOutputHash(requestContract.bytecode());\n        request.gasPrice = tx.gasprice;\n        // Push the new request into the contract state\n        requests.push(request);\n\n        // Let observers know that a new request has been posted\n        emit PostedRequest(_id);\n\n        return _id;\n    }\n\n    /// @dev Increments the reward of a data request by adding the transaction value to it.\n    /// @param _id The unique identifier of the data request.\n    function upgradeDataRequest(uint256 _id)\n        external\n        payable\n        override\n        resultNotIncluded(_id)\n    {\n        uint256 newReward = requests[_id].reward + msg.value;\n\n        // If gas price is increased, then check if new rewards cover gas costs\n        if (tx.gasprice > requests[_id].gasPrice) {\n            // Checks the reward is covering gas cost\n            uint256 minResultReward = tx.gasprice * ESTIMATED_REPORT_RESULT_GAS;\n            require(\n                newReward >= minResultReward,\n                \"Result reward should cover gas expenses. Check the estimateGasCost method.\"\n            );\n            requests[_id].gasPrice = tx.gasprice;\n        }\n\n        // Update data request reward\n        requests[_id].reward = newReward;\n    }\n\n    /// @dev Reports the result of a data request in Witnet.\n    /// @param _id The unique identifier of the data request.\n    /// @param _drTxHash The unique hash of the request.\n    /// @param _result The result itself as bytes.\n    function reportResult(\n        uint256 _id,\n        uint256 _drTxHash,\n        bytes calldata _result\n    ) external isAuthorized() validId(_id) resultNotIncluded(_id) {\n        require(_drTxHash != 0, \"Data request transaction cannot be zero\");\n        // Ensures the result byes do not have zero length\n        // This would not be a valid encoding with CBOR and could trigger a reentrancy attack\n        require(_result.length != 0, \"Result has zero length\");\n\n        requests[_id].drTxHash = _drTxHash;\n        requests[_id].result = _result;\n\n        emit PostedResult(_id);\n        payable(msg.sender).transfer(requests[_id].reward);\n    }\n\n    /// @dev Retrieves the bytes of the serialization of one data request from the WRB.\n    /// @param _id The unique identifier of the data request.\n    /// @return The result of the data request as bytes.\n    function readDataRequest(uint256 _id)\n        external\n        view\n        validId(_id)\n        validDrOutputHash(_id)\n        returns (bytes memory)\n    {\n        Request requestContract = Request(requests[_id].requestAddress);\n        return requestContract.bytecode();\n    }\n\n    /// @dev Retrieves the result (if already available) of one data request from the WRB.\n    /// @param _id The unique identifier of the data request.\n    /// @return The result of the DR.\n    function readResult(uint256 _id)\n        external\n        view\n        override\n        validId(_id)\n        returns (bytes memory)\n    {\n        require(requests[_id].drTxHash != 0, \"The request has not yet been resolved\");\n        return requests[_id].result;\n    }\n\n    /// @dev Retrieves the gas price set for a specific DR ID.\n    /// @param _id The unique identifier of the data request.\n    /// @return The gas price set by the request creator.\n    function readGasPrice(uint256 _id)\n        external\n        view\n        validId(_id)\n        returns (uint256)\n    {\n        return requests[_id].gasPrice;\n    }\n\n    /// @dev Retrieves hash of the data request transaction in Witnet.\n    /// @param _id The unique identifier of the data request.\n    /// @return The hash of the DataRequest transaction in Witnet.\n    function readDrTxHash(uint256 _id)\n        external\n        view\n        override\n        validId(_id)\n        returns (uint256)\n    {\n        return requests[_id].drTxHash;\n    }\n\n    /// @dev Returns the number of data requests in the WRB.\n    /// @return the number of data requests in the WRB.\n    function requestsCount() external view returns (uint256) {\n        return requests.length;\n    }\n\n    /// @dev Verifies if the contract is upgradable.\n    /// @return true if the contract upgradable.\n    function isUpgradable(address _address)\n        external\n        view\n        override\n        returns (bool)\n    {\n        if (_address == owner) {\n            return true;\n        }\n        return false;\n    }\n\n    /// @dev Estimate the amount of reward we need to insert for a given gas price.\n    /// @param _gasPrice The gas price for which we need to calculate the reward.\n    /// @return The reward to be included for the given gas price.\n    function estimateGasCost(uint256 _gasPrice)\n        external\n        pure\n        override\n        returns (uint256)\n    {\n        return _gasPrice * ESTIMATED_REPORT_RESULT_GAS;\n    }\n    \n    /// @dev Computes the output hash of a request from its bytecode.\n    /// @param _bytecode The bytecode of the request.\n    /// @return The output hash of the request.\n    function computeDrOutputHash(bytes memory _bytecode)\n        public\n        pure\n        returns (uint256)\n    {\n        return uint256(sha256(_bytecode));\n    }\n}\n",
  "sourcePath": "/home/ay/harmony/lottery/node_modules/witnet-ethereum-bridge/contracts/WitnetRequestBoard.sol",
  "compiler": {
    "name": "solc",
    "version": "0.8.4+commit.c7e474f2.Emscripten.clang"
  },
  "schemaVersion": "3.4.2",
  "updatedAt": "2021-07-25T13:12:32.392Z",
  "devdoc": {
    "author": "Witnet Foundation",
    "details": "This contract enables posting requests that Witnet bridges will insert into the Witnet network. The result of the requests will be posted back to this contract by the bridge nodes too.",
    "kind": "dev",
    "methods": {
      "computeDrOutputHash(bytes)": {
        "details": "Computes the output hash of a request from its bytecode.",
        "params": {
          "_bytecode": "The bytecode of the request."
        },
        "returns": {
          "_0": "The output hash of the request."
        }
      },
      "constructor": {
        "params": {
          "_committee": "list of authorized addresses."
        }
      },
      "estimateGasCost(uint256)": {
        "details": "Estimate the amount of reward we need to insert for a given gas price.",
        "params": {
          "_gasPrice": "The gas price for which we need to calculate the reward."
        },
        "returns": {
          "_0": "The reward to be included for the given gas price."
        }
      },
      "isUpgradable(address)": {
        "details": "Verifies if the contract is upgradable.",
        "returns": {
          "_0": "true if the contract upgradable."
        }
      },
      "postDataRequest(address)": {
        "details": "Posts a data request into the WRB in expectation that it will be relayed and resolved in Witnet with a total reward that equals to msg.value.",
        "params": {
          "_requestAddress": "The request contract address which includes the request bytecode."
        },
        "returns": {
          "_0": "The unique identifier of the data request."
        }
      },
      "readDataRequest(uint256)": {
        "details": "Retrieves the bytes of the serialization of one data request from the WRB.",
        "params": {
          "_id": "The unique identifier of the data request."
        },
        "returns": {
          "_0": "The result of the data request as bytes."
        }
      },
      "readDrTxHash(uint256)": {
        "details": "Retrieves hash of the data request transaction in Witnet.",
        "params": {
          "_id": "The unique identifier of the data request."
        },
        "returns": {
          "_0": "The hash of the DataRequest transaction in Witnet."
        }
      },
      "readGasPrice(uint256)": {
        "details": "Retrieves the gas price set for a specific DR ID.",
        "params": {
          "_id": "The unique identifier of the data request."
        },
        "returns": {
          "_0": "The gas price set by the request creator."
        }
      },
      "readResult(uint256)": {
        "details": "Retrieves the result (if already available) of one data request from the WRB.",
        "params": {
          "_id": "The unique identifier of the data request."
        },
        "returns": {
          "_0": "The result of the DR."
        }
      },
      "reportResult(uint256,uint256,bytes)": {
        "details": "Reports the result of a data request in Witnet.",
        "params": {
          "_drTxHash": "The unique hash of the request.",
          "_id": "The unique identifier of the data request.",
          "_result": "The result itself as bytes."
        }
      },
      "requestsCount()": {
        "details": "Returns the number of data requests in the WRB.",
        "returns": {
          "_0": "the number of data requests in the WRB."
        }
      },
      "upgradeDataRequest(uint256)": {
        "details": "Increments the reward of a data request by adding the transaction value to it.",
        "params": {
          "_id": "The unique identifier of the data request."
        }
      }
    },
    "title": "Witnet Requests Board mocked",
    "version": 1
  },
  "userdoc": {
    "kind": "user",
    "methods": {
      "constructor": {
        "notice": "Initilizes a centralized Witnet Request Board with an authorized committee."
      }
    },
    "notice": "Contract to bridge requests to Witnet for testing purposes.",
    "version": 1
  }
}