{
  "contractName": "Witnet",
  "abi": [
    {
      "inputs": [
        {
          "internalType": "bytes",
          "name": "_cborBytes",
          "type": "bytes"
        }
      ],
      "name": "resultFromCborBytes",
      "outputs": [
        {
          "components": [
            {
              "internalType": "bool",
              "name": "success",
              "type": "bool"
            },
            {
              "components": [
                {
                  "components": [
                    {
                      "internalType": "bytes",
                      "name": "data",
                      "type": "bytes"
                    },
                    {
                      "internalType": "uint32",
                      "name": "cursor",
                      "type": "uint32"
                    }
                  ],
                  "internalType": "struct BufferLib.Buffer",
                  "name": "buffer",
                  "type": "tuple"
                },
                {
                  "internalType": "uint8",
                  "name": "initialByte",
                  "type": "uint8"
                },
                {
                  "internalType": "uint8",
                  "name": "majorType",
                  "type": "uint8"
                },
                {
                  "internalType": "uint8",
                  "name": "additionalInformation",
                  "type": "uint8"
                },
                {
                  "internalType": "uint64",
                  "name": "len",
                  "type": "uint64"
                },
                {
                  "internalType": "uint64",
                  "name": "tag",
                  "type": "uint64"
                }
              ],
              "internalType": "struct CBOR.Value",
              "name": "cborValue",
              "type": "tuple"
            }
          ],
          "internalType": "struct Witnet.Result",
          "name": "",
          "type": "tuple"
        }
      ],
      "stateMutability": "pure",
      "type": "function"
    },
    {
      "inputs": [
        {
          "components": [
            {
              "components": [
                {
                  "internalType": "bytes",
                  "name": "data",
                  "type": "bytes"
                },
                {
                  "internalType": "uint32",
                  "name": "cursor",
                  "type": "uint32"
                }
              ],
              "internalType": "struct BufferLib.Buffer",
              "name": "buffer",
              "type": "tuple"
            },
            {
              "internalType": "uint8",
              "name": "initialByte",
              "type": "uint8"
            },
            {
              "internalType": "uint8",
              "name": "majorType",
              "type": "uint8"
            },
            {
              "internalType": "uint8",
              "name": "additionalInformation",
              "type": "uint8"
            },
            {
              "internalType": "uint64",
              "name": "len",
              "type": "uint64"
            },
            {
              "internalType": "uint64",
              "name": "tag",
              "type": "uint64"
            }
          ],
          "internalType": "struct CBOR.Value",
          "name": "_cborValue",
          "type": "tuple"
        }
      ],
      "name": "resultFromCborValue",
      "outputs": [
        {
          "components": [
            {
              "internalType": "bool",
              "name": "success",
              "type": "bool"
            },
            {
              "components": [
                {
                  "components": [
                    {
                      "internalType": "bytes",
                      "name": "data",
                      "type": "bytes"
                    },
                    {
                      "internalType": "uint32",
                      "name": "cursor",
                      "type": "uint32"
                    }
                  ],
                  "internalType": "struct BufferLib.Buffer",
                  "name": "buffer",
                  "type": "tuple"
                },
                {
                  "internalType": "uint8",
                  "name": "initialByte",
                  "type": "uint8"
                },
                {
                  "internalType": "uint8",
                  "name": "majorType",
                  "type": "uint8"
                },
                {
                  "internalType": "uint8",
                  "name": "additionalInformation",
                  "type": "uint8"
                },
                {
                  "internalType": "uint64",
                  "name": "len",
                  "type": "uint64"
                },
                {
                  "internalType": "uint64",
                  "name": "tag",
                  "type": "uint64"
                }
              ],
              "internalType": "struct CBOR.Value",
              "name": "cborValue",
              "type": "tuple"
            }
          ],
          "internalType": "struct Witnet.Result",
          "name": "",
          "type": "tuple"
        }
      ],
      "stateMutability": "pure",
      "type": "function"
    },
    {
      "inputs": [
        {
          "components": [
            {
              "internalType": "bool",
              "name": "success",
              "type": "bool"
            },
            {
              "components": [
                {
                  "components": [
                    {
                      "internalType": "bytes",
                      "name": "data",
                      "type": "bytes"
                    },
                    {
                      "internalType": "uint32",
                      "name": "cursor",
                      "type": "uint32"
                    }
                  ],
                  "internalType": "struct BufferLib.Buffer",
                  "name": "buffer",
                  "type": "tuple"
                },
                {
                  "internalType": "uint8",
                  "name": "initialByte",
                  "type": "uint8"
                },
                {
                  "internalType": "uint8",
                  "name": "majorType",
                  "type": "uint8"
                },
                {
                  "internalType": "uint8",
                  "name": "additionalInformation",
                  "type": "uint8"
                },
                {
                  "internalType": "uint64",
                  "name": "len",
                  "type": "uint64"
                },
                {
                  "internalType": "uint64",
                  "name": "tag",
                  "type": "uint64"
                }
              ],
              "internalType": "struct CBOR.Value",
              "name": "cborValue",
              "type": "tuple"
            }
          ],
          "internalType": "struct Witnet.Result",
          "name": "_result",
          "type": "tuple"
        }
      ],
      "name": "isOk",
      "outputs": [
        {
          "internalType": "bool",
          "name": "",
          "type": "bool"
        }
      ],
      "stateMutability": "pure",
      "type": "function"
    },
    {
      "inputs": [
        {
          "components": [
            {
              "internalType": "bool",
              "name": "success",
              "type": "bool"
            },
            {
              "components": [
                {
                  "components": [
                    {
                      "internalType": "bytes",
                      "name": "data",
                      "type": "bytes"
                    },
                    {
                      "internalType": "uint32",
                      "name": "cursor",
                      "type": "uint32"
                    }
                  ],
                  "internalType": "struct BufferLib.Buffer",
                  "name": "buffer",
                  "type": "tuple"
                },
                {
                  "internalType": "uint8",
                  "name": "initialByte",
                  "type": "uint8"
                },
                {
                  "internalType": "uint8",
                  "name": "majorType",
                  "type": "uint8"
                },
                {
                  "internalType": "uint8",
                  "name": "additionalInformation",
                  "type": "uint8"
                },
                {
                  "internalType": "uint64",
                  "name": "len",
                  "type": "uint64"
                },
                {
                  "internalType": "uint64",
                  "name": "tag",
                  "type": "uint64"
                }
              ],
              "internalType": "struct CBOR.Value",
              "name": "cborValue",
              "type": "tuple"
            }
          ],
          "internalType": "struct Witnet.Result",
          "name": "_result",
          "type": "tuple"
        }
      ],
      "name": "isError",
      "outputs": [
        {
          "internalType": "bool",
          "name": "",
          "type": "bool"
        }
      ],
      "stateMutability": "pure",
      "type": "function"
    },
    {
      "inputs": [
        {
          "components": [
            {
              "internalType": "bool",
              "name": "success",
              "type": "bool"
            },
            {
              "components": [
                {
                  "components": [
                    {
                      "internalType": "bytes",
                      "name": "data",
                      "type": "bytes"
                    },
                    {
                      "internalType": "uint32",
                      "name": "cursor",
                      "type": "uint32"
                    }
                  ],
                  "internalType": "struct BufferLib.Buffer",
                  "name": "buffer",
                  "type": "tuple"
                },
                {
                  "internalType": "uint8",
                  "name": "initialByte",
                  "type": "uint8"
                },
                {
                  "internalType": "uint8",
                  "name": "majorType",
                  "type": "uint8"
                },
                {
                  "internalType": "uint8",
                  "name": "additionalInformation",
                  "type": "uint8"
                },
                {
                  "internalType": "uint64",
                  "name": "len",
                  "type": "uint64"
                },
                {
                  "internalType": "uint64",
                  "name": "tag",
                  "type": "uint64"
                }
              ],
              "internalType": "struct CBOR.Value",
              "name": "cborValue",
              "type": "tuple"
            }
          ],
          "internalType": "struct Witnet.Result",
          "name": "_result",
          "type": "tuple"
        }
      ],
      "name": "asBytes",
      "outputs": [
        {
          "internalType": "bytes",
          "name": "",
          "type": "bytes"
        }
      ],
      "stateMutability": "pure",
      "type": "function"
    },
    {
      "inputs": [
        {
          "components": [
            {
              "internalType": "bool",
              "name": "success",
              "type": "bool"
            },
            {
              "components": [
                {
                  "components": [
                    {
                      "internalType": "bytes",
                      "name": "data",
                      "type": "bytes"
                    },
                    {
                      "internalType": "uint32",
                      "name": "cursor",
                      "type": "uint32"
                    }
                  ],
                  "internalType": "struct BufferLib.Buffer",
                  "name": "buffer",
                  "type": "tuple"
                },
                {
                  "internalType": "uint8",
                  "name": "initialByte",
                  "type": "uint8"
                },
                {
                  "internalType": "uint8",
                  "name": "majorType",
                  "type": "uint8"
                },
                {
                  "internalType": "uint8",
                  "name": "additionalInformation",
                  "type": "uint8"
                },
                {
                  "internalType": "uint64",
                  "name": "len",
                  "type": "uint64"
                },
                {
                  "internalType": "uint64",
                  "name": "tag",
                  "type": "uint64"
                }
              ],
              "internalType": "struct CBOR.Value",
              "name": "cborValue",
              "type": "tuple"
            }
          ],
          "internalType": "struct Witnet.Result",
          "name": "_result",
          "type": "tuple"
        }
      ],
      "name": "asErrorCode",
      "outputs": [
        {
          "internalType": "enum Witnet.ErrorCodes",
          "name": "",
          "type": "Witnet.ErrorCodes"
        }
      ],
      "stateMutability": "pure",
      "type": "function"
    },
    {
      "inputs": [
        {
          "components": [
            {
              "internalType": "bool",
              "name": "success",
              "type": "bool"
            },
            {
              "components": [
                {
                  "components": [
                    {
                      "internalType": "bytes",
                      "name": "data",
                      "type": "bytes"
                    },
                    {
                      "internalType": "uint32",
                      "name": "cursor",
                      "type": "uint32"
                    }
                  ],
                  "internalType": "struct BufferLib.Buffer",
                  "name": "buffer",
                  "type": "tuple"
                },
                {
                  "internalType": "uint8",
                  "name": "initialByte",
                  "type": "uint8"
                },
                {
                  "internalType": "uint8",
                  "name": "majorType",
                  "type": "uint8"
                },
                {
                  "internalType": "uint8",
                  "name": "additionalInformation",
                  "type": "uint8"
                },
                {
                  "internalType": "uint64",
                  "name": "len",
                  "type": "uint64"
                },
                {
                  "internalType": "uint64",
                  "name": "tag",
                  "type": "uint64"
                }
              ],
              "internalType": "struct CBOR.Value",
              "name": "cborValue",
              "type": "tuple"
            }
          ],
          "internalType": "struct Witnet.Result",
          "name": "_result",
          "type": "tuple"
        }
      ],
      "name": "asErrorMessage",
      "outputs": [
        {
          "internalType": "enum Witnet.ErrorCodes",
          "name": "",
          "type": "Witnet.ErrorCodes"
        },
        {
          "internalType": "string",
          "name": "",
          "type": "string"
        }
      ],
      "stateMutability": "pure",
      "type": "function"
    },
    {
      "inputs": [
        {
          "components": [
            {
              "internalType": "bool",
              "name": "success",
              "type": "bool"
            },
            {
              "components": [
                {
                  "components": [
                    {
                      "internalType": "bytes",
                      "name": "data",
                      "type": "bytes"
                    },
                    {
                      "internalType": "uint32",
                      "name": "cursor",
                      "type": "uint32"
                    }
                  ],
                  "internalType": "struct BufferLib.Buffer",
                  "name": "buffer",
                  "type": "tuple"
                },
                {
                  "internalType": "uint8",
                  "name": "initialByte",
                  "type": "uint8"
                },
                {
                  "internalType": "uint8",
                  "name": "majorType",
                  "type": "uint8"
                },
                {
                  "internalType": "uint8",
                  "name": "additionalInformation",
                  "type": "uint8"
                },
                {
                  "internalType": "uint64",
                  "name": "len",
                  "type": "uint64"
                },
                {
                  "internalType": "uint64",
                  "name": "tag",
                  "type": "uint64"
                }
              ],
              "internalType": "struct CBOR.Value",
              "name": "cborValue",
              "type": "tuple"
            }
          ],
          "internalType": "struct Witnet.Result",
          "name": "_result",
          "type": "tuple"
        }
      ],
      "name": "asRawError",
      "outputs": [
        {
          "internalType": "uint64[]",
          "name": "",
          "type": "uint64[]"
        }
      ],
      "stateMutability": "pure",
      "type": "function"
    },
    {
      "inputs": [
        {
          "components": [
            {
              "internalType": "bool",
              "name": "success",
              "type": "bool"
            },
            {
              "components": [
                {
                  "components": [
                    {
                      "internalType": "bytes",
                      "name": "data",
                      "type": "bytes"
                    },
                    {
                      "internalType": "uint32",
                      "name": "cursor",
                      "type": "uint32"
                    }
                  ],
                  "internalType": "struct BufferLib.Buffer",
                  "name": "buffer",
                  "type": "tuple"
                },
                {
                  "internalType": "uint8",
                  "name": "initialByte",
                  "type": "uint8"
                },
                {
                  "internalType": "uint8",
                  "name": "majorType",
                  "type": "uint8"
                },
                {
                  "internalType": "uint8",
                  "name": "additionalInformation",
                  "type": "uint8"
                },
                {
                  "internalType": "uint64",
                  "name": "len",
                  "type": "uint64"
                },
                {
                  "internalType": "uint64",
                  "name": "tag",
                  "type": "uint64"
                }
              ],
              "internalType": "struct CBOR.Value",
              "name": "cborValue",
              "type": "tuple"
            }
          ],
          "internalType": "struct Witnet.Result",
          "name": "_result",
          "type": "tuple"
        }
      ],
      "name": "asBool",
      "outputs": [
        {
          "internalType": "bool",
          "name": "",
          "type": "bool"
        }
      ],
      "stateMutability": "pure",
      "type": "function"
    },
    {
      "inputs": [
        {
          "components": [
            {
              "internalType": "bool",
              "name": "success",
              "type": "bool"
            },
            {
              "components": [
                {
                  "components": [
                    {
                      "internalType": "bytes",
                      "name": "data",
                      "type": "bytes"
                    },
                    {
                      "internalType": "uint32",
                      "name": "cursor",
                      "type": "uint32"
                    }
                  ],
                  "internalType": "struct BufferLib.Buffer",
                  "name": "buffer",
                  "type": "tuple"
                },
                {
                  "internalType": "uint8",
                  "name": "initialByte",
                  "type": "uint8"
                },
                {
                  "internalType": "uint8",
                  "name": "majorType",
                  "type": "uint8"
                },
                {
                  "internalType": "uint8",
                  "name": "additionalInformation",
                  "type": "uint8"
                },
                {
                  "internalType": "uint64",
                  "name": "len",
                  "type": "uint64"
                },
                {
                  "internalType": "uint64",
                  "name": "tag",
                  "type": "uint64"
                }
              ],
              "internalType": "struct CBOR.Value",
              "name": "cborValue",
              "type": "tuple"
            }
          ],
          "internalType": "struct Witnet.Result",
          "name": "_result",
          "type": "tuple"
        }
      ],
      "name": "asFixed16",
      "outputs": [
        {
          "internalType": "int32",
          "name": "",
          "type": "int32"
        }
      ],
      "stateMutability": "pure",
      "type": "function"
    },
    {
      "inputs": [
        {
          "components": [
            {
              "internalType": "bool",
              "name": "success",
              "type": "bool"
            },
            {
              "components": [
                {
                  "components": [
                    {
                      "internalType": "bytes",
                      "name": "data",
                      "type": "bytes"
                    },
                    {
                      "internalType": "uint32",
                      "name": "cursor",
                      "type": "uint32"
                    }
                  ],
                  "internalType": "struct BufferLib.Buffer",
                  "name": "buffer",
                  "type": "tuple"
                },
                {
                  "internalType": "uint8",
                  "name": "initialByte",
                  "type": "uint8"
                },
                {
                  "internalType": "uint8",
                  "name": "majorType",
                  "type": "uint8"
                },
                {
                  "internalType": "uint8",
                  "name": "additionalInformation",
                  "type": "uint8"
                },
                {
                  "internalType": "uint64",
                  "name": "len",
                  "type": "uint64"
                },
                {
                  "internalType": "uint64",
                  "name": "tag",
                  "type": "uint64"
                }
              ],
              "internalType": "struct CBOR.Value",
              "name": "cborValue",
              "type": "tuple"
            }
          ],
          "internalType": "struct Witnet.Result",
          "name": "_result",
          "type": "tuple"
        }
      ],
      "name": "asFixed16Array",
      "outputs": [
        {
          "internalType": "int32[]",
          "name": "",
          "type": "int32[]"
        }
      ],
      "stateMutability": "pure",
      "type": "function"
    },
    {
      "inputs": [
        {
          "components": [
            {
              "internalType": "bool",
              "name": "success",
              "type": "bool"
            },
            {
              "components": [
                {
                  "components": [
                    {
                      "internalType": "bytes",
                      "name": "data",
                      "type": "bytes"
                    },
                    {
                      "internalType": "uint32",
                      "name": "cursor",
                      "type": "uint32"
                    }
                  ],
                  "internalType": "struct BufferLib.Buffer",
                  "name": "buffer",
                  "type": "tuple"
                },
                {
                  "internalType": "uint8",
                  "name": "initialByte",
                  "type": "uint8"
                },
                {
                  "internalType": "uint8",
                  "name": "majorType",
                  "type": "uint8"
                },
                {
                  "internalType": "uint8",
                  "name": "additionalInformation",
                  "type": "uint8"
                },
                {
                  "internalType": "uint64",
                  "name": "len",
                  "type": "uint64"
                },
                {
                  "internalType": "uint64",
                  "name": "tag",
                  "type": "uint64"
                }
              ],
              "internalType": "struct CBOR.Value",
              "name": "cborValue",
              "type": "tuple"
            }
          ],
          "internalType": "struct Witnet.Result",
          "name": "_result",
          "type": "tuple"
        }
      ],
      "name": "asInt128",
      "outputs": [
        {
          "internalType": "int128",
          "name": "",
          "type": "int128"
        }
      ],
      "stateMutability": "pure",
      "type": "function"
    },
    {
      "inputs": [
        {
          "components": [
            {
              "internalType": "bool",
              "name": "success",
              "type": "bool"
            },
            {
              "components": [
                {
                  "components": [
                    {
                      "internalType": "bytes",
                      "name": "data",
                      "type": "bytes"
                    },
                    {
                      "internalType": "uint32",
                      "name": "cursor",
                      "type": "uint32"
                    }
                  ],
                  "internalType": "struct BufferLib.Buffer",
                  "name": "buffer",
                  "type": "tuple"
                },
                {
                  "internalType": "uint8",
                  "name": "initialByte",
                  "type": "uint8"
                },
                {
                  "internalType": "uint8",
                  "name": "majorType",
                  "type": "uint8"
                },
                {
                  "internalType": "uint8",
                  "name": "additionalInformation",
                  "type": "uint8"
                },
                {
                  "internalType": "uint64",
                  "name": "len",
                  "type": "uint64"
                },
                {
                  "internalType": "uint64",
                  "name": "tag",
                  "type": "uint64"
                }
              ],
              "internalType": "struct CBOR.Value",
              "name": "cborValue",
              "type": "tuple"
            }
          ],
          "internalType": "struct Witnet.Result",
          "name": "_result",
          "type": "tuple"
        }
      ],
      "name": "asInt128Array",
      "outputs": [
        {
          "internalType": "int128[]",
          "name": "",
          "type": "int128[]"
        }
      ],
      "stateMutability": "pure",
      "type": "function"
    },
    {
      "inputs": [
        {
          "components": [
            {
              "internalType": "bool",
              "name": "success",
              "type": "bool"
            },
            {
              "components": [
                {
                  "components": [
                    {
                      "internalType": "bytes",
                      "name": "data",
                      "type": "bytes"
                    },
                    {
                      "internalType": "uint32",
                      "name": "cursor",
                      "type": "uint32"
                    }
                  ],
                  "internalType": "struct BufferLib.Buffer",
                  "name": "buffer",
                  "type": "tuple"
                },
                {
                  "internalType": "uint8",
                  "name": "initialByte",
                  "type": "uint8"
                },
                {
                  "internalType": "uint8",
                  "name": "majorType",
                  "type": "uint8"
                },
                {
                  "internalType": "uint8",
                  "name": "additionalInformation",
                  "type": "uint8"
                },
                {
                  "internalType": "uint64",
                  "name": "len",
                  "type": "uint64"
                },
                {
                  "internalType": "uint64",
                  "name": "tag",
                  "type": "uint64"
                }
              ],
              "internalType": "struct CBOR.Value",
              "name": "cborValue",
              "type": "tuple"
            }
          ],
          "internalType": "struct Witnet.Result",
          "name": "_result",
          "type": "tuple"
        }
      ],
      "name": "asString",
      "outputs": [
        {
          "internalType": "string",
          "name": "",
          "type": "string"
        }
      ],
      "stateMutability": "pure",
      "type": "function"
    },
    {
      "inputs": [
        {
          "components": [
            {
              "internalType": "bool",
              "name": "success",
              "type": "bool"
            },
            {
              "components": [
                {
                  "components": [
                    {
                      "internalType": "bytes",
                      "name": "data",
                      "type": "bytes"
                    },
                    {
                      "internalType": "uint32",
                      "name": "cursor",
                      "type": "uint32"
                    }
                  ],
                  "internalType": "struct BufferLib.Buffer",
                  "name": "buffer",
                  "type": "tuple"
                },
                {
                  "internalType": "uint8",
                  "name": "initialByte",
                  "type": "uint8"
                },
                {
                  "internalType": "uint8",
                  "name": "majorType",
                  "type": "uint8"
                },
                {
                  "internalType": "uint8",
                  "name": "additionalInformation",
                  "type": "uint8"
                },
                {
                  "internalType": "uint64",
                  "name": "len",
                  "type": "uint64"
                },
                {
                  "internalType": "uint64",
                  "name": "tag",
                  "type": "uint64"
                }
              ],
              "internalType": "struct CBOR.Value",
              "name": "cborValue",
              "type": "tuple"
            }
          ],
          "internalType": "struct Witnet.Result",
          "name": "_result",
          "type": "tuple"
        }
      ],
      "name": "asStringArray",
      "outputs": [
        {
          "internalType": "string[]",
          "name": "",
          "type": "string[]"
        }
      ],
      "stateMutability": "pure",
      "type": "function"
    },
    {
      "inputs": [
        {
          "components": [
            {
              "internalType": "bool",
              "name": "success",
              "type": "bool"
            },
            {
              "components": [
                {
                  "components": [
                    {
                      "internalType": "bytes",
                      "name": "data",
                      "type": "bytes"
                    },
                    {
                      "internalType": "uint32",
                      "name": "cursor",
                      "type": "uint32"
                    }
                  ],
                  "internalType": "struct BufferLib.Buffer",
                  "name": "buffer",
                  "type": "tuple"
                },
                {
                  "internalType": "uint8",
                  "name": "initialByte",
                  "type": "uint8"
                },
                {
                  "internalType": "uint8",
                  "name": "majorType",
                  "type": "uint8"
                },
                {
                  "internalType": "uint8",
                  "name": "additionalInformation",
                  "type": "uint8"
                },
                {
                  "internalType": "uint64",
                  "name": "len",
                  "type": "uint64"
                },
                {
                  "internalType": "uint64",
                  "name": "tag",
                  "type": "uint64"
                }
              ],
              "internalType": "struct CBOR.Value",
              "name": "cborValue",
              "type": "tuple"
            }
          ],
          "internalType": "struct Witnet.Result",
          "name": "_result",
          "type": "tuple"
        }
      ],
      "name": "asUint64",
      "outputs": [
        {
          "internalType": "uint64",
          "name": "",
          "type": "uint64"
        }
      ],
      "stateMutability": "pure",
      "type": "function"
    },
    {
      "inputs": [
        {
          "components": [
            {
              "internalType": "bool",
              "name": "success",
              "type": "bool"
            },
            {
              "components": [
                {
                  "components": [
                    {
                      "internalType": "bytes",
                      "name": "data",
                      "type": "bytes"
                    },
                    {
                      "internalType": "uint32",
                      "name": "cursor",
                      "type": "uint32"
                    }
                  ],
                  "internalType": "struct BufferLib.Buffer",
                  "name": "buffer",
                  "type": "tuple"
                },
                {
                  "internalType": "uint8",
                  "name": "initialByte",
                  "type": "uint8"
                },
                {
                  "internalType": "uint8",
                  "name": "majorType",
                  "type": "uint8"
                },
                {
                  "internalType": "uint8",
                  "name": "additionalInformation",
                  "type": "uint8"
                },
                {
                  "internalType": "uint64",
                  "name": "len",
                  "type": "uint64"
                },
                {
                  "internalType": "uint64",
                  "name": "tag",
                  "type": "uint64"
                }
              ],
              "internalType": "struct CBOR.Value",
              "name": "cborValue",
              "type": "tuple"
            }
          ],
          "internalType": "struct Witnet.Result",
          "name": "_result",
          "type": "tuple"
        }
      ],
      "name": "asUint64Array",
      "outputs": [
        {
          "internalType": "uint64[]",
          "name": "",
          "type": "uint64[]"
        }
      ],
      "stateMutability": "pure",
      "type": "function"
    },
    {
      "inputs": [
        {
          "internalType": "uint64",
          "name": "_stageIndex",
          "type": "uint64"
        }
      ],
      "name": "stageName",
      "outputs": [
        {
          "internalType": "string",
          "name": "",
          "type": "string"
        }
      ],
      "stateMutability": "pure",
      "type": "function"
    }
  ],
  "bytecode": "0x6130a061003a600b82828239805160001a60731461002d57634e487b7160e01b600052600060045260246000fd5b30600052607381538281f3fe73000000000000000000000000000000000000000030146080604052600436106101205760003560e01c8063a1d45d56116100ac578063d45d097d1161007b578063d45d097d1461029b578063d8868db6146102bb578063e99e47f3146102db578063f417daf5146102ee578063fc853c371461030157610120565b8063a1d45d5614610242578063abf82f4c14610255578063c71db52114610268578063cb5371c01461028857610120565b80636646c119116100f35780636646c119146101a15780638233f9b3146101c15780638cc5eb54146101e15780639baae07f14610202578063a1b908911461022257610120565b80630879730d1461012557806308efc0971461014e578063147e5c8f1461016e5780632d26b9e214610181575b600080fd5b610138610133366004611eb7565b610321565b6040516101459190612976565b60405180910390f35b61016161015c366004611eb7565b6103e3565b60405161014591906128db565b61013861017c366004611eb7565b610493565b61019461018f366004611eb7565b6104b4565b6040516101459190612916565b6101b46101af366004611eb7565b610564565b60405161014591906129b7565b6101d46101cf366004611eb7565b610568565b6040516101459190612dfc565b6101f46101ef366004611eb7565b610614565b604051610145929190612a12565b610215610210366004611f48565b610f5c565b6040516101459190612dc2565b610235610230366004611eb7565b610f90565b60405161014591906129f1565b6101b4610250366004611eb7565b611040565b6101b4610263366004611eb7565b611045565b61027b610276366004611eb7565b6110f1565b6040516101459190612a32565b61023561029636600461204d565b61119d565b6102ae6102a9366004611eb7565b611265565b6040516101459190612a04565b6102ce6102c9366004611eb7565b6112b2565b6040516101459190612a40565b6102156102e9366004611de5565b61135e565b6102356102fc366004611eb7565b61140b565b61031461030f366004611eb7565b611467565b6040516101459190612894565b80516060901561034c5760405162461bcd60e51b815260040161034390612d73565b60405180910390fd5b60208201516040516325652e8960e01b815273__CBOR__________________________________916325652e89916103879190600401612de9565b60006040518083038186803b15801561039f57600080fd5b505af41580156103b3573d6000803e3d6000fd5b505050506040513d6000823e601f3d908101601f191682016040526103db9190810190611d3d565b90505b919050565b80516060906104045760405162461bcd60e51b815260040161034390612c2d565b602082015160405163dcb68ea160e01b815273__CBOR__________________________________9163dcb68ea19161043f9190600401612de9565b60006040518083038186803b15801561045757600080fd5b505af415801561046b573d6000803e3d6000fd5b505050506040513d6000823e601f3d908101601f191682016040526103db9190810190611c2b565b805160609061034c5760405162461bcd60e51b815260040161034390612a4e565b80516060906104d55760405162461bcd60e51b815260040161034390612cd1565b6020820151604051636e16eb8160e01b815273__CBOR__________________________________91636e16eb81916105109190600401612de9565b60006040518083038186803b15801561052857600080fd5b505af415801561053c573d6000803e3d6000fd5b505050506040513d6000823e601f3d908101601f191682016040526103db9190810190611cb5565b5190565b80516000906105895760405162461bcd60e51b815260040161034390612b3b565b602082015160405163d9aee20960e01b815273__CBOR__________________________________9163d9aee209916105c49190600401612de9565b60206040518083038186803b1580156105dc57600080fd5b505af41580156105f0573d6000803e3d6000fd5b505050506040513d601f19601f820116820180604052508101906103db9190612069565b60006060600061062384610321565b905080516000141561066e57505060408051808201909152601d81527f556e6b6e6f776e206572726f7220286e6f206572726f7220636f646529000000602082015260009150610f57565b60006106a18260008151811061069457634e487b7160e01b600052603260045260246000fd5b6020026020010151611517565b9050606060018260ff8111156106c757634e487b7160e01b600052602160045260246000fd5b1480156106d657506002835110155b156107325761070c836001815181106106ff57634e487b7160e01b600052603260045260246000fd5b6020026020010151611542565b60405160200161071c9190612360565b6040516020818303038152906040529050610f50565b60028260ff81111561075457634e487b7160e01b600052602160045260246000fd5b14801561076357506002835110155b1561079c5761078c836001815181106106ff57634e487b7160e01b600052603260045260246000fd5b60405160200161071c919061242a565b60038260ff8111156107be57634e487b7160e01b600052602160045260246000fd5b1480156107cd57506002835110155b15610806576107f6836001815181106106ff57634e487b7160e01b600052603260045260246000fd5b60405160200161071c91906123be565b60108260ff81111561082857634e487b7160e01b600052602160045260246000fd5b14801561083757506002835110155b1561087057610860836001815181106106ff57634e487b7160e01b600052603260045260246000fd5b60405160200161071c919061265d565b60118260ff81111561089257634e487b7160e01b600052602160045260246000fd5b1480156108a157506004835110155b15610931576108ca836002815181106106ff57634e487b7160e01b600052603260045260246000fd5b6108fb846001815181106108ee57634e487b7160e01b600052603260045260246000fd5b602002602001015161119d565b61091f856003815181106106ff57634e487b7160e01b600052603260045260246000fd5b60405160200161071c939291906126be565b60208260ff81111561095357634e487b7160e01b600052602160045260246000fd5b14801561096257506005835110155b15610a17576109988360048151811061098b57634e487b7160e01b600052603260045260246000fd5b602002602001015161178b565b6109bc846003815181106106ff57634e487b7160e01b600052603260045260246000fd5b6109e0856002815181106106ff57634e487b7160e01b600052603260045260246000fd5b610a04866001815181106108ee57634e487b7160e01b600052603260045260246000fd5b60405160200161071c949392919061227c565b60308260ff811115610a3957634e487b7160e01b600052602160045260246000fd5b148015610a4857506003835110155b15610b3d57610a71836001815181106106ff57634e487b7160e01b600052603260045260246000fd5b610aae606485600281518110610a9757634e487b7160e01b600052603260045260246000fd5b6020026020010151610aa99190612eb4565b611542565b610af2600a606487600281518110610ad657634e487b7160e01b600052603260045260246000fd5b6020026020010151610ae89190612f0a565b610aa99190612eb4565b610b2a600a87600281518110610b1857634e487b7160e01b600052603260045260246000fd5b6020026020010151610aa99190612f0a565b60405160200161071c949392919061276e565b60318260ff811115610b5f57634e487b7160e01b600052602160045260246000fd5b148015610b6e57506002835110155b15610ba757610b97836001815181106106ff57634e487b7160e01b600052603260045260246000fd5b60405160200161071c9190612827565b60408260ff811115610bc957634e487b7160e01b600052602160045260246000fd5b148015610bd857506005835110155b15610c8057610c018360048151811061098b57634e487b7160e01b600052603260045260246000fd5b610c25846003815181106106ff57634e487b7160e01b600052603260045260246000fd5b610c49856002815181106106ff57634e487b7160e01b600052603260045260246000fd5b610c6d866001815181106108ee57634e487b7160e01b600052603260045260246000fd5b60405160200161071c949392919061219f565b60418260ff811115610ca257634e487b7160e01b600052602160045260246000fd5b148015610cb157506005835110155b15610d5957610cda8360048151811061098b57634e487b7160e01b600052603260045260246000fd5b610cfe846003815181106106ff57634e487b7160e01b600052603260045260246000fd5b610d22856002815181106106ff57634e487b7160e01b600052603260045260246000fd5b610d46866001815181106108ee57634e487b7160e01b600052603260045260246000fd5b60405160200161071c9493929190612580565b60428260ff811115610d7b57634e487b7160e01b600052602160045260246000fd5b148015610d8a57506005835110155b15610e3257610db38360048151811061098b57634e487b7160e01b600052603260045260246000fd5b610dd7846003815181106106ff57634e487b7160e01b600052603260045260246000fd5b610dfb856002815181106106ff57634e487b7160e01b600052603260045260246000fd5b610e1f866001815181106108ee57634e487b7160e01b600052603260045260246000fd5b60405160200161071c9493929190612496565b60e08260ff811115610e5457634e487b7160e01b600052602160045260246000fd5b1415610e7a576040518060600160405280603f8152602001612fa4603f91399050610f50565b60e18260ff811115610e9c57634e487b7160e01b600052602160045260246000fd5b1415610ec257604051806080016040528060478152602001613024604791399050610f50565b60e28260ff811115610ee457634e487b7160e01b600052602160045260246000fd5b1415610f0a57604051806080016040528060418152602001612fe3604191399050610f50565b610f2e8360008151811061098b57634e487b7160e01b600052603260045260246000fd5b604051602001610f3e919061215b565b60405160208183030381529060405290505b9093509150505b915091565b610f64611899565b5060a0810151604080518082019091526001600160401b03909116602714158152602081019190915290565b8051606090610fb15760405162461bcd60e51b815260040161034390612aee565b602082015160405163f896fab360e01b815273__CBOR__________________________________9163f896fab391610fec9190600401612de9565b60006040518083038186803b15801561100457600080fd5b505af4158015611018573d6000803e3d6000fd5b505050506040513d6000823e601f3d908101601f191682016040526103db9190810190611e51565b511590565b80516000906110665760405162461bcd60e51b815260040161034390612aa0565b6020820151604051631bc742b960e01b815273__CBOR__________________________________91631bc742b9916110a19190600401612de9565b60206040518083038186803b1580156110b957600080fd5b505af41580156110cd573d6000803e3d6000fd5b505050506040513d601f19601f820116820180604052508101906103db9190611dc9565b80516000906111125760405162461bcd60e51b815260040161034390612d23565b602082015160405163537ae6d760e01b815273__CBOR__________________________________9163537ae6d79161114d9190600401612de9565b60206040518083038186803b15801561116557600080fd5b505af4158015611179573d6000803e3d6000fd5b505050506040513d601f19601f820116820180604052508101906103db9190611e83565b60606001600160401b0382166111d357506040805180820190915260098152681c995d1c9a595d985b60ba1b60208201526103de565b816001600160401b03166001141561120d575060408051808201909152600b81526a30b3b3b932b3b0ba34b7b760a91b60208201526103de565b816001600160401b031660021415611241575060408051808201909152600581526474616c6c7960d81b60208201526103de565b506040805180820190915260078152663ab735b737bbb760c91b60208201526103de565b60008061127183610321565b90508051600014156112875760009150506103de565b6112ab8160008151811061069457634e487b7160e01b600052603260045260246000fd5b9392505050565b80516000906112d35760405162461bcd60e51b815260040161034390612c80565b6020820151604051639ada264760e01b815273__CBOR__________________________________91639ada26479161130e9190600401612de9565b60206040518083038186803b15801561132657600080fd5b505af415801561133a573d6000803e3d6000fd5b505050506040513d601f19601f820116820180604052508101906103db9190611e9d565b611366611899565b6040516337f2974d60e21b815260009073__CBOR__________________________________9063dfca5d34906113a290879087906004016129c2565b60006040518083038186803b1580156113ba57600080fd5b505af41580156113ce573d6000803e3d6000fd5b505050506040513d6000823e601f3d908101601f191682016040526113f69190810190611f7a565b905061140181610f5c565b9150505b92915050565b805160609061142c5760405162461bcd60e51b815260040161034390612bdd565b60208201516040516364af281760e01b815273__CBOR__________________________________916364af281791610fec9190600401612de9565b80516060906114885760405162461bcd60e51b815260040161034390612b8b565b6020820151604051632a7713f360e11b815273__CBOR__________________________________916354ee27e6916114c39190600401612de9565b60006040518083038186803b1580156114db57600080fd5b505af41580156114ef573d6000803e3d6000fd5b505050506040513d6000823e601f3d908101601f191682016040526103db9190810190611b95565b6000816001600160401b031660ff8111156103db57634e487b7160e01b600052602160045260246000fd5b6060600a826001600160401b031610156115c457604080516001808252818301909252600091602082018180368337019050509050611582836030612e83565b60f81b816000815181106115a657634e487b7160e01b600052603260045260246000fd5b60200101906001600160f81b031916908160001a90535090506103de565b6064826001600160401b0316101561168257604080516002808252818301909252600091602082018180368337019050509050611602600a84612eb4565b61160d906030612e83565b60f81b8160008151811061163157634e487b7160e01b600052603260045260246000fd5b60200101906001600160f81b031916908160001a905350611653600a84612f0a565b61165e906030612e83565b60f81b816001815181106115a657634e487b7160e01b600052603260045260246000fd5b6040805160038082528183019092526000916020820181803683370190505090506116ae606484612eb4565b6116b9906030612e83565b60f81b816000815181106116dd57634e487b7160e01b600052603260045260246000fd5b60200101906001600160f81b031916908160001a905350600a611701606485612f0a565b61170b9190612eb4565b611716906030612e83565b60f81b8160018151811061173a57634e487b7160e01b600052603260045260246000fd5b60200101906001600160f81b031916908160001a90535061175c600a84612f0a565b611767906030612e83565b60f81b816002815181106115a657634e487b7160e01b600052603260045260246000fd5b6040805160028082528183019092526060916000919060208201818036833701905050905060006117bd601085612eb4565b6117c8906030612e83565b905060006117d7601086612f0a565b6117e2906030612e83565b905060398260ff1611156117fe576117fb600783612e83565b91505b60398160ff16111561181857611815600782612e83565b90505b8160f81b8360008151811061183d57634e487b7160e01b600052603260045260246000fd5b60200101906001600160f81b031916908160001a9053508060f81b8360018151811061187957634e487b7160e01b600052603260045260246000fd5b60200101906001600160f81b031916908160001a90535091949350505050565b60405180604001604052806000151581526020016118b56118ba565b905290565b6040518060c001604052806118cd6118f6565b815260006020820181905260408201819052606082018190526080820181905260a09091015290565b60408051808201909152606081526000602082015290565b600082601f83011261191e578081fd5b815161193161192c82612e5c565b612e10565b818152846020838601011115611945578283fd5b611956826020830160208701612eda565b949350505050565b8051600f81900b81146103de57600080fd5b8051600381900b81146103de57600080fd5b600060408284031215611993578081fd5b604051604081016001600160401b0382821081831117156119b6576119b6612f46565b8160405282935084359150808211156119ce57600080fd5b508301601f810185136119e057600080fd5b803560206119f061192c83612e5c565b8281528782848601011115611a0457600080fd5b828285018383013760008184018301528452611a21868201611b5e565b818501525050505092915050565b600060408284031215611a40578081fd5b604051604081016001600160401b038282108183111715611a6357611a63612f46565b816040528293508451915080821115611a7b57600080fd5b50611a888582860161190e565b8252506020830151611a9981612f6d565b6020919091015292915050565b600060c08284031215611ab7578081fd5b60405160c081016001600160401b038282108183111715611ada57611ada612f46565b816040528293508435915080821115611af257600080fd5b50611aff85828601611982565b825250611b0e60208401611b7f565b6020820152611b1f60408401611b7f565b6040820152611b3060608401611b7f565b6060820152611b4160808401611b69565b6080820152611b5260a08401611b69565b60a08201525092915050565b80356103de81612f6d565b80356103de81612f7f565b80516103de81612f7f565b80356103de81612f94565b80516103de81612f94565b60006020808385031215611ba7578182fd5b82516001600160401b03811115611bbc578283fd5b8301601f81018513611bcc578283fd5b8051611bda61192c82612e39565b8181528381019083850185840285018601891015611bf6578687fd5b8694505b83851015611c1f57611c0b8161195e565b835260019490940193918501918501611bfa565b50979650505050505050565b60006020808385031215611c3d578182fd5b82516001600160401b03811115611c52578283fd5b8301601f81018513611c62578283fd5b8051611c7061192c82612e39565b8181528381019083850185840285018601891015611c8c578687fd5b8694505b83851015611c1f57611ca181611970565b835260019490940193918501918501611c90565b60006020808385031215611cc7578182fd5b82516001600160401b03811115611cdc578283fd5b8301601f81018513611cec578283fd5b8051611cfa61192c82612e39565b81815283810190838501865b84811015611d2f57611d1d8a88845189010161190e565b84529286019290860190600101611d06565b509098975050505050505050565b60006020808385031215611d4f578182fd5b82516001600160401b03811115611d64578283fd5b8301601f81018513611d74578283fd5b8051611d8261192c82612e39565b8181528381019083850185840285018601891015611d9e578687fd5b8694505b83851015611c1f578051611db581612f7f565b835260019490940193918501918501611da2565b600060208284031215611dda578081fd5b81516112ab81612f5c565b60008060208385031215611df7578081fd5b82356001600160401b0380821115611e0d578283fd5b818501915085601f830112611e20578283fd5b813581811115611e2e578384fd5b866020828501011115611e3f578384fd5b60209290920196919550909350505050565b600060208284031215611e62578081fd5b81516001600160401b03811115611e77578182fd5b6114018482850161190e565b600060208284031215611e94578081fd5b6112ab8261195e565b600060208284031215611eae578081fd5b6112ab82611970565b600060208284031215611ec8578081fd5b81356001600160401b0380821115611ede578283fd5b9083019060408286031215611ef1578283fd5b604051604081018181108382111715611f0c57611f0c612f46565b6040528235611f1a81612f5c565b8152602083013582811115611f2d578485fd5b611f3987828601611aa6565b60208301525095945050505050565b600060208284031215611f59578081fd5b81356001600160401b03811115611f6e578182fd5b61140184828501611aa6565b600060208284031215611f8b578081fd5b81516001600160401b0380821115611fa1578283fd5b9083019060c08286031215611fb4578283fd5b60405160c081018181108382111715611fcf57611fcf612f46565b604052825182811115611fe0578485fd5b611fec87828601611a2f565b825250611ffb60208401611b8a565b602082015261200c60408401611b8a565b604082015261201d60608401611b8a565b606082015261202e60808401611b74565b608082015261203f60a08401611b74565b60a082015295945050505050565b60006020828403121561205e578081fd5b81356112ab81612f7f565b60006020828403121561207a578081fd5b81516112ab81612f7f565b6000815180845261209d816020860160208601612eda565b601f01601f19169290920160200192915050565b61010081106120d057634e487b7160e01b600052602160045260246000fd5b9052565b6000815160c084528051604060c08601526120f3610100860182612085565b905063ffffffff60208301511660e086015260ff602085015116602086015260ff604085015116604086015260ff60608501511660608601526001600160401b03608085015116608086015260a0840151915061195660a08601836001600160401b03169052565b6000700aadcd6dcdeeedc40cae4e4dee4405060f607b1b82528251612187816011850160208701612eda565b602960f81b6011939091019283015250601201919050565b60007f556e646572666c6f77206174206f70657261746f7220636f6465203078000000825285516121d781601d850160208a01612eda565b6f20666f756e642061742063616c6c202360801b601d91840191820152855161220781602d840160208a01612eda565b6b20696e20736372697074202360a01b602d92909101918201528451612234816039840160208901612eda565b65010333937b6960d51b60399290910191820152835161225b81603f840160208801612eda565b6520737461676560d01b603f92909101918201526045019695505050505050565b60006f09ee0cae4c2e8dee440c6dec8ca4060f60831b8252855160206122a88260108601838b01612eda565b6f20666f756e642061742063616c6c202360801b60109285019283015286516122d681838501848b01612eda565b6b20696e20736372697074202360a01b920181810192909252855161230181602c8501898501612eda565b65010333937b6960d51b602c939091019283015284516123278160328501848901612eda565b7f207374616765206973206e6f7420737570706f7274656400000000000000000060329390910192830152506049019695505050505050565b60006e536f7572636520736372697074202360881b8252825161238a81600f850160208701612eda565b7f20776173206e6f7420612076616c69642043424f522076616c75650000000000600f939091019283015250602a01919050565b60007f5468652043424f522076616c756520696e207363726970742023000000000000825282516123f681601a850160208701612eda565b7f20776173206e6f7420612076616c6964205241444f4e20736372697074000000601a939091019283015250603701919050565b60007f5468652043424f522076616c756520696e2073637269707420230000000000008252825161246281601a850160208701612eda565b7f20776173206e6f7420616e204172726179206f662063616c6c73000000000000601a939091019283015250603401919050565b60007f4469766973696f6e206279207a65726f206174206f70657261746f7220636f648252630ca4060f60e31b602083015285516124db816024850160208a01612eda565b6f20666f756e642061742063616c6c202360801b602491840191820152855161250b816034840160208a01612eda565b6b20696e20736372697074202360a01b603492909101918201528451612538816040840160208901612eda565b65010333937b6960d51b60409290910191820152835161255f816046840160208801612eda565b6520737461676560d01b60469290910191820152604c019695505050505050565b60007f4f766572666c6f77206174206f70657261746f7220636f646520307800000000825285516125b881601c850160208a01612eda565b6f20666f756e642061742063616c6c202360801b601c9184019182015285516125e881602c840160208a01612eda565b6b20696e20736372697074202360a01b602c92909101918201528451612615816038840160208901612eda565b65010333937b6960d51b60389290910191820152835161263c81603e840160208801612eda565b6520737461676560d01b603e92909101918201526044019695505050505050565b60007f546865207265717565737420636f6e7461696e656420746f6f206d616e7920738252670deeae4c6cae640560c31b602083015282516126a6816028850160208701612eda565b602960f81b6028939091019283015250602901919050565b600067536372697074202360c01b825284516126e1816008850160208901612eda565b69010333937b6903a3432960b51b600891840191820152845161270b816012840160208901612eda565b7f20737461676520636f6e7461696e656420746f6f206d616e792063616c6c732060129290910191820152600560fb1b60328201528351612753816033840160208801612eda565b602960f81b6033929091019182015260340195945050505050565b600067536f75726365202360c01b82528551612791816008850160208a01612eda565b7f20636f756c64206e6f74206265207265747269657665642e204661696c6564206008918401918201527503bb4ba3410242a2a281032b93937b91031b7b2329d160551b602882015285516127ed81603e840160208a01612eda565b855191019061280381603e840160208901612eda565b845191019061281981603e840160208801612eda565b01603e019695505050505050565b600067536f75726365202360c01b8252825161284a816008850160208701612eda565b7f20636f756c64206e6f742062652072657472696576656420626563617573652060089390910192830152506c37b31030903a34b6b2b7baba1760991b6028820152603501919050565b6020808252825182820181905260009190848201906040850190845b818110156128cf578351600f0b835292840192918401916001016128b0565b50909695505050505050565b6020808252825182820181905260009190848201906040850190845b818110156128cf57835160030b835292840192918401916001016128f7565b6000602080830181845280855180835260408601915060408482028701019250838701855b8281101561296957603f19888603018452612957858351612085565b9450928501929085019060010161293b565b5092979650505050505050565b6020808252825182820181905260009190848201906040850190845b818110156128cf5783516001600160401b031683529284019291840191600101612992565b901515815260200190565b60006020825282602083015282846040840137818301604090810191909152601f909201601f19160101919050565b6000602082526112ab6020830184612085565b6020810161140582846120b1565b6000612a1e82856120b1565b604060208301526119566040830184612085565b600f9190910b815260200190565b60039190910b815260200190565b60208082526032908201527f547269656420746f2072656164206075696e7436345b5d602076616c756520666040820152711c9bdb48195c9c9bdc99590814995cdd5b1d60721b606082015260800190565b6020808252602e908201527f547269656420746f20726561642060626f6f6c602076616c75652066726f6d2060408201526d195c9c9bdc99590814995cdd5b1d60921b606082015260800190565b6020808252602d908201527f547269656420746f20726561642062797465732076616c75652066726f6d206560408201526c1c9c9bdc99590814995cdd5b1d609a1b606082015260800190565b60208082526030908201527f547269656420746f2072656164206075696e743634602076616c75652066726f60408201526f1b48195c9c9bdc99590814995cdd5b1d60821b606082015260800190565b60208082526032908201527f547269656420746f20726561642060696e743132385b5d602076616c756520666040820152711c9bdb48195c9c9bdc99590814995cdd5b1d60721b606082015260800190565b60208082526030908201527f547269656420746f20726561642060737472696e67602076616c75652066726f60408201526f1b48195c9c9bdc99590814995cdd5b1d60821b606082015260800190565b60208082526033908201527f547269656420746f20726561642060666978656431365b5d602076616c756520604082015272199c9bdb48195c9c9bdc99590814995cdd5b1d606a1b606082015260800190565b60208082526031908201527f547269656420746f2072656164206066697865643136602076616c75652066726040820152701bdb48195c9c9bdc99590814995cdd5b1d607a1b606082015260800190565b60208082526032908201527f547269656420746f20726561642060737472696e675b5d602076616c756520666040820152711c9bdb48195c9c9bdc99590814995cdd5b1d60721b606082015260800190565b60208082526030908201527f547269656420746f20726561642060696e74313238602076616c75652066726f60408201526f1b48195c9c9bdc99590814995cdd5b1d60821b606082015260800190565b6020808252602f908201527f547269656420746f2072656164206572726f7220636f64652066726f6d20737560408201526e18d8d95cdcd99d5b0814995cdd5b1d608a1b606082015260800190565b600060208252825115156020830152602083015160408084015261140160608401826120d4565b6000602082526112ab60208301846120d4565b6001600160401b0391909116815260200190565b6040518181016001600160401b0381118282101715612e3157612e31612f46565b604052919050565b60006001600160401b03821115612e5257612e52612f46565b5060209081020190565b60006001600160401b03821115612e7557612e75612f46565b50601f01601f191660200190565b600060ff821660ff84168060ff03821115612eac57634e487b7160e01b83526011600452602483fd5b019392505050565b60006001600160401b0380841680612ece57612ece612f30565b92169190910492915050565b60005b83811015612ef5578181015183820152602001612edd565b83811115612f04576000848401525b50505050565b60006001600160401b0380841680612f2457612f24612f30565b92169190910692915050565b634e487b7160e01b600052601260045260246000fd5b634e487b7160e01b600052604160045260246000fd5b8015158114612f6a57600080fd5b50565b63ffffffff81168114612f6a57600080fd5b6001600160401b0381168114612f6a57600080fd5b60ff81168114612f6a57600080fdfe54686520737472756374757265206f6620746865207265717565737420697320696e76616c696420616e642069742063616e6e6f7420626520706172736564546865207265717565737420726573756c74206c656e677468206578636565647320612062726964676520636f6e747261637420646566696e6564206c696d6974546865207265717565737420686173206265656e2072656a65637465642062792074686520627269646765206e6f64652064756520746f20706f6f7220696e63656e7469766573a264697066735822122025894588ef5e17673954cf5ced4910285a46df8fc86615e990c008aa9786ce8664736f6c63430008000033",
  "immutableReferences": {},
  "source": "// SPDX-License-Identifier: MIT\n\npragma solidity >=0.7.0 <0.9.0;\npragma experimental ABIEncoderV2;\n\nimport \"./CBOR.sol\";\n\n\n/**\n * @title A library for decoding Witnet request results\n * @notice The library exposes functions to check the Witnet request success.\n * and retrieve Witnet results from CBOR values into solidity types.\n */\nlibrary Witnet {\n  using CBOR for CBOR.Value;\n\n  /*\n   *  STRUCTS\n   */\n  struct Result {\n    bool success;\n    CBOR.Value cborValue;\n  }\n\n  /*\n   *  ENUMS\n   */\n  enum ErrorCodes {\n    // 0x00: Unknown error. Something went really bad!\n    Unknown,\n    // Script format errors\n    /// 0x01: At least one of the source scripts is not a valid CBOR-encoded value.\n    SourceScriptNotCBOR,\n    /// 0x02: The CBOR value decoded from a source script is not an Array.\n    SourceScriptNotArray,\n    /// 0x03: The Array value decoded form a source script is not a valid RADON script.\n    SourceScriptNotRADON,\n    /// Unallocated\n    ScriptFormat0x04,\n    ScriptFormat0x05,\n    ScriptFormat0x06,\n    ScriptFormat0x07,\n    ScriptFormat0x08,\n    ScriptFormat0x09,\n    ScriptFormat0x0A,\n    ScriptFormat0x0B,\n    ScriptFormat0x0C,\n    ScriptFormat0x0D,\n    ScriptFormat0x0E,\n    ScriptFormat0x0F,\n    // Complexity errors\n    /// 0x10: The request contains too many sources.\n    RequestTooManySources,\n    /// 0x11: The script contains too many calls.\n    ScriptTooManyCalls,\n    /// Unallocated\n    Complexity0x12,\n    Complexity0x13,\n    Complexity0x14,\n    Complexity0x15,\n    Complexity0x16,\n    Complexity0x17,\n    Complexity0x18,\n    Complexity0x19,\n    Complexity0x1A,\n    Complexity0x1B,\n    Complexity0x1C,\n    Complexity0x1D,\n    Complexity0x1E,\n    Complexity0x1F,\n    // Operator errors\n    /// 0x20: The operator does not exist.\n    UnsupportedOperator,\n    /// Unallocated\n    Operator0x21,\n    Operator0x22,\n    Operator0x23,\n    Operator0x24,\n    Operator0x25,\n    Operator0x26,\n    Operator0x27,\n    Operator0x28,\n    Operator0x29,\n    Operator0x2A,\n    Operator0x2B,\n    Operator0x2C,\n    Operator0x2D,\n    Operator0x2E,\n    Operator0x2F,\n    // Retrieval-specific errors\n    /// 0x30: At least one of the sources could not be retrieved, but returned HTTP error.\n    HTTP,\n    /// 0x31: Retrieval of at least one of the sources timed out.\n    RetrievalTimeout,\n    /// Unallocated\n    Retrieval0x32,\n    Retrieval0x33,\n    Retrieval0x34,\n    Retrieval0x35,\n    Retrieval0x36,\n    Retrieval0x37,\n    Retrieval0x38,\n    Retrieval0x39,\n    Retrieval0x3A,\n    Retrieval0x3B,\n    Retrieval0x3C,\n    Retrieval0x3D,\n    Retrieval0x3E,\n    Retrieval0x3F,\n    // Math errors\n    /// 0x40: Math operator caused an underflow.\n    Underflow,\n    /// 0x41: Math operator caused an overflow.\n    Overflow,\n    /// 0x42: Tried to divide by zero.\n    DivisionByZero,\n    /// Unallocated\n    Math0x43,\n    Math0x44,\n    Math0x45,\n    Math0x46,\n    Math0x47,\n    Math0x48,\n    Math0x49,\n    Math0x4A,\n    Math0x4B,\n    Math0x4C,\n    Math0x4D,\n    Math0x4E,\n    Math0x4F,\n    // Other errors\n    /// 0x50: Received zero reveals\n    NoReveals,\n    /// 0x51: Insufficient consensus in tally precondition clause\n    InsufficientConsensus,\n    /// 0x52: Received zero commits\n    InsufficientCommits,\n    /// 0x53: Generic error during tally execution\n    TallyExecution,\n    /// Unallocated\n    OtherError0x54,\n    OtherError0x55,\n    OtherError0x56,\n    OtherError0x57,\n    OtherError0x58,\n    OtherError0x59,\n    OtherError0x5A,\n    OtherError0x5B,\n    OtherError0x5C,\n    OtherError0x5D,\n    OtherError0x5E,\n    OtherError0x5F,\n    /// 0x60: Invalid reveal serialization (malformed reveals are converted to this value)\n    MalformedReveal,\n    /// Unallocated\n    OtherError0x61,\n    OtherError0x62,\n    OtherError0x63,\n    OtherError0x64,\n    OtherError0x65,\n    OtherError0x66,\n    OtherError0x67,\n    OtherError0x68,\n    OtherError0x69,\n    OtherError0x6A,\n    OtherError0x6B,\n    OtherError0x6C,\n    OtherError0x6D,\n    OtherError0x6E,\n    OtherError0x6F,\n    // Access errors\n    /// 0x70: Tried to access a value from an index using an index that is out of bounds\n    ArrayIndexOutOfBounds,\n    /// 0x71: Tried to access a value from a map using a key that does not exist\n    MapKeyNotFound,\n    /// Unallocated\n    OtherError0x72,\n    OtherError0x73,\n    OtherError0x74,\n    OtherError0x75,\n    OtherError0x76,\n    OtherError0x77,\n    OtherError0x78,\n    OtherError0x79,\n    OtherError0x7A,\n    OtherError0x7B,\n    OtherError0x7C,\n    OtherError0x7D,\n    OtherError0x7E,\n    OtherError0x7F,\n    OtherError0x80,\n    OtherError0x81,\n    OtherError0x82,\n    OtherError0x83,\n    OtherError0x84,\n    OtherError0x85,\n    OtherError0x86,\n    OtherError0x87,\n    OtherError0x88,\n    OtherError0x89,\n    OtherError0x8A,\n    OtherError0x8B,\n    OtherError0x8C,\n    OtherError0x8D,\n    OtherError0x8E,\n    OtherError0x8F,\n    OtherError0x90,\n    OtherError0x91,\n    OtherError0x92,\n    OtherError0x93,\n    OtherError0x94,\n    OtherError0x95,\n    OtherError0x96,\n    OtherError0x97,\n    OtherError0x98,\n    OtherError0x99,\n    OtherError0x9A,\n    OtherError0x9B,\n    OtherError0x9C,\n    OtherError0x9D,\n    OtherError0x9E,\n    OtherError0x9F,\n    OtherError0xA0,\n    OtherError0xA1,\n    OtherError0xA2,\n    OtherError0xA3,\n    OtherError0xA4,\n    OtherError0xA5,\n    OtherError0xA6,\n    OtherError0xA7,\n    OtherError0xA8,\n    OtherError0xA9,\n    OtherError0xAA,\n    OtherError0xAB,\n    OtherError0xAC,\n    OtherError0xAD,\n    OtherError0xAE,\n    OtherError0xAF,\n    OtherError0xB0,\n    OtherError0xB1,\n    OtherError0xB2,\n    OtherError0xB3,\n    OtherError0xB4,\n    OtherError0xB5,\n    OtherError0xB6,\n    OtherError0xB7,\n    OtherError0xB8,\n    OtherError0xB9,\n    OtherError0xBA,\n    OtherError0xBB,\n    OtherError0xBC,\n    OtherError0xBD,\n    OtherError0xBE,\n    OtherError0xBF,\n    OtherError0xC0,\n    OtherError0xC1,\n    OtherError0xC2,\n    OtherError0xC3,\n    OtherError0xC4,\n    OtherError0xC5,\n    OtherError0xC6,\n    OtherError0xC7,\n    OtherError0xC8,\n    OtherError0xC9,\n    OtherError0xCA,\n    OtherError0xCB,\n    OtherError0xCC,\n    OtherError0xCD,\n    OtherError0xCE,\n    OtherError0xCF,\n    OtherError0xD0,\n    OtherError0xD1,\n    OtherError0xD2,\n    OtherError0xD3,\n    OtherError0xD4,\n    OtherError0xD5,\n    OtherError0xD6,\n    OtherError0xD7,\n    OtherError0xD8,\n    OtherError0xD9,\n    OtherError0xDA,\n    OtherError0xDB,\n    OtherError0xDC,\n    OtherError0xDD,\n    OtherError0xDE,\n    OtherError0xDF,\n    // Bridge errors: errors that only belong in inter-client communication\n    /// 0xE0: Requests that cannot be parsed must always get this error as their result.\n    /// However, this is not a valid result in a Tally transaction, because invalid requests\n    /// are never included into blocks and therefore never get a Tally in response.\n    BridgeMalformedRequest,\n    /// 0xE1: Witnesses exceeds 100\n    BridgePoorIncentives,\n    /// 0xE2: The request is rejected on the grounds that it may cause the submitter to spend or stake an\n    /// amount of value that is unjustifiably high when compared with the reward they will be getting\n    BridgeOversizedResult,\n    /// Unallocated\n    OtherError0xE3,\n    OtherError0xE4,\n    OtherError0xE5,\n    OtherError0xE6,\n    OtherError0xE7,\n    OtherError0xE8,\n    OtherError0xE9,\n    OtherError0xEA,\n    OtherError0xEB,\n    OtherError0xEC,\n    OtherError0xED,\n    OtherError0xEE,\n    OtherError0xEF,\n    OtherError0xF0,\n    OtherError0xF1,\n    OtherError0xF2,\n    OtherError0xF3,\n    OtherError0xF4,\n    OtherError0xF5,\n    OtherError0xF6,\n    OtherError0xF7,\n    OtherError0xF8,\n    OtherError0xF9,\n    OtherError0xFA,\n    OtherError0xFB,\n    OtherError0xFC,\n    OtherError0xFD,\n    OtherError0xFE,\n    // This should not exist:\n    /// 0xFF: Some tally error is not intercepted but should\n    UnhandledIntercept\n  }\n\n  /*\n   * Result impl's\n   */\n\n  /**\n   * @notice Decode raw CBOR bytes into a Result instance.\n   * @param _cborBytes Raw bytes representing a CBOR-encoded value.\n   * @return A `Result` instance.\n   */\n  function resultFromCborBytes(bytes calldata _cborBytes) external pure returns(Result memory) {\n    CBOR.Value memory cborValue = CBOR.valueFromBytes(_cborBytes);\n    return resultFromCborValue(cborValue);\n  }\n\n  /**\n   * @notice Decode a CBOR value into a Result instance.\n   * @param _cborValue An instance of `CBOR.Value`.\n   * @return A `Result` instance.\n   */\n  function resultFromCborValue(CBOR.Value memory _cborValue) public pure returns(Result memory) {\n    // Witnet uses CBOR tag 39 to represent RADON error code identifiers.\n    // [CBOR tag 39] Identifiers for CBOR: https://github.com/lucas-clemente/cbor-specs/blob/master/id.md\n    bool success = _cborValue.tag != 39;\n    return Result(success, _cborValue);\n  }\n\n  /**\n   * @notice Tell if a Result is successful.\n   * @param _result An instance of Result.\n   * @return `true` if successful, `false` if errored.\n   */\n  function isOk(Result memory _result) external pure returns(bool) {\n    return _result.success;\n  }\n\n  /**\n   * @notice Tell if a Result is errored.\n   * @param _result An instance of Result.\n   * @return `true` if errored, `false` if successful.\n   */\n  function isError(Result memory _result) external pure returns(bool) {\n    return !_result.success;\n  }\n\n  /**\n   * @notice Decode a bytes value from a Result as a `bytes` value.\n   * @param _result An instance of Result.\n   * @return The `bytes` decoded from the Result.\n   */\n  function asBytes(Result memory _result) external pure returns(bytes memory) {\n    require(_result.success, \"Tried to read bytes value from errored Result\");\n    return _result.cborValue.decodeBytes();\n  }\n\n  /**\n   * @notice Decode an error code from a Result as a member of `ErrorCodes`.\n   * @param _result An instance of `Result`.\n   * @return The `CBORValue.Error memory` decoded from the Result.\n   */\n  function asErrorCode(Result memory _result) external pure returns(ErrorCodes) {\n    uint64[] memory error = asRawError(_result);\n    if (error.length == 0) {\n      return ErrorCodes.Unknown;\n    }\n\n    return supportedErrorOrElseUnknown(error[0]);\n  }\n\n  /**\n   * @notice Generate a suitable error message for a member of `ErrorCodes` and its corresponding arguments.\n   * @dev WARN: Note that client contracts should wrap this function into a try-catch foreseing potential errors generated in this function\n   * @param _result An instance of `Result`.\n   * @return A tuple containing the `CBORValue.Error memory` decoded from the `Result`, plus a loggable error message.\n   */\n\n  function asErrorMessage(Result memory _result) public pure returns (ErrorCodes, string memory) {\n    uint64[] memory error = asRawError(_result);\n    if (error.length == 0) {\n      return (ErrorCodes.Unknown, \"Unknown error (no error code)\");\n    }\n    ErrorCodes errorCode = supportedErrorOrElseUnknown(error[0]);\n    bytes memory errorMessage;\n\n    if (errorCode == ErrorCodes.SourceScriptNotCBOR && error.length >= 2) {\n        errorMessage = abi.encodePacked(\"Source script #\", utoa(error[1]), \" was not a valid CBOR value\");\n    } else if (errorCode == ErrorCodes.SourceScriptNotArray && error.length >= 2) {\n        errorMessage = abi.encodePacked(\"The CBOR value in script #\", utoa(error[1]), \" was not an Array of calls\");\n    } else if (errorCode == ErrorCodes.SourceScriptNotRADON && error.length >= 2) {\n        errorMessage = abi.encodePacked(\"The CBOR value in script #\", utoa(error[1]), \" was not a valid RADON script\");\n    } else if (errorCode == ErrorCodes.RequestTooManySources && error.length >= 2) {\n        errorMessage = abi.encodePacked(\"The request contained too many sources (\", utoa(error[1]), \")\");\n    } else if (errorCode == ErrorCodes.ScriptTooManyCalls && error.length >= 4) {\n        errorMessage = abi.encodePacked(\n          \"Script #\",\n          utoa(error[2]),\n          \" from the \",\n          stageName(error[1]),\n          \" stage contained too many calls (\",\n          utoa(error[3]),\n          \")\"\n        );\n    } else if (errorCode == ErrorCodes.UnsupportedOperator && error.length >= 5) {\n        errorMessage = abi.encodePacked(\n        \"Operator code 0x\",\n          utohex(error[4]),\n          \" found at call #\",\n          utoa(error[3]),\n          \" in script #\",\n          utoa(error[2]),\n          \" from \",\n          stageName(error[1]),\n          \" stage is not supported\"\n        );\n    } else if (errorCode == ErrorCodes.HTTP && error.length >= 3) {\n        errorMessage = abi.encodePacked(\n          \"Source #\",\n          utoa(error[1]),\n          \" could not be retrieved. Failed with HTTP error code: \",\n          utoa(error[2] / 100),\n          utoa(error[2] % 100 / 10),\n          utoa(error[2] % 10)\n        );\n    } else if (errorCode == ErrorCodes.RetrievalTimeout && error.length >= 2) {\n        errorMessage = abi.encodePacked(\n          \"Source #\",\n          utoa(error[1]),\n          \" could not be retrieved because of a timeout.\"\n        );\n    } else if (errorCode == ErrorCodes.Underflow && error.length >= 5) {\n        errorMessage = abi.encodePacked(\n          \"Underflow at operator code 0x\",\n          utohex(error[4]),\n          \" found at call #\",\n          utoa(error[3]),\n          \" in script #\",\n          utoa(error[2]),\n          \" from \",\n          stageName(error[1]),\n          \" stage\"\n        );\n    } else if (errorCode == ErrorCodes.Overflow && error.length >= 5) {\n        errorMessage = abi.encodePacked(\n          \"Overflow at operator code 0x\",\n          utohex(error[4]),\n          \" found at call #\",\n          utoa(error[3]),\n          \" in script #\",\n          utoa(error[2]),\n          \" from \",\n          stageName(error[1]),\n          \" stage\"\n        );\n    } else if (errorCode == ErrorCodes.DivisionByZero && error.length >= 5) {\n        errorMessage = abi.encodePacked(\n          \"Division by zero at operator code 0x\",\n          utohex(error[4]),\n          \" found at call #\",\n          utoa(error[3]),\n          \" in script #\",\n          utoa(error[2]),\n          \" from \",\n          stageName(error[1]),\n          \" stage\"\n        );\n    } else if (errorCode == ErrorCodes.BridgeMalformedRequest) {\n        errorMessage = \"The structure of the request is invalid and it cannot be parsed\";\n    } else if (errorCode == ErrorCodes.BridgePoorIncentives) {\n        errorMessage = \"The request has been rejected by the bridge node due to poor incentives\";\n    } else if (errorCode == ErrorCodes.BridgeOversizedResult) {\n        errorMessage = \"The request result length exceeds a bridge contract defined limit\";\n    } else {\n        errorMessage = abi.encodePacked(\"Unknown error (0x\", utohex(error[0]), \")\");\n    }\n\n    return (errorCode, string(errorMessage));\n  }\n\n  /**\n   * @notice Decode a raw error from a `Result` as a `uint64[]`.\n   * @param _result An instance of `Result`.\n   * @return The `uint64[]` raw error as decoded from the `Result`.\n   */\n  function asRawError(Result memory _result) public pure returns(uint64[] memory) {\n    require(!_result.success, \"Tried to read error code from successful Result\");\n    return _result.cborValue.decodeUint64Array();\n  }\n\n  /**\n   * @notice Decode a boolean value from a Result as an `bool` value.\n   * @param _result An instance of Result.\n   * @return The `bool` decoded from the Result.\n   */\n  function asBool(Result memory _result) external pure returns(bool) {\n    require(_result.success, \"Tried to read `bool` value from errored Result\");\n    return _result.cborValue.decodeBool();\n  }\n\n  /**\n   * @notice Decode a fixed16 (half-precision) numeric value from a Result as an `int32` value.\n   * @dev Due to the lack of support for floating or fixed point arithmetic in the EVM, this method offsets all values.\n   * by 5 decimal orders so as to get a fixed precision of 5 decimal positions, which should be OK for most `fixed16`.\n   * use cases. In other words, the output of this method is 10,000 times the actual value, encoded into an `int32`.\n   * @param _result An instance of Result.\n   * @return The `int128` decoded from the Result.\n   */\n  function asFixed16(Result memory _result) external pure returns(int32) {\n    require(_result.success, \"Tried to read `fixed16` value from errored Result\");\n    return _result.cborValue.decodeFixed16();\n  }\n\n  /**\n   * @notice Decode an array of fixed16 values from a Result as an `int128[]` value.\n   * @param _result An instance of Result.\n   * @return The `int128[]` decoded from the Result.\n   */\n  function asFixed16Array(Result memory _result) external pure returns(int32[] memory) {\n    require(_result.success, \"Tried to read `fixed16[]` value from errored Result\");\n    return _result.cborValue.decodeFixed16Array();\n  }\n\n  /**\n   * @notice Decode a integer numeric value from a Result as an `int128` value.\n   * @param _result An instance of Result.\n   * @return The `int128` decoded from the Result.\n   */\n  function asInt128(Result memory _result) external pure returns(int128) {\n    require(_result.success, \"Tried to read `int128` value from errored Result\");\n    return _result.cborValue.decodeInt128();\n  }\n\n  /**\n   * @notice Decode an array of integer numeric values from a Result as an `int128[]` value.\n   * @param _result An instance of Result.\n   * @return The `int128[]` decoded from the Result.\n   */\n  function asInt128Array(Result memory _result) external pure returns(int128[] memory) {\n    require(_result.success, \"Tried to read `int128[]` value from errored Result\");\n    return _result.cborValue.decodeInt128Array();\n  }\n\n  /**\n   * @notice Decode a string value from a Result as a `string` value.\n   * @param _result An instance of Result.\n   * @return The `string` decoded from the Result.\n   */\n  function asString(Result memory _result) external pure returns(string memory) {\n    require(_result.success, \"Tried to read `string` value from errored Result\");\n    return _result.cborValue.decodeString();\n  }\n\n  /**\n   * @notice Decode an array of string values from a Result as a `string[]` value.\n   * @param _result An instance of Result.\n   * @return The `string[]` decoded from the Result.\n   */\n  function asStringArray(Result memory _result) external pure returns(string[] memory) {\n    require(_result.success, \"Tried to read `string[]` value from errored Result\");\n    return _result.cborValue.decodeStringArray();\n  }\n\n  /**\n   * @notice Decode a natural numeric value from a Result as a `uint64` value.\n   * @param _result An instance of Result.\n   * @return The `uint64` decoded from the Result.\n   */\n  function asUint64(Result memory _result) external pure returns(uint64) {\n    require(_result.success, \"Tried to read `uint64` value from errored Result\");\n    return _result.cborValue.decodeUint64();\n  }\n\n  /**\n   * @notice Decode an array of natural numeric values from a Result as a `uint64[]` value.\n   * @param _result An instance of Result.\n   * @return The `uint64[]` decoded from the Result.\n   */\n  function asUint64Array(Result memory _result) external pure returns(uint64[] memory) {\n    require(_result.success, \"Tried to read `uint64[]` value from errored Result\");\n    return _result.cborValue.decodeUint64Array();\n  }\n\n  /**\n   * @notice Convert a stage index number into the name of the matching Witnet request stage.\n   * @param _stageIndex A `uint64` identifying the index of one of the Witnet request stages.\n   * @return The name of the matching stage.\n   */\n  function stageName(uint64 _stageIndex) public pure returns(string memory) {\n    if (_stageIndex == 0) {\n      return \"retrieval\";\n    } else if (_stageIndex == 1) {\n      return \"aggregation\";\n    } else if (_stageIndex == 2) {\n      return \"tally\";\n    } else {\n      return \"unknown\";\n    }\n  }\n\n  /**\n   * @notice Get an `ErrorCodes` item from its `uint64` discriminant.\n   * @param _discriminant The numeric identifier of an error.\n   * @return A member of `ErrorCodes`.\n   */\n  function supportedErrorOrElseUnknown(uint64 _discriminant) private pure returns(ErrorCodes) {\n      return ErrorCodes(_discriminant);\n  }\n\n  /**\n   * @notice Convert a `uint64` into a 1, 2 or 3 characters long `string` representing its.\n   * three less significant decimal values.\n   * @param _u A `uint64` value.\n   * @return The `string` representing its decimal value.\n   */\n  function utoa(uint64 _u) private pure returns(string memory) {\n    if (_u < 10) {\n      bytes memory b1 = new bytes(1);\n      b1[0] = bytes1(uint8(_u) + 48);\n      return string(b1);\n    } else if (_u < 100) {\n      bytes memory b2 = new bytes(2);\n      b2[0] = bytes1(uint8(_u / 10) + 48);\n      b2[1] = bytes1(uint8(_u % 10) + 48);\n      return string(b2);\n    } else {\n      bytes memory b3 = new bytes(3);\n      b3[0] = bytes1(uint8(_u / 100) + 48);\n      b3[1] = bytes1(uint8(_u % 100 / 10) + 48);\n      b3[2] = bytes1(uint8(_u % 10) + 48);\n      return string(b3);\n    }\n  }\n\n  /**\n   * @notice Convert a `uint64` into a 2 characters long `string` representing its two less significant hexadecimal values.\n   * @param _u A `uint64` value.\n   * @return The `string` representing its hexadecimal value.\n   */\n  function utohex(uint64 _u) private pure returns(string memory) {\n    bytes memory b2 = new bytes(2);\n    uint8 d0 = uint8(_u / 16) + 48;\n    uint8 d1 = uint8(_u % 16) + 48;\n    if (d0 > 57)\n      d0 += 7;\n    if (d1 > 57)\n      d1 += 7;\n    b2[0] = bytes1(d0);\n    b2[1] = bytes1(d1);\n    return string(b2);\n  }\n}\n",
  "sourcePath": "witnet-ethereum-bridge/contracts/Witnet.sol",
  "compiler": {
    "name": "solc",
    "version": "0.8.0+commit.c7dfd78e.Emscripten.clang"
  },
  "schemaVersion": "3.4.2",
  "updatedAt": "2021-07-25T13:34:07.308Z",
  "devdoc": {
    "kind": "dev",
    "methods": {
      "asBool(Witnet.Result)": {
        "params": {
          "_result": "An instance of Result."
        },
        "returns": {
          "_0": "The `bool` decoded from the Result."
        }
      },
      "asBytes(Witnet.Result)": {
        "params": {
          "_result": "An instance of Result."
        },
        "returns": {
          "_0": "The `bytes` decoded from the Result."
        }
      },
      "asErrorCode(Witnet.Result)": {
        "params": {
          "_result": "An instance of `Result`."
        },
        "returns": {
          "_0": "The `CBORValue.Error memory` decoded from the Result."
        }
      },
      "asErrorMessage(Witnet.Result)": {
        "details": "WARN: Note that client contracts should wrap this function into a try-catch foreseing potential errors generated in this function",
        "params": {
          "_result": "An instance of `Result`."
        },
        "returns": {
          "_0": "A tuple containing the `CBORValue.Error memory` decoded from the `Result`, plus a loggable error message."
        }
      },
      "asFixed16(Witnet.Result)": {
        "details": "Due to the lack of support for floating or fixed point arithmetic in the EVM, this method offsets all values. by 5 decimal orders so as to get a fixed precision of 5 decimal positions, which should be OK for most `fixed16`. use cases. In other words, the output of this method is 10,000 times the actual value, encoded into an `int32`.",
        "params": {
          "_result": "An instance of Result."
        },
        "returns": {
          "_0": "The `int128` decoded from the Result."
        }
      },
      "asFixed16Array(Witnet.Result)": {
        "params": {
          "_result": "An instance of Result."
        },
        "returns": {
          "_0": "The `int128[]` decoded from the Result."
        }
      },
      "asInt128(Witnet.Result)": {
        "params": {
          "_result": "An instance of Result."
        },
        "returns": {
          "_0": "The `int128` decoded from the Result."
        }
      },
      "asInt128Array(Witnet.Result)": {
        "params": {
          "_result": "An instance of Result."
        },
        "returns": {
          "_0": "The `int128[]` decoded from the Result."
        }
      },
      "asRawError(Witnet.Result)": {
        "params": {
          "_result": "An instance of `Result`."
        },
        "returns": {
          "_0": "The `uint64[]` raw error as decoded from the `Result`."
        }
      },
      "asString(Witnet.Result)": {
        "params": {
          "_result": "An instance of Result."
        },
        "returns": {
          "_0": "The `string` decoded from the Result."
        }
      },
      "asStringArray(Witnet.Result)": {
        "params": {
          "_result": "An instance of Result."
        },
        "returns": {
          "_0": "The `string[]` decoded from the Result."
        }
      },
      "asUint64(Witnet.Result)": {
        "params": {
          "_result": "An instance of Result."
        },
        "returns": {
          "_0": "The `uint64` decoded from the Result."
        }
      },
      "asUint64Array(Witnet.Result)": {
        "params": {
          "_result": "An instance of Result."
        },
        "returns": {
          "_0": "The `uint64[]` decoded from the Result."
        }
      },
      "isError(Witnet.Result)": {
        "params": {
          "_result": "An instance of Result."
        },
        "returns": {
          "_0": "`true` if errored, `false` if successful."
        }
      },
      "isOk(Witnet.Result)": {
        "params": {
          "_result": "An instance of Result."
        },
        "returns": {
          "_0": "`true` if successful, `false` if errored."
        }
      },
      "resultFromCborBytes(bytes)": {
        "params": {
          "_cborBytes": "Raw bytes representing a CBOR-encoded value."
        },
        "returns": {
          "_0": "A `Result` instance."
        }
      },
      "resultFromCborValue(CBOR.Value)": {
        "params": {
          "_cborValue": "An instance of `CBOR.Value`."
        },
        "returns": {
          "_0": "A `Result` instance."
        }
      },
      "stageName(uint64)": {
        "params": {
          "_stageIndex": "A `uint64` identifying the index of one of the Witnet request stages."
        },
        "returns": {
          "_0": "The name of the matching stage."
        }
      }
    },
    "title": "A library for decoding Witnet request results",
    "version": 1
  },
  "userdoc": {
    "kind": "user",
    "methods": {
      "asBool(Witnet.Result)": {
        "notice": "Decode a boolean value from a Result as an `bool` value."
      },
      "asBytes(Witnet.Result)": {
        "notice": "Decode a bytes value from a Result as a `bytes` value."
      },
      "asErrorCode(Witnet.Result)": {
        "notice": "Decode an error code from a Result as a member of `ErrorCodes`."
      },
      "asErrorMessage(Witnet.Result)": {
        "notice": "Generate a suitable error message for a member of `ErrorCodes` and its corresponding arguments."
      },
      "asFixed16(Witnet.Result)": {
        "notice": "Decode a fixed16 (half-precision) numeric value from a Result as an `int32` value."
      },
      "asFixed16Array(Witnet.Result)": {
        "notice": "Decode an array of fixed16 values from a Result as an `int128[]` value."
      },
      "asInt128(Witnet.Result)": {
        "notice": "Decode a integer numeric value from a Result as an `int128` value."
      },
      "asInt128Array(Witnet.Result)": {
        "notice": "Decode an array of integer numeric values from a Result as an `int128[]` value."
      },
      "asRawError(Witnet.Result)": {
        "notice": "Decode a raw error from a `Result` as a `uint64[]`."
      },
      "asString(Witnet.Result)": {
        "notice": "Decode a string value from a Result as a `string` value."
      },
      "asStringArray(Witnet.Result)": {
        "notice": "Decode an array of string values from a Result as a `string[]` value."
      },
      "asUint64(Witnet.Result)": {
        "notice": "Decode a natural numeric value from a Result as a `uint64` value."
      },
      "asUint64Array(Witnet.Result)": {
        "notice": "Decode an array of natural numeric values from a Result as a `uint64[]` value."
      },
      "isError(Witnet.Result)": {
        "notice": "Tell if a Result is errored."
      },
      "isOk(Witnet.Result)": {
        "notice": "Tell if a Result is successful."
      },
      "resultFromCborBytes(bytes)": {
        "notice": "Decode raw CBOR bytes into a Result instance."
      },
      "resultFromCborValue(CBOR.Value)": {
        "notice": "Decode a CBOR value into a Result instance."
      },
      "stageName(uint64)": {
        "notice": "Convert a stage index number into the name of the matching Witnet request stage."
      }
    },
    "notice": "The library exposes functions to check the Witnet request success. and retrieve Witnet results from CBOR values into solidity types.",
    "version": 1
  }
}