{
  "contractName": "WitnetRequestBoardProxy",
  "abi": [
    {
      "inputs": [
        {
          "internalType": "address",
          "name": "_witnetRequestBoardAddress",
          "type": "address"
        }
      ],
      "stateMutability": "nonpayable",
      "type": "constructor"
    },
    {
      "inputs": [],
      "name": "currentWitnetRequestBoard",
      "outputs": [
        {
          "internalType": "contract WitnetRequestBoardInterface",
          "name": "",
          "type": "address"
        }
      ],
      "stateMutability": "view",
      "type": "function"
    },
    {
      "inputs": [
        {
          "internalType": "address",
          "name": "_requestAddress",
          "type": "address"
        }
      ],
      "name": "postDataRequest",
      "outputs": [
        {
          "internalType": "uint256",
          "name": "",
          "type": "uint256"
        }
      ],
      "stateMutability": "payable",
      "type": "function"
    },
    {
      "inputs": [
        {
          "internalType": "uint256",
          "name": "_id",
          "type": "uint256"
        }
      ],
      "name": "upgradeDataRequest",
      "outputs": [],
      "stateMutability": "payable",
      "type": "function"
    },
    {
      "inputs": [
        {
          "internalType": "uint256",
          "name": "_id",
          "type": "uint256"
        }
      ],
      "name": "readDrTxHash",
      "outputs": [
        {
          "internalType": "uint256",
          "name": "",
          "type": "uint256"
        }
      ],
      "stateMutability": "view",
      "type": "function"
    },
    {
      "inputs": [
        {
          "internalType": "uint256",
          "name": "_id",
          "type": "uint256"
        }
      ],
      "name": "readResult",
      "outputs": [
        {
          "internalType": "bytes",
          "name": "",
          "type": "bytes"
        }
      ],
      "stateMutability": "view",
      "type": "function"
    },
    {
      "inputs": [
        {
          "internalType": "uint256",
          "name": "_gasPrice",
          "type": "uint256"
        }
      ],
      "name": "estimateGasCost",
      "outputs": [
        {
          "internalType": "uint256",
          "name": "",
          "type": "uint256"
        }
      ],
      "stateMutability": "view",
      "type": "function"
    },
    {
      "inputs": [
        {
          "internalType": "address",
          "name": "_newAddress",
          "type": "address"
        }
      ],
      "name": "upgradeWitnetRequestBoard",
      "outputs": [],
      "stateMutability": "nonpayable",
      "type": "function"
    }
  ],
  "bytecode": "0x608060405234801561001057600080fd5b50604051610b50380380610b5083398101604081905261002f916100d0565b604080518082019091526001600160a01b0391821680825260006020830181815260028054600181018255818452945194027f405787fa12a823e0f2b7631cc41b3ba8828b3321ca811111fa75cd3aa3bb5ace81018054959096166001600160a01b031995861617909555517f405787fa12a823e0f2b7631cc41b3ba8828b3321ca811111fa75cd3aa3bb5acf9094019390935582549091161790556100fe565b6000602082840312156100e1578081fd5b81516001600160a01b03811681146100f7578182fd5b9392505050565b610a438061010d6000396000f3fe6080604052600436106100705760003560e01c806347b1e79b1161004e57806347b1e79b1461010d57806375f0fea91461012f57806380a1376f14610142578063bd4725a61461015557600080fd5b80630fe9e634146100755780633462bc1e146100b257806345b3d782146100e0575b600080fd5b34801561008157600080fd5b50600054610095906001600160a01b031681565b6040516001600160a01b0390911681526020015b60405180910390f35b3480156100be57600080fd5b506100d26100cd366004610908565b610175565b6040519081526020016100a9565b3480156100ec57600080fd5b506101006100fb366004610908565b61021a565b6040516100a99190610938565b34801561011957600080fd5b5061012d610128366004610811565b6102b9565b005b6100d261013d366004610811565b6104e3565b61012d610150366004610908565b6105c5565b34801561016157600080fd5b506100d2610170366004610908565b610647565b6000806000610183846106ca565b909250905060006001600160a01b038316633462bc1e6101a38488610983565b6040518263ffffffff1660e01b81526004016101c191815260200190565b60206040518083038186803b1580156101d957600080fd5b505afa1580156101ed573d6000803e3d6000fd5b505050506040513d601f19601f820116820180604052508101906102119190610920565b95945050505050565b6060600080610228846106ca565b9092509050816001600160a01b0381166345b3d7826102478488610983565b6040518263ffffffff1660e01b815260040161026591815260200190565b60006040518083038186803b15801561027d57600080fd5b505afa158015610291573d6000803e3d6000fd5b505050506040513d6000823e601f3d908101601f19168201604052610211919081019061085f565b60005481906001600160a01b03808316911614156103525760405162461bcd60e51b815260206004820152604560248201527f5468652070726f7669646564205769746e657420526571756573747320426f6160448201527f726420696e7374616e6365206164647265737320697320616c726561647920696064820152646e2075736560d81b608482015260a4015b60405180910390fd5b60005460405163be2adb3560e01b81523360048201526001600160a01b039091169063be2adb359060240160206040518083038186803b15801561039557600080fd5b505afa1580156103a9573d6000803e3d6000fd5b505050506040513d601f19601f820116820180604052508101906103cd919061083f565b61043f5760405162461bcd60e51b815260206004820152603b60248201527f546865207570677261646520686173206265656e2072656a656374656420627960448201527f207468652063757272656e7420696d706c656d656e746174696f6e00000000006064820152608401610349565b50604080518082019091526001600160a01b0391821680825260018054602084019081526002805492830181556000818152945192027f405787fa12a823e0f2b7631cc41b3ba8828b3321ca811111fa75cd3aa3bb5ace81018054939096166001600160a01b031993841617909555517f405787fa12a823e0f2b7631cc41b3ba8828b3321ca811111fa75cd3aa3bb5acf9094019390935581549092169091179055565b6002805460009182906104f7600184610983565b8154811061051557634e487b7160e01b600052603260045260246000fd5b600091825260208220600291909102016001015490546040516375f0fea960e01b81526001600160a01b0387811660048301529293508392909116906375f0fea99034906024016020604051808303818588803b15801561057557600080fd5b505af1158015610589573d6000803e3d6000fd5b50505050506040513d601f19601f820116820180604052508101906105ae9190610920565b6105b8919061096b565b6001819055949350505050565b6000806105d1836106ca565b60005491935091506001600160a01b03166380a1376f346105f28487610983565b6040518363ffffffff1660e01b815260040161061091815260200190565b6000604051808303818588803b15801561062957600080fd5b505af115801561063d573d6000803e3d6000fd5b5050505050505050565b60008054604051635ea392d360e11b8152600481018490526001600160a01b039091169063bd4725a69060240160206040518083038186803b15801561068c57600080fd5b505afa1580156106a0573d6000803e3d6000fd5b505050506040513d601f19601f820116820180604052508101906106c49190610920565b92915050565b6000806000831161071d5760405162461bcd60e51b815260206004820181905260248201527f4e6f6e2d6578697374656e7420636f6e74726f6c6c657220666f7220696420306044820152606401610349565b600254805b801561080a576002610735600183610983565b8154811061075357634e487b7160e01b600052603260045260246000fd5b9060005260206000209060020201600101548511156107f8576002610779600183610983565b8154811061079757634e487b7160e01b600052603260045260246000fd5b60009182526020909120600291820201546001600160a01b0316906107bd600184610983565b815481106107db57634e487b7160e01b600052603260045260246000fd5b906000526020600020906002020160010154935093505050915091565b80610802816109ca565b915050610722565b5050915091565b600060208284031215610822578081fd5b81356001600160a01b0381168114610838578182fd5b9392505050565b600060208284031215610850578081fd5b81518015158114610838578182fd5b600060208284031215610870578081fd5b815167ffffffffffffffff80821115610887578283fd5b818401915084601f83011261089a578283fd5b8151818111156108ac576108ac6109f7565b604051601f8201601f19908116603f011681019083821181831017156108d4576108d46109f7565b816040528281528760208487010111156108ec578586fd5b6108fd83602083016020880161099a565b979650505050505050565b600060208284031215610919578081fd5b5035919050565b600060208284031215610931578081fd5b5051919050565b602081526000825180602084015261095781604085016020870161099a565b601f01601f19169190910160400192915050565b6000821982111561097e5761097e6109e1565b500190565b600082821015610995576109956109e1565b500390565b60005b838110156109b557818101518382015260200161099d565b838111156109c4576000848401525b50505050565b6000816109d9576109d96109e1565b506000190190565b634e487b7160e01b600052601160045260246000fd5b634e487b7160e01b600052604160045260246000fdfea2646970667358221220c6ff63bf78bf3ff097b28b1bc4c69a477a8555f97cc93faa6fb3f7d6d37f8f1564736f6c63430008040033",
  "immutableReferences": {},
  "source": "// SPDX-License-Identifier: MIT\n\npragma solidity >=0.7.0 <0.9.0;\n\n\nimport \"./WitnetRequestBoardInterface.sol\";\n\n\n/**\n * @title Witnet Request Board Proxy\n * @notice Contract to act as a proxy between the Witnet Bridge Interface and Contracts inheriting UsingWitnet.\n * @author Witnet Foundation\n */\ncontract WitnetRequestBoardProxy {\n\n  // Struct if the information of each controller\n  struct ControllerInfo {\n    // Address of the Controller\n    address controllerAddress;\n    // The lastId of the previous Controller\n    uint256 lastId;\n  }\n\n  // Witnet Request Board contract that is currently being used\n  WitnetRequestBoardInterface public currentWitnetRequestBoard;\n\n  // Last id of the WRB controller\n  uint256 internal currentLastId;\n\n  // Array with the controllers that have been used in the Proxy\n  ControllerInfo[] internal controllers;\n\n  modifier notIdentical(address _newAddress) {\n    require(_newAddress != address(currentWitnetRequestBoard), \"The provided Witnet Requests Board instance address is already in use\");\n    _;\n  }\n\n /**\n  * @notice Include an address to specify the Witnet Request Board.\n  * @param _witnetRequestBoardAddress WitnetRequestBoard address.\n  */\n  constructor(address _witnetRequestBoardAddress) {\n    // Initialize the first epoch pointing to the first controller\n    controllers.push(ControllerInfo({controllerAddress: _witnetRequestBoardAddress, lastId: 0}));\n    currentWitnetRequestBoard = WitnetRequestBoardInterface(_witnetRequestBoardAddress);\n  }\n\n  /// @dev Posts a data request into the WRB in expectation that it will be relayed and resolved in Witnet with a total reward that equals to msg.value.\n  /// @param _requestAddress The request contract address which includes the request bytecode.\n  /// @return The unique identifier of the data request.\n  function postDataRequest(address _requestAddress) external payable returns(uint256) {\n    uint256 n = controllers.length;\n    uint256 offset = controllers[n - 1].lastId;\n    // Update the currentLastId with the id in the controller plus the offSet\n    currentLastId = currentWitnetRequestBoard.postDataRequest{value: msg.value}(_requestAddress) + offset;\n    return currentLastId;\n  }\n\n  /// @dev Increments the reward of a data request by adding the transaction value to it.\n  /// @param _id The unique identifier of the data request.\n  function upgradeDataRequest(uint256 _id) external payable {\n    address wrbAddress;\n    uint256 wrbOffset;\n    (wrbAddress, wrbOffset) = getController(_id);\n    return currentWitnetRequestBoard.upgradeDataRequest{value: msg.value}(_id - wrbOffset);\n  }\n\n  /// @dev Retrieves the DR transaction hash of the id from the WRB.\n  /// @param _id The unique identifier of the data request.\n  /// @return The transaction hash of the DR.\n  function readDrTxHash (uint256 _id)\n    external\n    view\n  returns(uint256)\n  {\n    // Get the address and the offset of the corresponding to id\n    (address wrbAddress, uint256 offsetWrb) = getController(_id);\n    // Return the result of the DR readed in the corresponding Controller with its own id\n    uint256 drTxHash = WitnetRequestBoardInterface(wrbAddress).readDrTxHash(_id - offsetWrb);\n    return drTxHash;\n  }\n\n  /// @dev Retrieves the result (if already available) of one data request from the WRB.\n  /// @param _id The unique identifier of the data request.\n  /// @return The result of the DR.\n  function readResult(uint256 _id) external view returns(bytes memory) {\n    // Get the address and the offset of the corresponding to id\n    address wrbAddress;\n    uint256 offSetWrb;\n    (wrbAddress, offSetWrb) = getController(_id);\n    // Return the result of the DR in the corresponding Controller with its own id\n    WitnetRequestBoardInterface wrbWithResult;\n    wrbWithResult = WitnetRequestBoardInterface(wrbAddress);\n    return wrbWithResult.readResult(_id - offSetWrb);\n  }\n\n  /// @dev Estimate the amount of reward we need to insert for a given gas price.\n  /// @param _gasPrice The gas price for which we need to calculate the reward.\n  /// @return The reward to be included for the given gas price.\n  function estimateGasCost(uint256 _gasPrice) external view returns(uint256) {\n    return currentWitnetRequestBoard.estimateGasCost(_gasPrice);\n  }\n\n  /// @notice Upgrades the Witnet Requests Board if the current one is upgradeable.\n  /// @param _newAddress address of the new block relay to upgrade.\n  function upgradeWitnetRequestBoard(address _newAddress) external notIdentical(_newAddress) {\n    // Require the WRB is upgradable\n    require(currentWitnetRequestBoard.isUpgradable(msg.sender), \"The upgrade has been rejected by the current implementation\");\n    // Map the currentLastId to the corresponding witnetRequestBoardAddress and add it to controllers\n    controllers.push(ControllerInfo({controllerAddress: _newAddress, lastId: currentLastId}));\n    // Upgrade the WRB\n    currentWitnetRequestBoard = WitnetRequestBoardInterface(_newAddress);\n  }\n\n  /// @notice Gets the controller from an Id.\n  /// @param _id id of a Data Request from which we get the controller.\n  function getController(uint256 _id) internal view returns(address _controllerAddress, uint256 _offset) {\n    // Check id is bigger than 0\n    require(_id > 0, \"Non-existent controller for id 0\");\n\n    uint256 n = controllers.length;\n    // If the id is bigger than the lastId of a Controller, read the result in that Controller\n    for (uint i = n; i > 0; i--) {\n      if (_id > controllers[i - 1].lastId) {\n        return (controllers[i - 1].controllerAddress, controllers[i - 1].lastId);\n      }\n    }\n  }\n\n}\n",
  "sourcePath": "/home/ay/harmony/lottery/node_modules/witnet-ethereum-bridge/contracts/WitnetRequestBoardProxy.sol",
  "compiler": {
    "name": "solc",
    "version": "0.8.4+commit.c7e474f2.Emscripten.clang"
  },
  "schemaVersion": "3.4.2",
  "updatedAt": "2021-07-25T13:12:32.412Z",
  "devdoc": {
    "author": "Witnet Foundation",
    "kind": "dev",
    "methods": {
      "constructor": {
        "params": {
          "_witnetRequestBoardAddress": "WitnetRequestBoard address."
        }
      },
      "estimateGasCost(uint256)": {
        "details": "Estimate the amount of reward we need to insert for a given gas price.",
        "params": {
          "_gasPrice": "The gas price for which we need to calculate the reward."
        },
        "returns": {
          "_0": "The reward to be included for the given gas price."
        }
      },
      "postDataRequest(address)": {
        "details": "Posts a data request into the WRB in expectation that it will be relayed and resolved in Witnet with a total reward that equals to msg.value.",
        "params": {
          "_requestAddress": "The request contract address which includes the request bytecode."
        },
        "returns": {
          "_0": "The unique identifier of the data request."
        }
      },
      "readDrTxHash(uint256)": {
        "details": "Retrieves the DR transaction hash of the id from the WRB.",
        "params": {
          "_id": "The unique identifier of the data request."
        },
        "returns": {
          "_0": "The transaction hash of the DR."
        }
      },
      "readResult(uint256)": {
        "details": "Retrieves the result (if already available) of one data request from the WRB.",
        "params": {
          "_id": "The unique identifier of the data request."
        },
        "returns": {
          "_0": "The result of the DR."
        }
      },
      "upgradeDataRequest(uint256)": {
        "details": "Increments the reward of a data request by adding the transaction value to it.",
        "params": {
          "_id": "The unique identifier of the data request."
        }
      },
      "upgradeWitnetRequestBoard(address)": {
        "params": {
          "_newAddress": "address of the new block relay to upgrade."
        }
      }
    },
    "title": "Witnet Request Board Proxy",
    "version": 1
  },
  "userdoc": {
    "kind": "user",
    "methods": {
      "constructor": {
        "notice": "Include an address to specify the Witnet Request Board."
      },
      "upgradeWitnetRequestBoard(address)": {
        "notice": "Upgrades the Witnet Requests Board if the current one is upgradeable."
      }
    },
    "notice": "Contract to act as a proxy between the Witnet Bridge Interface and Contracts inheriting UsingWitnet.",
    "version": 1
  }
}