{
  "contractName": "Witnet",
  "abi": [
    {
      "inputs": [
        {
          "internalType": "bytes",
          "name": "_cborBytes",
          "type": "bytes"
        }
      ],
      "name": "resultFromCborBytes",
      "outputs": [
        {
          "components": [
            {
              "internalType": "bool",
              "name": "success",
              "type": "bool"
            },
            {
              "components": [
                {
                  "components": [
                    {
                      "internalType": "bytes",
                      "name": "data",
                      "type": "bytes"
                    },
                    {
                      "internalType": "uint32",
                      "name": "cursor",
                      "type": "uint32"
                    }
                  ],
                  "internalType": "struct BufferLib.Buffer",
                  "name": "buffer",
                  "type": "tuple"
                },
                {
                  "internalType": "uint8",
                  "name": "initialByte",
                  "type": "uint8"
                },
                {
                  "internalType": "uint8",
                  "name": "majorType",
                  "type": "uint8"
                },
                {
                  "internalType": "uint8",
                  "name": "additionalInformation",
                  "type": "uint8"
                },
                {
                  "internalType": "uint64",
                  "name": "len",
                  "type": "uint64"
                },
                {
                  "internalType": "uint64",
                  "name": "tag",
                  "type": "uint64"
                }
              ],
              "internalType": "struct CBOR.Value",
              "name": "cborValue",
              "type": "tuple"
            }
          ],
          "internalType": "struct Witnet.Result",
          "name": "",
          "type": "tuple"
        }
      ],
      "stateMutability": "pure",
      "type": "function"
    },
    {
      "inputs": [
        {
          "components": [
            {
              "components": [
                {
                  "internalType": "bytes",
                  "name": "data",
                  "type": "bytes"
                },
                {
                  "internalType": "uint32",
                  "name": "cursor",
                  "type": "uint32"
                }
              ],
              "internalType": "struct BufferLib.Buffer",
              "name": "buffer",
              "type": "tuple"
            },
            {
              "internalType": "uint8",
              "name": "initialByte",
              "type": "uint8"
            },
            {
              "internalType": "uint8",
              "name": "majorType",
              "type": "uint8"
            },
            {
              "internalType": "uint8",
              "name": "additionalInformation",
              "type": "uint8"
            },
            {
              "internalType": "uint64",
              "name": "len",
              "type": "uint64"
            },
            {
              "internalType": "uint64",
              "name": "tag",
              "type": "uint64"
            }
          ],
          "internalType": "struct CBOR.Value",
          "name": "_cborValue",
          "type": "tuple"
        }
      ],
      "name": "resultFromCborValue",
      "outputs": [
        {
          "components": [
            {
              "internalType": "bool",
              "name": "success",
              "type": "bool"
            },
            {
              "components": [
                {
                  "components": [
                    {
                      "internalType": "bytes",
                      "name": "data",
                      "type": "bytes"
                    },
                    {
                      "internalType": "uint32",
                      "name": "cursor",
                      "type": "uint32"
                    }
                  ],
                  "internalType": "struct BufferLib.Buffer",
                  "name": "buffer",
                  "type": "tuple"
                },
                {
                  "internalType": "uint8",
                  "name": "initialByte",
                  "type": "uint8"
                },
                {
                  "internalType": "uint8",
                  "name": "majorType",
                  "type": "uint8"
                },
                {
                  "internalType": "uint8",
                  "name": "additionalInformation",
                  "type": "uint8"
                },
                {
                  "internalType": "uint64",
                  "name": "len",
                  "type": "uint64"
                },
                {
                  "internalType": "uint64",
                  "name": "tag",
                  "type": "uint64"
                }
              ],
              "internalType": "struct CBOR.Value",
              "name": "cborValue",
              "type": "tuple"
            }
          ],
          "internalType": "struct Witnet.Result",
          "name": "",
          "type": "tuple"
        }
      ],
      "stateMutability": "pure",
      "type": "function"
    },
    {
      "inputs": [
        {
          "components": [
            {
              "internalType": "bool",
              "name": "success",
              "type": "bool"
            },
            {
              "components": [
                {
                  "components": [
                    {
                      "internalType": "bytes",
                      "name": "data",
                      "type": "bytes"
                    },
                    {
                      "internalType": "uint32",
                      "name": "cursor",
                      "type": "uint32"
                    }
                  ],
                  "internalType": "struct BufferLib.Buffer",
                  "name": "buffer",
                  "type": "tuple"
                },
                {
                  "internalType": "uint8",
                  "name": "initialByte",
                  "type": "uint8"
                },
                {
                  "internalType": "uint8",
                  "name": "majorType",
                  "type": "uint8"
                },
                {
                  "internalType": "uint8",
                  "name": "additionalInformation",
                  "type": "uint8"
                },
                {
                  "internalType": "uint64",
                  "name": "len",
                  "type": "uint64"
                },
                {
                  "internalType": "uint64",
                  "name": "tag",
                  "type": "uint64"
                }
              ],
              "internalType": "struct CBOR.Value",
              "name": "cborValue",
              "type": "tuple"
            }
          ],
          "internalType": "struct Witnet.Result",
          "name": "_result",
          "type": "tuple"
        }
      ],
      "name": "isOk",
      "outputs": [
        {
          "internalType": "bool",
          "name": "",
          "type": "bool"
        }
      ],
      "stateMutability": "pure",
      "type": "function"
    },
    {
      "inputs": [
        {
          "components": [
            {
              "internalType": "bool",
              "name": "success",
              "type": "bool"
            },
            {
              "components": [
                {
                  "components": [
                    {
                      "internalType": "bytes",
                      "name": "data",
                      "type": "bytes"
                    },
                    {
                      "internalType": "uint32",
                      "name": "cursor",
                      "type": "uint32"
                    }
                  ],
                  "internalType": "struct BufferLib.Buffer",
                  "name": "buffer",
                  "type": "tuple"
                },
                {
                  "internalType": "uint8",
                  "name": "initialByte",
                  "type": "uint8"
                },
                {
                  "internalType": "uint8",
                  "name": "majorType",
                  "type": "uint8"
                },
                {
                  "internalType": "uint8",
                  "name": "additionalInformation",
                  "type": "uint8"
                },
                {
                  "internalType": "uint64",
                  "name": "len",
                  "type": "uint64"
                },
                {
                  "internalType": "uint64",
                  "name": "tag",
                  "type": "uint64"
                }
              ],
              "internalType": "struct CBOR.Value",
              "name": "cborValue",
              "type": "tuple"
            }
          ],
          "internalType": "struct Witnet.Result",
          "name": "_result",
          "type": "tuple"
        }
      ],
      "name": "isError",
      "outputs": [
        {
          "internalType": "bool",
          "name": "",
          "type": "bool"
        }
      ],
      "stateMutability": "pure",
      "type": "function"
    },
    {
      "inputs": [
        {
          "components": [
            {
              "internalType": "bool",
              "name": "success",
              "type": "bool"
            },
            {
              "components": [
                {
                  "components": [
                    {
                      "internalType": "bytes",
                      "name": "data",
                      "type": "bytes"
                    },
                    {
                      "internalType": "uint32",
                      "name": "cursor",
                      "type": "uint32"
                    }
                  ],
                  "internalType": "struct BufferLib.Buffer",
                  "name": "buffer",
                  "type": "tuple"
                },
                {
                  "internalType": "uint8",
                  "name": "initialByte",
                  "type": "uint8"
                },
                {
                  "internalType": "uint8",
                  "name": "majorType",
                  "type": "uint8"
                },
                {
                  "internalType": "uint8",
                  "name": "additionalInformation",
                  "type": "uint8"
                },
                {
                  "internalType": "uint64",
                  "name": "len",
                  "type": "uint64"
                },
                {
                  "internalType": "uint64",
                  "name": "tag",
                  "type": "uint64"
                }
              ],
              "internalType": "struct CBOR.Value",
              "name": "cborValue",
              "type": "tuple"
            }
          ],
          "internalType": "struct Witnet.Result",
          "name": "_result",
          "type": "tuple"
        }
      ],
      "name": "asBytes",
      "outputs": [
        {
          "internalType": "bytes",
          "name": "",
          "type": "bytes"
        }
      ],
      "stateMutability": "pure",
      "type": "function"
    },
    {
      "inputs": [
        {
          "components": [
            {
              "internalType": "bool",
              "name": "success",
              "type": "bool"
            },
            {
              "components": [
                {
                  "components": [
                    {
                      "internalType": "bytes",
                      "name": "data",
                      "type": "bytes"
                    },
                    {
                      "internalType": "uint32",
                      "name": "cursor",
                      "type": "uint32"
                    }
                  ],
                  "internalType": "struct BufferLib.Buffer",
                  "name": "buffer",
                  "type": "tuple"
                },
                {
                  "internalType": "uint8",
                  "name": "initialByte",
                  "type": "uint8"
                },
                {
                  "internalType": "uint8",
                  "name": "majorType",
                  "type": "uint8"
                },
                {
                  "internalType": "uint8",
                  "name": "additionalInformation",
                  "type": "uint8"
                },
                {
                  "internalType": "uint64",
                  "name": "len",
                  "type": "uint64"
                },
                {
                  "internalType": "uint64",
                  "name": "tag",
                  "type": "uint64"
                }
              ],
              "internalType": "struct CBOR.Value",
              "name": "cborValue",
              "type": "tuple"
            }
          ],
          "internalType": "struct Witnet.Result",
          "name": "_result",
          "type": "tuple"
        }
      ],
      "name": "asErrorCode",
      "outputs": [
        {
          "internalType": "enum Witnet.ErrorCodes",
          "name": "",
          "type": "Witnet.ErrorCodes"
        }
      ],
      "stateMutability": "pure",
      "type": "function"
    },
    {
      "inputs": [
        {
          "components": [
            {
              "internalType": "bool",
              "name": "success",
              "type": "bool"
            },
            {
              "components": [
                {
                  "components": [
                    {
                      "internalType": "bytes",
                      "name": "data",
                      "type": "bytes"
                    },
                    {
                      "internalType": "uint32",
                      "name": "cursor",
                      "type": "uint32"
                    }
                  ],
                  "internalType": "struct BufferLib.Buffer",
                  "name": "buffer",
                  "type": "tuple"
                },
                {
                  "internalType": "uint8",
                  "name": "initialByte",
                  "type": "uint8"
                },
                {
                  "internalType": "uint8",
                  "name": "majorType",
                  "type": "uint8"
                },
                {
                  "internalType": "uint8",
                  "name": "additionalInformation",
                  "type": "uint8"
                },
                {
                  "internalType": "uint64",
                  "name": "len",
                  "type": "uint64"
                },
                {
                  "internalType": "uint64",
                  "name": "tag",
                  "type": "uint64"
                }
              ],
              "internalType": "struct CBOR.Value",
              "name": "cborValue",
              "type": "tuple"
            }
          ],
          "internalType": "struct Witnet.Result",
          "name": "_result",
          "type": "tuple"
        }
      ],
      "name": "asErrorMessage",
      "outputs": [
        {
          "internalType": "enum Witnet.ErrorCodes",
          "name": "",
          "type": "Witnet.ErrorCodes"
        },
        {
          "internalType": "string",
          "name": "",
          "type": "string"
        }
      ],
      "stateMutability": "pure",
      "type": "function"
    },
    {
      "inputs": [
        {
          "components": [
            {
              "internalType": "bool",
              "name": "success",
              "type": "bool"
            },
            {
              "components": [
                {
                  "components": [
                    {
                      "internalType": "bytes",
                      "name": "data",
                      "type": "bytes"
                    },
                    {
                      "internalType": "uint32",
                      "name": "cursor",
                      "type": "uint32"
                    }
                  ],
                  "internalType": "struct BufferLib.Buffer",
                  "name": "buffer",
                  "type": "tuple"
                },
                {
                  "internalType": "uint8",
                  "name": "initialByte",
                  "type": "uint8"
                },
                {
                  "internalType": "uint8",
                  "name": "majorType",
                  "type": "uint8"
                },
                {
                  "internalType": "uint8",
                  "name": "additionalInformation",
                  "type": "uint8"
                },
                {
                  "internalType": "uint64",
                  "name": "len",
                  "type": "uint64"
                },
                {
                  "internalType": "uint64",
                  "name": "tag",
                  "type": "uint64"
                }
              ],
              "internalType": "struct CBOR.Value",
              "name": "cborValue",
              "type": "tuple"
            }
          ],
          "internalType": "struct Witnet.Result",
          "name": "_result",
          "type": "tuple"
        }
      ],
      "name": "asRawError",
      "outputs": [
        {
          "internalType": "uint64[]",
          "name": "",
          "type": "uint64[]"
        }
      ],
      "stateMutability": "pure",
      "type": "function"
    },
    {
      "inputs": [
        {
          "components": [
            {
              "internalType": "bool",
              "name": "success",
              "type": "bool"
            },
            {
              "components": [
                {
                  "components": [
                    {
                      "internalType": "bytes",
                      "name": "data",
                      "type": "bytes"
                    },
                    {
                      "internalType": "uint32",
                      "name": "cursor",
                      "type": "uint32"
                    }
                  ],
                  "internalType": "struct BufferLib.Buffer",
                  "name": "buffer",
                  "type": "tuple"
                },
                {
                  "internalType": "uint8",
                  "name": "initialByte",
                  "type": "uint8"
                },
                {
                  "internalType": "uint8",
                  "name": "majorType",
                  "type": "uint8"
                },
                {
                  "internalType": "uint8",
                  "name": "additionalInformation",
                  "type": "uint8"
                },
                {
                  "internalType": "uint64",
                  "name": "len",
                  "type": "uint64"
                },
                {
                  "internalType": "uint64",
                  "name": "tag",
                  "type": "uint64"
                }
              ],
              "internalType": "struct CBOR.Value",
              "name": "cborValue",
              "type": "tuple"
            }
          ],
          "internalType": "struct Witnet.Result",
          "name": "_result",
          "type": "tuple"
        }
      ],
      "name": "asBool",
      "outputs": [
        {
          "internalType": "bool",
          "name": "",
          "type": "bool"
        }
      ],
      "stateMutability": "pure",
      "type": "function"
    },
    {
      "inputs": [
        {
          "components": [
            {
              "internalType": "bool",
              "name": "success",
              "type": "bool"
            },
            {
              "components": [
                {
                  "components": [
                    {
                      "internalType": "bytes",
                      "name": "data",
                      "type": "bytes"
                    },
                    {
                      "internalType": "uint32",
                      "name": "cursor",
                      "type": "uint32"
                    }
                  ],
                  "internalType": "struct BufferLib.Buffer",
                  "name": "buffer",
                  "type": "tuple"
                },
                {
                  "internalType": "uint8",
                  "name": "initialByte",
                  "type": "uint8"
                },
                {
                  "internalType": "uint8",
                  "name": "majorType",
                  "type": "uint8"
                },
                {
                  "internalType": "uint8",
                  "name": "additionalInformation",
                  "type": "uint8"
                },
                {
                  "internalType": "uint64",
                  "name": "len",
                  "type": "uint64"
                },
                {
                  "internalType": "uint64",
                  "name": "tag",
                  "type": "uint64"
                }
              ],
              "internalType": "struct CBOR.Value",
              "name": "cborValue",
              "type": "tuple"
            }
          ],
          "internalType": "struct Witnet.Result",
          "name": "_result",
          "type": "tuple"
        }
      ],
      "name": "asFixed16",
      "outputs": [
        {
          "internalType": "int32",
          "name": "",
          "type": "int32"
        }
      ],
      "stateMutability": "pure",
      "type": "function"
    },
    {
      "inputs": [
        {
          "components": [
            {
              "internalType": "bool",
              "name": "success",
              "type": "bool"
            },
            {
              "components": [
                {
                  "components": [
                    {
                      "internalType": "bytes",
                      "name": "data",
                      "type": "bytes"
                    },
                    {
                      "internalType": "uint32",
                      "name": "cursor",
                      "type": "uint32"
                    }
                  ],
                  "internalType": "struct BufferLib.Buffer",
                  "name": "buffer",
                  "type": "tuple"
                },
                {
                  "internalType": "uint8",
                  "name": "initialByte",
                  "type": "uint8"
                },
                {
                  "internalType": "uint8",
                  "name": "majorType",
                  "type": "uint8"
                },
                {
                  "internalType": "uint8",
                  "name": "additionalInformation",
                  "type": "uint8"
                },
                {
                  "internalType": "uint64",
                  "name": "len",
                  "type": "uint64"
                },
                {
                  "internalType": "uint64",
                  "name": "tag",
                  "type": "uint64"
                }
              ],
              "internalType": "struct CBOR.Value",
              "name": "cborValue",
              "type": "tuple"
            }
          ],
          "internalType": "struct Witnet.Result",
          "name": "_result",
          "type": "tuple"
        }
      ],
      "name": "asFixed16Array",
      "outputs": [
        {
          "internalType": "int32[]",
          "name": "",
          "type": "int32[]"
        }
      ],
      "stateMutability": "pure",
      "type": "function"
    },
    {
      "inputs": [
        {
          "components": [
            {
              "internalType": "bool",
              "name": "success",
              "type": "bool"
            },
            {
              "components": [
                {
                  "components": [
                    {
                      "internalType": "bytes",
                      "name": "data",
                      "type": "bytes"
                    },
                    {
                      "internalType": "uint32",
                      "name": "cursor",
                      "type": "uint32"
                    }
                  ],
                  "internalType": "struct BufferLib.Buffer",
                  "name": "buffer",
                  "type": "tuple"
                },
                {
                  "internalType": "uint8",
                  "name": "initialByte",
                  "type": "uint8"
                },
                {
                  "internalType": "uint8",
                  "name": "majorType",
                  "type": "uint8"
                },
                {
                  "internalType": "uint8",
                  "name": "additionalInformation",
                  "type": "uint8"
                },
                {
                  "internalType": "uint64",
                  "name": "len",
                  "type": "uint64"
                },
                {
                  "internalType": "uint64",
                  "name": "tag",
                  "type": "uint64"
                }
              ],
              "internalType": "struct CBOR.Value",
              "name": "cborValue",
              "type": "tuple"
            }
          ],
          "internalType": "struct Witnet.Result",
          "name": "_result",
          "type": "tuple"
        }
      ],
      "name": "asInt128",
      "outputs": [
        {
          "internalType": "int128",
          "name": "",
          "type": "int128"
        }
      ],
      "stateMutability": "pure",
      "type": "function"
    },
    {
      "inputs": [
        {
          "components": [
            {
              "internalType": "bool",
              "name": "success",
              "type": "bool"
            },
            {
              "components": [
                {
                  "components": [
                    {
                      "internalType": "bytes",
                      "name": "data",
                      "type": "bytes"
                    },
                    {
                      "internalType": "uint32",
                      "name": "cursor",
                      "type": "uint32"
                    }
                  ],
                  "internalType": "struct BufferLib.Buffer",
                  "name": "buffer",
                  "type": "tuple"
                },
                {
                  "internalType": "uint8",
                  "name": "initialByte",
                  "type": "uint8"
                },
                {
                  "internalType": "uint8",
                  "name": "majorType",
                  "type": "uint8"
                },
                {
                  "internalType": "uint8",
                  "name": "additionalInformation",
                  "type": "uint8"
                },
                {
                  "internalType": "uint64",
                  "name": "len",
                  "type": "uint64"
                },
                {
                  "internalType": "uint64",
                  "name": "tag",
                  "type": "uint64"
                }
              ],
              "internalType": "struct CBOR.Value",
              "name": "cborValue",
              "type": "tuple"
            }
          ],
          "internalType": "struct Witnet.Result",
          "name": "_result",
          "type": "tuple"
        }
      ],
      "name": "asInt128Array",
      "outputs": [
        {
          "internalType": "int128[]",
          "name": "",
          "type": "int128[]"
        }
      ],
      "stateMutability": "pure",
      "type": "function"
    },
    {
      "inputs": [
        {
          "components": [
            {
              "internalType": "bool",
              "name": "success",
              "type": "bool"
            },
            {
              "components": [
                {
                  "components": [
                    {
                      "internalType": "bytes",
                      "name": "data",
                      "type": "bytes"
                    },
                    {
                      "internalType": "uint32",
                      "name": "cursor",
                      "type": "uint32"
                    }
                  ],
                  "internalType": "struct BufferLib.Buffer",
                  "name": "buffer",
                  "type": "tuple"
                },
                {
                  "internalType": "uint8",
                  "name": "initialByte",
                  "type": "uint8"
                },
                {
                  "internalType": "uint8",
                  "name": "majorType",
                  "type": "uint8"
                },
                {
                  "internalType": "uint8",
                  "name": "additionalInformation",
                  "type": "uint8"
                },
                {
                  "internalType": "uint64",
                  "name": "len",
                  "type": "uint64"
                },
                {
                  "internalType": "uint64",
                  "name": "tag",
                  "type": "uint64"
                }
              ],
              "internalType": "struct CBOR.Value",
              "name": "cborValue",
              "type": "tuple"
            }
          ],
          "internalType": "struct Witnet.Result",
          "name": "_result",
          "type": "tuple"
        }
      ],
      "name": "asString",
      "outputs": [
        {
          "internalType": "string",
          "name": "",
          "type": "string"
        }
      ],
      "stateMutability": "pure",
      "type": "function"
    },
    {
      "inputs": [
        {
          "components": [
            {
              "internalType": "bool",
              "name": "success",
              "type": "bool"
            },
            {
              "components": [
                {
                  "components": [
                    {
                      "internalType": "bytes",
                      "name": "data",
                      "type": "bytes"
                    },
                    {
                      "internalType": "uint32",
                      "name": "cursor",
                      "type": "uint32"
                    }
                  ],
                  "internalType": "struct BufferLib.Buffer",
                  "name": "buffer",
                  "type": "tuple"
                },
                {
                  "internalType": "uint8",
                  "name": "initialByte",
                  "type": "uint8"
                },
                {
                  "internalType": "uint8",
                  "name": "majorType",
                  "type": "uint8"
                },
                {
                  "internalType": "uint8",
                  "name": "additionalInformation",
                  "type": "uint8"
                },
                {
                  "internalType": "uint64",
                  "name": "len",
                  "type": "uint64"
                },
                {
                  "internalType": "uint64",
                  "name": "tag",
                  "type": "uint64"
                }
              ],
              "internalType": "struct CBOR.Value",
              "name": "cborValue",
              "type": "tuple"
            }
          ],
          "internalType": "struct Witnet.Result",
          "name": "_result",
          "type": "tuple"
        }
      ],
      "name": "asStringArray",
      "outputs": [
        {
          "internalType": "string[]",
          "name": "",
          "type": "string[]"
        }
      ],
      "stateMutability": "pure",
      "type": "function"
    },
    {
      "inputs": [
        {
          "components": [
            {
              "internalType": "bool",
              "name": "success",
              "type": "bool"
            },
            {
              "components": [
                {
                  "components": [
                    {
                      "internalType": "bytes",
                      "name": "data",
                      "type": "bytes"
                    },
                    {
                      "internalType": "uint32",
                      "name": "cursor",
                      "type": "uint32"
                    }
                  ],
                  "internalType": "struct BufferLib.Buffer",
                  "name": "buffer",
                  "type": "tuple"
                },
                {
                  "internalType": "uint8",
                  "name": "initialByte",
                  "type": "uint8"
                },
                {
                  "internalType": "uint8",
                  "name": "majorType",
                  "type": "uint8"
                },
                {
                  "internalType": "uint8",
                  "name": "additionalInformation",
                  "type": "uint8"
                },
                {
                  "internalType": "uint64",
                  "name": "len",
                  "type": "uint64"
                },
                {
                  "internalType": "uint64",
                  "name": "tag",
                  "type": "uint64"
                }
              ],
              "internalType": "struct CBOR.Value",
              "name": "cborValue",
              "type": "tuple"
            }
          ],
          "internalType": "struct Witnet.Result",
          "name": "_result",
          "type": "tuple"
        }
      ],
      "name": "asUint64",
      "outputs": [
        {
          "internalType": "uint64",
          "name": "",
          "type": "uint64"
        }
      ],
      "stateMutability": "pure",
      "type": "function"
    },
    {
      "inputs": [
        {
          "components": [
            {
              "internalType": "bool",
              "name": "success",
              "type": "bool"
            },
            {
              "components": [
                {
                  "components": [
                    {
                      "internalType": "bytes",
                      "name": "data",
                      "type": "bytes"
                    },
                    {
                      "internalType": "uint32",
                      "name": "cursor",
                      "type": "uint32"
                    }
                  ],
                  "internalType": "struct BufferLib.Buffer",
                  "name": "buffer",
                  "type": "tuple"
                },
                {
                  "internalType": "uint8",
                  "name": "initialByte",
                  "type": "uint8"
                },
                {
                  "internalType": "uint8",
                  "name": "majorType",
                  "type": "uint8"
                },
                {
                  "internalType": "uint8",
                  "name": "additionalInformation",
                  "type": "uint8"
                },
                {
                  "internalType": "uint64",
                  "name": "len",
                  "type": "uint64"
                },
                {
                  "internalType": "uint64",
                  "name": "tag",
                  "type": "uint64"
                }
              ],
              "internalType": "struct CBOR.Value",
              "name": "cborValue",
              "type": "tuple"
            }
          ],
          "internalType": "struct Witnet.Result",
          "name": "_result",
          "type": "tuple"
        }
      ],
      "name": "asUint64Array",
      "outputs": [
        {
          "internalType": "uint64[]",
          "name": "",
          "type": "uint64[]"
        }
      ],
      "stateMutability": "pure",
      "type": "function"
    },
    {
      "inputs": [
        {
          "internalType": "uint64",
          "name": "_stageIndex",
          "type": "uint64"
        }
      ],
      "name": "stageName",
      "outputs": [
        {
          "internalType": "string",
          "name": "",
          "type": "string"
        }
      ],
      "stateMutability": "pure",
      "type": "function"
    }
  ],
  "bytecode": "0x612fca61003a600b82828239805160001a60731461002d57634e487b7160e01b600052600060045260246000fd5b30600052607381538281f3fe73000000000000000000000000000000000000000030146080604052600436106101205760003560e01c8063a1d45d56116100ac578063d45d097d1161007b578063d45d097d146102ae578063d8868db6146102ce578063e99e47f3146102f4578063f417daf514610307578063fc853c371461031a57600080fd5b8063a1d45d561461024f578063abf82f4c14610262578063c71db52114610275578063cb5371c01461029b57600080fd5b80636646c119116100f35780636646c119146101a15780638233f9b3146101c35780638cc5eb54146101ee5780639baae07f1461020f578063a1b908911461022f57600080fd5b80630879730d1461012557806308efc0971461014e578063147e5c8f1461016e5780632d26b9e214610181575b600080fd5b610138610133366004612128565b61033a565b6040516101459190612bfe565b60405180910390f35b61016161015c366004612128565b61043e565b6040516101459190612b62565b61013861017c366004612128565b61053a565b61019461018f366004612128565b6105a6565b6040516101459190612b9d565b6101b36101af366004612128565b5190565b6040519015158152602001610145565b6101d66101d1366004612128565b6106a1565b6040516001600160401b039091168152602001610145565b6102016101fc366004612128565b610796565b604051610145929190612c8f565b61022261021d3660046121a3565b6110e0565b6040516101459190612caf565b61024261023d366004612128565b611114565b6040516101459190612c6e565b6101b361025d366004612128565b511590565b6101b3610270366004612128565b61120a565b610288610283366004612128565b6112fd565b604051600f9190910b8152602001610145565b6102426102a93660046122d4565b6113f2565b6102c16102bc366004612128565b6114bb565b6040516101459190612c81565b6102e16102dc366004612128565b611507565b60405160039190910b8152602001610145565b610222610302366004612056565b6115fd565b610242610315366004612128565b6116a8565b61032d610328366004612128565b61174d565b6040516101459190612b1b565b8051606090156103a95760405162461bcd60e51b815260206004820152602f60248201527f547269656420746f2072656164206572726f7220636f64652066726f6d20737560448201526e18d8d95cdcd99d5b0814995cdd5b1d608a1b60648201526084015b60405180910390fd5b60208201516040516325652e8960e01b815273__CBOR__________________________________916325652e89916103e49190600401612cd6565b60006040518083038186803b1580156103fc57600080fd5b505af4158015610410573d6000803e3d6000fd5b505050506040513d6000823e601f3d908101601f191682016040526104389190810190611fab565b92915050565b80516060906104ab5760405162461bcd60e51b815260206004820152603360248201527f547269656420746f20726561642060666978656431365b5d602076616c756520604482015272199c9bdb48195c9c9bdc99590814995cdd5b1d606a1b60648201526084016103a0565b602082015160405163dcb68ea160e01b815273__CBOR__________________________________9163dcb68ea1916104e69190600401612cd6565b60006040518083038186803b1580156104fe57600080fd5b505af4158015610512573d6000803e3d6000fd5b505050506040513d6000823e601f3d908101601f191682016040526104389190810190611e6e565b80516060906103a95760405162461bcd60e51b815260206004820152603260248201527f547269656420746f2072656164206075696e7436345b5d602076616c756520666044820152711c9bdb48195c9c9bdc99590814995cdd5b1d60721b60648201526084016103a0565b80516060906106125760405162461bcd60e51b815260206004820152603260248201527f547269656420746f20726561642060737472696e675b5d602076616c756520666044820152711c9bdb48195c9c9bdc99590814995cdd5b1d60721b60648201526084016103a0565b6020820151604051636e16eb8160e01b815273__CBOR__________________________________91636e16eb819161064d9190600401612cd6565b60006040518083038186803b15801561066557600080fd5b505af4158015610679573d6000803e3d6000fd5b505050506040513d6000823e601f3d908101601f191682016040526104389190810190611efb565b805160009061070b5760405162461bcd60e51b815260206004820152603060248201527f547269656420746f2072656164206075696e743634602076616c75652066726f60448201526f1b48195c9c9bdc99590814995cdd5b1d60821b60648201526084016103a0565b602082015160405163d9aee20960e01b815273__CBOR__________________________________9163d9aee209916107469190600401612cd6565b60206040518083038186803b15801561075e57600080fd5b505af4158015610772573d6000803e3d6000fd5b505050506040513d601f19601f8201168201806040525081019061043891906122f0565b6000606060006107a58461033a565b90508051600014156107f35760006040518060400160405280601d81526020017f556e6b6e6f776e206572726f7220286e6f206572726f7220636f6465290000008152509250925050915091565b60006108268260008151811061081957634e487b7160e01b600052603260045260246000fd5b6020026020010151611848565b9050606060018260ff81111561084c57634e487b7160e01b600052602160045260246000fd5b14801561085b57506002835110155b156108b7576108918360018151811061088457634e487b7160e01b600052603260045260246000fd5b6020026020010151611873565b6040516020016108a191906125e7565b60405160208183030381529060405290506110d5565b60028260ff8111156108d957634e487b7160e01b600052602160045260246000fd5b1480156108e857506002835110155b15610921576109118360018151811061088457634e487b7160e01b600052603260045260246000fd5b6040516020016108a191906126b1565b60038260ff81111561094357634e487b7160e01b600052602160045260246000fd5b14801561095257506002835110155b1561098b5761097b8360018151811061088457634e487b7160e01b600052603260045260246000fd5b6040516020016108a19190612645565b60108260ff8111156109ad57634e487b7160e01b600052602160045260246000fd5b1480156109bc57506002835110155b156109f5576109e58360018151811061088457634e487b7160e01b600052603260045260246000fd5b6040516020016108a191906128e4565b60118260ff811115610a1757634e487b7160e01b600052602160045260246000fd5b148015610a2657506004835110155b15610ab657610a4f8360028151811061088457634e487b7160e01b600052603260045260246000fd5b610a8084600181518110610a7357634e487b7160e01b600052603260045260246000fd5b60200260200101516113f2565b610aa48560038151811061088457634e487b7160e01b600052603260045260246000fd5b6040516020016108a193929190612945565b60208260ff811115610ad857634e487b7160e01b600052602160045260246000fd5b148015610ae757506005835110155b15610b9c57610b1d83600481518110610b1057634e487b7160e01b600052603260045260246000fd5b6020026020010151611abb565b610b418460038151811061088457634e487b7160e01b600052603260045260246000fd5b610b658560028151811061088457634e487b7160e01b600052603260045260246000fd5b610b8986600181518110610a7357634e487b7160e01b600052603260045260246000fd5b6040516020016108a19493929190612503565b60308260ff811115610bbe57634e487b7160e01b600052602160045260246000fd5b148015610bcd57506003835110155b15610cc257610bf68360018151811061088457634e487b7160e01b600052603260045260246000fd5b610c33606485600281518110610c1c57634e487b7160e01b600052603260045260246000fd5b6020026020010151610c2e9190612dde565b611873565b610c77600a606487600281518110610c5b57634e487b7160e01b600052603260045260246000fd5b6020026020010151610c6d9190612e34565b610c2e9190612dde565b610caf600a87600281518110610c9d57634e487b7160e01b600052603260045260246000fd5b6020026020010151610c2e9190612e34565b6040516020016108a194939291906129f5565b60318260ff811115610ce457634e487b7160e01b600052602160045260246000fd5b148015610cf357506002835110155b15610d2c57610d1c8360018151811061088457634e487b7160e01b600052603260045260246000fd5b6040516020016108a19190612aae565b60408260ff811115610d4e57634e487b7160e01b600052602160045260246000fd5b148015610d5d57506005835110155b15610e0557610d8683600481518110610b1057634e487b7160e01b600052603260045260246000fd5b610daa8460038151811061088457634e487b7160e01b600052603260045260246000fd5b610dce8560028151811061088457634e487b7160e01b600052603260045260246000fd5b610df286600181518110610a7357634e487b7160e01b600052603260045260246000fd5b6040516020016108a19493929190612426565b60418260ff811115610e2757634e487b7160e01b600052602160045260246000fd5b148015610e3657506005835110155b15610ede57610e5f83600481518110610b1057634e487b7160e01b600052603260045260246000fd5b610e838460038151811061088457634e487b7160e01b600052603260045260246000fd5b610ea78560028151811061088457634e487b7160e01b600052603260045260246000fd5b610ecb86600181518110610a7357634e487b7160e01b600052603260045260246000fd5b6040516020016108a19493929190612807565b60428260ff811115610f0057634e487b7160e01b600052602160045260246000fd5b148015610f0f57506005835110155b15610fb757610f3883600481518110610b1057634e487b7160e01b600052603260045260246000fd5b610f5c8460038151811061088457634e487b7160e01b600052603260045260246000fd5b610f808560028151811061088457634e487b7160e01b600052603260045260246000fd5b610fa486600181518110610a7357634e487b7160e01b600052603260045260246000fd5b6040516020016108a1949392919061271d565b60e08260ff811115610fd957634e487b7160e01b600052602160045260246000fd5b1415610fff576040518060600160405280603f8152602001612ece603f913990506110d5565b60e18260ff81111561102157634e487b7160e01b600052602160045260246000fd5b141561104757604051806080016040528060478152602001612f4e6047913990506110d5565b60e28260ff81111561106957634e487b7160e01b600052602160045260246000fd5b141561108f57604051806080016040528060418152602001612f0d6041913990506110d5565b6110b383600081518110610b1057634e487b7160e01b600052603260045260246000fd5b6040516020016110c391906123e2565b60405160208183030381529060405290505b909590945092505050565b6110e8611bc9565b5060a0810151604080518082019091526001600160401b03909116602714158152602081019190915290565b805160609061117b5760405162461bcd60e51b815260206004820152602d60248201527f547269656420746f20726561642062797465732076616c75652066726f6d206560448201526c1c9c9bdc99590814995cdd5b1d609a1b60648201526084016103a0565b602082015160405163f896fab360e01b815273__CBOR__________________________________9163f896fab3916111b69190600401612cd6565b60006040518083038186803b1580156111ce57600080fd5b505af41580156111e2573d6000803e3d6000fd5b505050506040513d6000823e601f3d908101601f1916820160405261043891908101906120c2565b80516000906112725760405162461bcd60e51b815260206004820152602e60248201527f547269656420746f20726561642060626f6f6c602076616c75652066726f6d2060448201526d195c9c9bdc99590814995cdd5b1d60921b60648201526084016103a0565b6020820151604051631bc742b960e01b815273__CBOR__________________________________91631bc742b9916112ad9190600401612cd6565b60206040518083038186803b1580156112c557600080fd5b505af41580156112d9573d6000803e3d6000fd5b505050506040513d601f19601f82011682018060405250810190610438919061203a565b80516000906113675760405162461bcd60e51b815260206004820152603060248201527f547269656420746f20726561642060696e74313238602076616c75652066726f60448201526f1b48195c9c9bdc99590814995cdd5b1d60821b60648201526084016103a0565b602082015160405163537ae6d760e01b815273__CBOR__________________________________9163537ae6d7916113a29190600401612cd6565b60206040518083038186803b1580156113ba57600080fd5b505af41580156113ce573d6000803e3d6000fd5b505050506040513d601f19601f8201168201806040525081019061043891906120f4565b60606001600160401b0382166114275750506040805180820190915260098152681c995d1c9a595d985b60ba1b602082015290565b816001600160401b03166001141561146057505060408051808201909152600b81526a30b3b3b932b3b0ba34b7b760a91b602082015290565b816001600160401b03166002141561149357505060408051808201909152600581526474616c6c7960d81b602082015290565b50506040805180820190915260078152663ab735b737bbb760c91b602082015290565b919050565b6000806114c78361033a565b90508051600014156114dc5750600092915050565b6115008160008151811061081957634e487b7160e01b600052603260045260246000fd5b9392505050565b80516000906115725760405162461bcd60e51b815260206004820152603160248201527f547269656420746f2072656164206066697865643136602076616c75652066726044820152701bdb48195c9c9bdc99590814995cdd5b1d607a1b60648201526084016103a0565b6020820151604051639ada264760e01b815273__CBOR__________________________________91639ada2647916115ad9190600401612cd6565b60206040518083038186803b1580156115c557600080fd5b505af41580156115d9573d6000803e3d6000fd5b505050506040513d601f19601f82011682018060405250810190610438919061210e565b611605611bc9565b6040516337f2974d60e21b815260009073__CBOR__________________________________9063dfca5d34906116419087908790600401612c3f565b60006040518083038186803b15801561165957600080fd5b505af415801561166d573d6000803e3d6000fd5b505050506040513d6000823e601f3d908101601f1916820160405261169591908101906121d5565b90506116a0816110e0565b949350505050565b80516060906117125760405162461bcd60e51b815260206004820152603060248201527f547269656420746f20726561642060737472696e67602076616c75652066726f60448201526f1b48195c9c9bdc99590814995cdd5b1d60821b60648201526084016103a0565b60208201516040516364af281760e01b815273__CBOR__________________________________916364af2817916111b69190600401612cd6565b80516060906117b95760405162461bcd60e51b815260206004820152603260248201527f547269656420746f20726561642060696e743132385b5d602076616c756520666044820152711c9bdb48195c9c9bdc99590814995cdd5b1d60721b60648201526084016103a0565b6020820151604051632a7713f360e11b815273__CBOR__________________________________916354ee27e6916117f49190600401612cd6565b60006040518083038186803b15801561180c57600080fd5b505af4158015611820573d6000803e3d6000fd5b505050506040513d6000823e601f3d908101601f191682016040526104389190810190611dd5565b6000816001600160401b031660ff81111561043857634e487b7160e01b600052602160045260246000fd5b6060600a826001600160401b031610156118f4576040805160018082528183019092526000916020820181803683370190505090506118b3836030612dad565b60f81b816000815181106118d757634e487b7160e01b600052603260045260246000fd5b60200101906001600160f81b031916908160001a90535092915050565b6064826001600160401b031610156119b257604080516002808252818301909252600091602082018180368337019050509050611932600a84612dde565b61193d906030612dad565b60f81b8160008151811061196157634e487b7160e01b600052603260045260246000fd5b60200101906001600160f81b031916908160001a905350611983600a84612e34565b61198e906030612dad565b60f81b816001815181106118d757634e487b7160e01b600052603260045260246000fd5b6040805160038082528183019092526000916020820181803683370190505090506119de606484612dde565b6119e9906030612dad565b60f81b81600081518110611a0d57634e487b7160e01b600052603260045260246000fd5b60200101906001600160f81b031916908160001a905350600a611a31606485612e34565b611a3b9190612dde565b611a46906030612dad565b60f81b81600181518110611a6a57634e487b7160e01b600052603260045260246000fd5b60200101906001600160f81b031916908160001a905350611a8c600a84612e34565b611a97906030612dad565b60f81b816002815181106118d757634e487b7160e01b600052603260045260246000fd5b604080516002808252818301909252606091600091906020820181803683370190505090506000611aed601085612dde565b611af8906030612dad565b90506000611b07601086612e34565b611b12906030612dad565b905060398260ff161115611b2e57611b2b600783612dad565b91505b60398160ff161115611b4857611b45600782612dad565b90505b8160f81b83600081518110611b6d57634e487b7160e01b600052603260045260246000fd5b60200101906001600160f81b031916908160001a9053508060f81b83600181518110611ba957634e487b7160e01b600052603260045260246000fd5b60200101906001600160f81b031916908160001a90535091949350505050565b6040805180820182526000808252825161010081018452606060c0820181815260e083018490528252602082810184905294820183905281018290526080810182905260a0810191909152909182015290565b600082601f830112611c2c578081fd5b8151611c3f611c3a82612d86565b612d33565b818152846020838601011115611c53578283fd5b6116a0826020830160208701612e04565b8051600f81900b81146114b657600080fd5b8051600381900b81146114b657600080fd5b600060c08284031215611c99578081fd5b611ca1612ce9565b905081356001600160401b0380821115611cba57600080fd5b9083019060408286031215611cce57600080fd5b611cd6612d11565b823582811115611ce557600080fd5b83019150601f82018613611cf857600080fd5b81356020611d08611c3a83612d86565b8281528882848701011115611d1c57600080fd5b828286018383013760008184018301528352611d39858201611d9e565b81840152828652611d4b818801611dbf565b818701525050505050611d6060408301611dbf565b6040820152611d7160608301611dbf565b6060820152611d8260808301611da9565b6080820152611d9360a08301611da9565b60a082015292915050565b80356114b681612e97565b80356114b681612ea9565b80516114b681612ea9565b80356114b681612ebe565b80516114b681612ebe565b60006020808385031215611de7578182fd5b82516001600160401b03811115611dfc578283fd5b8301601f81018513611e0c578283fd5b8051611e1a611c3a82612d63565b80828252848201915084840188868560051b8701011115611e39578687fd5b8694505b83851015611e6257611e4e81611c64565b835260019490940193918501918501611e3d565b50979650505050505050565b60006020808385031215611e80578182fd5b82516001600160401b03811115611e95578283fd5b8301601f81018513611ea5578283fd5b8051611eb3611c3a82612d63565b80828252848201915084840188868560051b8701011115611ed2578687fd5b8694505b83851015611e6257611ee781611c76565b835260019490940193918501918501611ed6565b60006020808385031215611f0d578182fd5b82516001600160401b0380821115611f23578384fd5b818501915085601f830112611f36578384fd5b8151611f44611c3a82612d63565b80828252858201915085850189878560051b8801011115611f63578788fd5b875b84811015611f9c57815186811115611f7b57898afd5b611f898c8a838b0101611c1c565b8552509287019290870190600101611f65565b50909998505050505050505050565b60006020808385031215611fbd578182fd5b82516001600160401b03811115611fd2578283fd5b8301601f81018513611fe2578283fd5b8051611ff0611c3a82612d63565b80828252848201915084840188868560051b870101111561200f578687fd5b8694505b83851015611e6257805161202681612ea9565b835260019490940193918501918501612013565b60006020828403121561204b578081fd5b815161150081612e86565b60008060208385031215612068578081fd5b82356001600160401b038082111561207e578283fd5b818501915085601f830112612091578283fd5b81358181111561209f578384fd5b8660208285010111156120b0578384fd5b60209290920196919550909350505050565b6000602082840312156120d3578081fd5b81516001600160401b038111156120e8578182fd5b6116a084828501611c1c565b600060208284031215612105578081fd5b61150082611c64565b60006020828403121561211f578081fd5b61150082611c76565b600060208284031215612139578081fd5b81356001600160401b038082111561214f578283fd5b9083019060408286031215612162578283fd5b61216a612d11565b823561217581612e86565b8152602083013582811115612188578485fd5b61219487828601611c88565b60208301525095945050505050565b6000602082840312156121b4578081fd5b81356001600160401b038111156121c9578182fd5b6116a084828501611c88565b6000602082840312156121e6578081fd5b81516001600160401b03808211156121fc578283fd5b9083019060c0828603121561220f578283fd5b612217612ce9565b825182811115612225578485fd5b830160408188031215612236578485fd5b61223e612d11565b81518481111561224c578687fd5b61225889828501611c1c565b8252506020820151935061226b84612e97565b836020820152808352505061228260208401611dca565b602082015261229360408401611dca565b60408201526122a460608401611dca565b60608201526122b560808401611db4565b60808201526122c660a08401611db4565b60a082015295945050505050565b6000602082840312156122e5578081fd5b813561150081612ea9565b600060208284031215612301578081fd5b815161150081612ea9565b60008151808452612324816020860160208601612e04565b601f01601f19169290920160200192915050565b610100811061235757634e487b7160e01b600052602160045260246000fd5b9052565b6000815160c084528051604060c086015261237a61010086018261230c565b905063ffffffff60208301511660e086015260ff602085015116602086015260ff604085015116604086015260ff60608501511660608601526001600160401b03608085015116608086015260a084015191506116a060a08601836001600160401b03169052565b700aadcd6dcdeeedc40cae4e4dee4405060f607b1b81526000825161240e816011850160208701612e04565b602960f81b6011939091019283015250601201919050565b7f556e646572666c6f77206174206f70657261746f7220636f646520307800000081526000855161245e81601d850160208a01612e04565b6f20666f756e642061742063616c6c202360801b601d91840191820152855161248e81602d840160208a01612e04565b6b20696e20736372697074202360a01b602d929091019182015284516124bb816039840160208901612e04565b65010333937b6960d51b6039929091019182015283516124e281603f840160208801612e04565b6520737461676560d01b603f92909101918201526045019695505050505050565b6f09ee0cae4c2e8dee440c6dec8ca4060f60831b815260008551602061252f8260108601838b01612e04565b6f20666f756e642061742063616c6c202360801b601092850192830152865161255d81838501848b01612e04565b6b20696e20736372697074202360a01b920181810192909252855161258881602c8501898501612e04565b65010333937b6960d51b602c939091019283015284516125ae8160328501848901612e04565b7f207374616765206973206e6f7420737570706f7274656400000000000000000060329390910192830152506049019695505050505050565b6e536f7572636520736372697074202360881b81526000825161261181600f850160208701612e04565b7f20776173206e6f7420612076616c69642043424f522076616c75650000000000600f939091019283015250602a01919050565b7f5468652043424f522076616c756520696e20736372697074202300000000000081526000825161267d81601a850160208701612e04565b7f20776173206e6f7420612076616c6964205241444f4e20736372697074000000601a939091019283015250603701919050565b7f5468652043424f522076616c756520696e2073637269707420230000000000008152600082516126e981601a850160208701612e04565b7f20776173206e6f7420616e204172726179206f662063616c6c73000000000000601a939091019283015250603401919050565b7f4469766973696f6e206279207a65726f206174206f70657261746f7220636f648152630ca4060f60e31b602082015260008551612762816024850160208a01612e04565b6f20666f756e642061742063616c6c202360801b6024918401918201528551612792816034840160208a01612e04565b6b20696e20736372697074202360a01b6034929091019182015284516127bf816040840160208901612e04565b65010333937b6960d51b6040929091019182015283516127e6816046840160208801612e04565b6520737461676560d01b60469290910191820152604c019695505050505050565b7f4f766572666c6f77206174206f70657261746f7220636f64652030780000000081526000855161283f81601c850160208a01612e04565b6f20666f756e642061742063616c6c202360801b601c91840191820152855161286f81602c840160208a01612e04565b6b20696e20736372697074202360a01b602c9290910191820152845161289c816038840160208901612e04565b65010333937b6960d51b6038929091019182015283516128c381603e840160208801612e04565b6520737461676560d01b603e92909101918201526044019695505050505050565b7f546865207265717565737420636f6e7461696e656420746f6f206d616e7920738152670deeae4c6cae640560c31b60208201526000825161292d816028850160208701612e04565b602960f81b6028939091019283015250602901919050565b67536372697074202360c01b815260008451612968816008850160208901612e04565b69010333937b6903a3432960b51b6008918401918201528451612992816012840160208901612e04565b7f20737461676520636f6e7461696e656420746f6f206d616e792063616c6c732060129290910191820152600560fb1b603282015283516129da816033840160208801612e04565b602960f81b6033929091019182015260340195945050505050565b67536f75726365202360c01b815260008551612a18816008850160208a01612e04565b7f20636f756c64206e6f74206265207265747269657665642e204661696c6564206008918401918201527503bb4ba3410242a2a281032b93937b91031b7b2329d160551b60288201528551612a7481603e840160208a01612e04565b8551910190612a8a81603e840160208901612e04565b8451910190612aa081603e840160208801612e04565b01603e019695505050505050565b67536f75726365202360c01b815260008251612ad1816008850160208701612e04565b7f20636f756c64206e6f742062652072657472696576656420626563617573652060089390910192830152506c37b31030903a34b6b2b7baba1760991b6028820152603501919050565b6020808252825182820181905260009190848201906040850190845b81811015612b56578351600f0b83529284019291840191600101612b37565b50909695505050505050565b6020808252825182820181905260009190848201906040850190845b81811015612b5657835160030b83529284019291840191600101612b7e565b6000602080830181845280855180835260408601915060408160051b8701019250838701855b82811015612bf157603f19888603018452612bdf85835161230c565b94509285019290850190600101612bc3565b5092979650505050505050565b6020808252825182820181905260009190848201906040850190845b81811015612b565783516001600160401b031683529284019291840191600101612c1a565b60208152816020820152818360408301376000818301604090810191909152601f909201601f19160101919050565b602081526000611500602083018461230c565b602081016104388284612338565b612c998184612338565b6040602082015260006116a0604083018461230c565b60208152815115156020820152600060208301516040808401526116a0606084018261235b565b602081526000611500602083018461235b565b60405160c081016001600160401b0381118282101715612d0b57612d0b612e70565b60405290565b604080519081016001600160401b0381118282101715612d0b57612d0b612e70565b604051601f8201601f191681016001600160401b0381118282101715612d5b57612d5b612e70565b604052919050565b60006001600160401b03821115612d7c57612d7c612e70565b5060051b60200190565b60006001600160401b03821115612d9f57612d9f612e70565b50601f01601f191660200190565b600060ff821660ff84168060ff03821115612dd657634e487b7160e01b83526011600452602483fd5b019392505050565b60006001600160401b0380841680612df857612df8612e5a565b92169190910492915050565b60005b83811015612e1f578181015183820152602001612e07565b83811115612e2e576000848401525b50505050565b60006001600160401b0380841680612e4e57612e4e612e5a565b92169190910692915050565b634e487b7160e01b600052601260045260246000fd5b634e487b7160e01b600052604160045260246000fd5b8015158114612e9457600080fd5b50565b63ffffffff81168114612e9457600080fd5b6001600160401b0381168114612e9457600080fd5b60ff81168114612e9457600080fdfe54686520737472756374757265206f6620746865207265717565737420697320696e76616c696420616e642069742063616e6e6f7420626520706172736564546865207265717565737420726573756c74206c656e677468206578636565647320612062726964676520636f6e747261637420646566696e6564206c696d6974546865207265717565737420686173206265656e2072656a65637465642062792074686520627269646765206e6f64652064756520746f20706f6f7220696e63656e7469766573a26469706673582212202a6fc05939340bfd3bbfaeac30665ecff6d03628d2092b64fa9af5eb874f810e64736f6c63430008040033",
  "immutableReferences": {},
  "source": "// SPDX-License-Identifier: MIT\n\npragma solidity >=0.7.0 <0.9.0;\npragma experimental ABIEncoderV2;\n\nimport \"./CBOR.sol\";\n\n\n/**\n * @title A library for decoding Witnet request results\n * @notice The library exposes functions to check the Witnet request success.\n * and retrieve Witnet results from CBOR values into solidity types.\n */\nlibrary Witnet {\n  using CBOR for CBOR.Value;\n\n  /*\n   *  STRUCTS\n   */\n  struct Result {\n    bool success;\n    CBOR.Value cborValue;\n  }\n\n  /*\n   *  ENUMS\n   */\n  enum ErrorCodes {\n    // 0x00: Unknown error. Something went really bad!\n    Unknown,\n    // Script format errors\n    /// 0x01: At least one of the source scripts is not a valid CBOR-encoded value.\n    SourceScriptNotCBOR,\n    /// 0x02: The CBOR value decoded from a source script is not an Array.\n    SourceScriptNotArray,\n    /// 0x03: The Array value decoded form a source script is not a valid RADON script.\n    SourceScriptNotRADON,\n    /// Unallocated\n    ScriptFormat0x04,\n    ScriptFormat0x05,\n    ScriptFormat0x06,\n    ScriptFormat0x07,\n    ScriptFormat0x08,\n    ScriptFormat0x09,\n    ScriptFormat0x0A,\n    ScriptFormat0x0B,\n    ScriptFormat0x0C,\n    ScriptFormat0x0D,\n    ScriptFormat0x0E,\n    ScriptFormat0x0F,\n    // Complexity errors\n    /// 0x10: The request contains too many sources.\n    RequestTooManySources,\n    /// 0x11: The script contains too many calls.\n    ScriptTooManyCalls,\n    /// Unallocated\n    Complexity0x12,\n    Complexity0x13,\n    Complexity0x14,\n    Complexity0x15,\n    Complexity0x16,\n    Complexity0x17,\n    Complexity0x18,\n    Complexity0x19,\n    Complexity0x1A,\n    Complexity0x1B,\n    Complexity0x1C,\n    Complexity0x1D,\n    Complexity0x1E,\n    Complexity0x1F,\n    // Operator errors\n    /// 0x20: The operator does not exist.\n    UnsupportedOperator,\n    /// Unallocated\n    Operator0x21,\n    Operator0x22,\n    Operator0x23,\n    Operator0x24,\n    Operator0x25,\n    Operator0x26,\n    Operator0x27,\n    Operator0x28,\n    Operator0x29,\n    Operator0x2A,\n    Operator0x2B,\n    Operator0x2C,\n    Operator0x2D,\n    Operator0x2E,\n    Operator0x2F,\n    // Retrieval-specific errors\n    /// 0x30: At least one of the sources could not be retrieved, but returned HTTP error.\n    HTTP,\n    /// 0x31: Retrieval of at least one of the sources timed out.\n    RetrievalTimeout,\n    /// Unallocated\n    Retrieval0x32,\n    Retrieval0x33,\n    Retrieval0x34,\n    Retrieval0x35,\n    Retrieval0x36,\n    Retrieval0x37,\n    Retrieval0x38,\n    Retrieval0x39,\n    Retrieval0x3A,\n    Retrieval0x3B,\n    Retrieval0x3C,\n    Retrieval0x3D,\n    Retrieval0x3E,\n    Retrieval0x3F,\n    // Math errors\n    /// 0x40: Math operator caused an underflow.\n    Underflow,\n    /// 0x41: Math operator caused an overflow.\n    Overflow,\n    /// 0x42: Tried to divide by zero.\n    DivisionByZero,\n    /// Unallocated\n    Math0x43,\n    Math0x44,\n    Math0x45,\n    Math0x46,\n    Math0x47,\n    Math0x48,\n    Math0x49,\n    Math0x4A,\n    Math0x4B,\n    Math0x4C,\n    Math0x4D,\n    Math0x4E,\n    Math0x4F,\n    // Other errors\n    /// 0x50: Received zero reveals\n    NoReveals,\n    /// 0x51: Insufficient consensus in tally precondition clause\n    InsufficientConsensus,\n    /// 0x52: Received zero commits\n    InsufficientCommits,\n    /// 0x53: Generic error during tally execution\n    TallyExecution,\n    /// Unallocated\n    OtherError0x54,\n    OtherError0x55,\n    OtherError0x56,\n    OtherError0x57,\n    OtherError0x58,\n    OtherError0x59,\n    OtherError0x5A,\n    OtherError0x5B,\n    OtherError0x5C,\n    OtherError0x5D,\n    OtherError0x5E,\n    OtherError0x5F,\n    /// 0x60: Invalid reveal serialization (malformed reveals are converted to this value)\n    MalformedReveal,\n    /// Unallocated\n    OtherError0x61,\n    OtherError0x62,\n    OtherError0x63,\n    OtherError0x64,\n    OtherError0x65,\n    OtherError0x66,\n    OtherError0x67,\n    OtherError0x68,\n    OtherError0x69,\n    OtherError0x6A,\n    OtherError0x6B,\n    OtherError0x6C,\n    OtherError0x6D,\n    OtherError0x6E,\n    OtherError0x6F,\n    // Access errors\n    /// 0x70: Tried to access a value from an index using an index that is out of bounds\n    ArrayIndexOutOfBounds,\n    /// 0x71: Tried to access a value from a map using a key that does not exist\n    MapKeyNotFound,\n    /// Unallocated\n    OtherError0x72,\n    OtherError0x73,\n    OtherError0x74,\n    OtherError0x75,\n    OtherError0x76,\n    OtherError0x77,\n    OtherError0x78,\n    OtherError0x79,\n    OtherError0x7A,\n    OtherError0x7B,\n    OtherError0x7C,\n    OtherError0x7D,\n    OtherError0x7E,\n    OtherError0x7F,\n    OtherError0x80,\n    OtherError0x81,\n    OtherError0x82,\n    OtherError0x83,\n    OtherError0x84,\n    OtherError0x85,\n    OtherError0x86,\n    OtherError0x87,\n    OtherError0x88,\n    OtherError0x89,\n    OtherError0x8A,\n    OtherError0x8B,\n    OtherError0x8C,\n    OtherError0x8D,\n    OtherError0x8E,\n    OtherError0x8F,\n    OtherError0x90,\n    OtherError0x91,\n    OtherError0x92,\n    OtherError0x93,\n    OtherError0x94,\n    OtherError0x95,\n    OtherError0x96,\n    OtherError0x97,\n    OtherError0x98,\n    OtherError0x99,\n    OtherError0x9A,\n    OtherError0x9B,\n    OtherError0x9C,\n    OtherError0x9D,\n    OtherError0x9E,\n    OtherError0x9F,\n    OtherError0xA0,\n    OtherError0xA1,\n    OtherError0xA2,\n    OtherError0xA3,\n    OtherError0xA4,\n    OtherError0xA5,\n    OtherError0xA6,\n    OtherError0xA7,\n    OtherError0xA8,\n    OtherError0xA9,\n    OtherError0xAA,\n    OtherError0xAB,\n    OtherError0xAC,\n    OtherError0xAD,\n    OtherError0xAE,\n    OtherError0xAF,\n    OtherError0xB0,\n    OtherError0xB1,\n    OtherError0xB2,\n    OtherError0xB3,\n    OtherError0xB4,\n    OtherError0xB5,\n    OtherError0xB6,\n    OtherError0xB7,\n    OtherError0xB8,\n    OtherError0xB9,\n    OtherError0xBA,\n    OtherError0xBB,\n    OtherError0xBC,\n    OtherError0xBD,\n    OtherError0xBE,\n    OtherError0xBF,\n    OtherError0xC0,\n    OtherError0xC1,\n    OtherError0xC2,\n    OtherError0xC3,\n    OtherError0xC4,\n    OtherError0xC5,\n    OtherError0xC6,\n    OtherError0xC7,\n    OtherError0xC8,\n    OtherError0xC9,\n    OtherError0xCA,\n    OtherError0xCB,\n    OtherError0xCC,\n    OtherError0xCD,\n    OtherError0xCE,\n    OtherError0xCF,\n    OtherError0xD0,\n    OtherError0xD1,\n    OtherError0xD2,\n    OtherError0xD3,\n    OtherError0xD4,\n    OtherError0xD5,\n    OtherError0xD6,\n    OtherError0xD7,\n    OtherError0xD8,\n    OtherError0xD9,\n    OtherError0xDA,\n    OtherError0xDB,\n    OtherError0xDC,\n    OtherError0xDD,\n    OtherError0xDE,\n    OtherError0xDF,\n    // Bridge errors: errors that only belong in inter-client communication\n    /// 0xE0: Requests that cannot be parsed must always get this error as their result.\n    /// However, this is not a valid result in a Tally transaction, because invalid requests\n    /// are never included into blocks and therefore never get a Tally in response.\n    BridgeMalformedRequest,\n    /// 0xE1: Witnesses exceeds 100\n    BridgePoorIncentives,\n    /// 0xE2: The request is rejected on the grounds that it may cause the submitter to spend or stake an\n    /// amount of value that is unjustifiably high when compared with the reward they will be getting\n    BridgeOversizedResult,\n    /// Unallocated\n    OtherError0xE3,\n    OtherError0xE4,\n    OtherError0xE5,\n    OtherError0xE6,\n    OtherError0xE7,\n    OtherError0xE8,\n    OtherError0xE9,\n    OtherError0xEA,\n    OtherError0xEB,\n    OtherError0xEC,\n    OtherError0xED,\n    OtherError0xEE,\n    OtherError0xEF,\n    OtherError0xF0,\n    OtherError0xF1,\n    OtherError0xF2,\n    OtherError0xF3,\n    OtherError0xF4,\n    OtherError0xF5,\n    OtherError0xF6,\n    OtherError0xF7,\n    OtherError0xF8,\n    OtherError0xF9,\n    OtherError0xFA,\n    OtherError0xFB,\n    OtherError0xFC,\n    OtherError0xFD,\n    OtherError0xFE,\n    // This should not exist:\n    /// 0xFF: Some tally error is not intercepted but should\n    UnhandledIntercept\n  }\n\n  /*\n   * Result impl's\n   */\n\n  /**\n   * @notice Decode raw CBOR bytes into a Result instance.\n   * @param _cborBytes Raw bytes representing a CBOR-encoded value.\n   * @return A `Result` instance.\n   */\n  function resultFromCborBytes(bytes calldata _cborBytes) external pure returns(Result memory) {\n    CBOR.Value memory cborValue = CBOR.valueFromBytes(_cborBytes);\n    return resultFromCborValue(cborValue);\n  }\n\n  /**\n   * @notice Decode a CBOR value into a Result instance.\n   * @param _cborValue An instance of `CBOR.Value`.\n   * @return A `Result` instance.\n   */\n  function resultFromCborValue(CBOR.Value memory _cborValue) public pure returns(Result memory) {\n    // Witnet uses CBOR tag 39 to represent RADON error code identifiers.\n    // [CBOR tag 39] Identifiers for CBOR: https://github.com/lucas-clemente/cbor-specs/blob/master/id.md\n    bool success = _cborValue.tag != 39;\n    return Result(success, _cborValue);\n  }\n\n  /**\n   * @notice Tell if a Result is successful.\n   * @param _result An instance of Result.\n   * @return `true` if successful, `false` if errored.\n   */\n  function isOk(Result memory _result) external pure returns(bool) {\n    return _result.success;\n  }\n\n  /**\n   * @notice Tell if a Result is errored.\n   * @param _result An instance of Result.\n   * @return `true` if errored, `false` if successful.\n   */\n  function isError(Result memory _result) external pure returns(bool) {\n    return !_result.success;\n  }\n\n  /**\n   * @notice Decode a bytes value from a Result as a `bytes` value.\n   * @param _result An instance of Result.\n   * @return The `bytes` decoded from the Result.\n   */\n  function asBytes(Result memory _result) external pure returns(bytes memory) {\n    require(_result.success, \"Tried to read bytes value from errored Result\");\n    return _result.cborValue.decodeBytes();\n  }\n\n  /**\n   * @notice Decode an error code from a Result as a member of `ErrorCodes`.\n   * @param _result An instance of `Result`.\n   * @return The `CBORValue.Error memory` decoded from the Result.\n   */\n  function asErrorCode(Result memory _result) external pure returns(ErrorCodes) {\n    uint64[] memory error = asRawError(_result);\n    if (error.length == 0) {\n      return ErrorCodes.Unknown;\n    }\n\n    return supportedErrorOrElseUnknown(error[0]);\n  }\n\n  /**\n   * @notice Generate a suitable error message for a member of `ErrorCodes` and its corresponding arguments.\n   * @dev WARN: Note that client contracts should wrap this function into a try-catch foreseing potential errors generated in this function\n   * @param _result An instance of `Result`.\n   * @return A tuple containing the `CBORValue.Error memory` decoded from the `Result`, plus a loggable error message.\n   */\n\n  function asErrorMessage(Result memory _result) public pure returns (ErrorCodes, string memory) {\n    uint64[] memory error = asRawError(_result);\n    if (error.length == 0) {\n      return (ErrorCodes.Unknown, \"Unknown error (no error code)\");\n    }\n    ErrorCodes errorCode = supportedErrorOrElseUnknown(error[0]);\n    bytes memory errorMessage;\n\n    if (errorCode == ErrorCodes.SourceScriptNotCBOR && error.length >= 2) {\n        errorMessage = abi.encodePacked(\"Source script #\", utoa(error[1]), \" was not a valid CBOR value\");\n    } else if (errorCode == ErrorCodes.SourceScriptNotArray && error.length >= 2) {\n        errorMessage = abi.encodePacked(\"The CBOR value in script #\", utoa(error[1]), \" was not an Array of calls\");\n    } else if (errorCode == ErrorCodes.SourceScriptNotRADON && error.length >= 2) {\n        errorMessage = abi.encodePacked(\"The CBOR value in script #\", utoa(error[1]), \" was not a valid RADON script\");\n    } else if (errorCode == ErrorCodes.RequestTooManySources && error.length >= 2) {\n        errorMessage = abi.encodePacked(\"The request contained too many sources (\", utoa(error[1]), \")\");\n    } else if (errorCode == ErrorCodes.ScriptTooManyCalls && error.length >= 4) {\n        errorMessage = abi.encodePacked(\n          \"Script #\",\n          utoa(error[2]),\n          \" from the \",\n          stageName(error[1]),\n          \" stage contained too many calls (\",\n          utoa(error[3]),\n          \")\"\n        );\n    } else if (errorCode == ErrorCodes.UnsupportedOperator && error.length >= 5) {\n        errorMessage = abi.encodePacked(\n        \"Operator code 0x\",\n          utohex(error[4]),\n          \" found at call #\",\n          utoa(error[3]),\n          \" in script #\",\n          utoa(error[2]),\n          \" from \",\n          stageName(error[1]),\n          \" stage is not supported\"\n        );\n    } else if (errorCode == ErrorCodes.HTTP && error.length >= 3) {\n        errorMessage = abi.encodePacked(\n          \"Source #\",\n          utoa(error[1]),\n          \" could not be retrieved. Failed with HTTP error code: \",\n          utoa(error[2] / 100),\n          utoa(error[2] % 100 / 10),\n          utoa(error[2] % 10)\n        );\n    } else if (errorCode == ErrorCodes.RetrievalTimeout && error.length >= 2) {\n        errorMessage = abi.encodePacked(\n          \"Source #\",\n          utoa(error[1]),\n          \" could not be retrieved because of a timeout.\"\n        );\n    } else if (errorCode == ErrorCodes.Underflow && error.length >= 5) {\n        errorMessage = abi.encodePacked(\n          \"Underflow at operator code 0x\",\n          utohex(error[4]),\n          \" found at call #\",\n          utoa(error[3]),\n          \" in script #\",\n          utoa(error[2]),\n          \" from \",\n          stageName(error[1]),\n          \" stage\"\n        );\n    } else if (errorCode == ErrorCodes.Overflow && error.length >= 5) {\n        errorMessage = abi.encodePacked(\n          \"Overflow at operator code 0x\",\n          utohex(error[4]),\n          \" found at call #\",\n          utoa(error[3]),\n          \" in script #\",\n          utoa(error[2]),\n          \" from \",\n          stageName(error[1]),\n          \" stage\"\n        );\n    } else if (errorCode == ErrorCodes.DivisionByZero && error.length >= 5) {\n        errorMessage = abi.encodePacked(\n          \"Division by zero at operator code 0x\",\n          utohex(error[4]),\n          \" found at call #\",\n          utoa(error[3]),\n          \" in script #\",\n          utoa(error[2]),\n          \" from \",\n          stageName(error[1]),\n          \" stage\"\n        );\n    } else if (errorCode == ErrorCodes.BridgeMalformedRequest) {\n        errorMessage = \"The structure of the request is invalid and it cannot be parsed\";\n    } else if (errorCode == ErrorCodes.BridgePoorIncentives) {\n        errorMessage = \"The request has been rejected by the bridge node due to poor incentives\";\n    } else if (errorCode == ErrorCodes.BridgeOversizedResult) {\n        errorMessage = \"The request result length exceeds a bridge contract defined limit\";\n    } else {\n        errorMessage = abi.encodePacked(\"Unknown error (0x\", utohex(error[0]), \")\");\n    }\n\n    return (errorCode, string(errorMessage));\n  }\n\n  /**\n   * @notice Decode a raw error from a `Result` as a `uint64[]`.\n   * @param _result An instance of `Result`.\n   * @return The `uint64[]` raw error as decoded from the `Result`.\n   */\n  function asRawError(Result memory _result) public pure returns(uint64[] memory) {\n    require(!_result.success, \"Tried to read error code from successful Result\");\n    return _result.cborValue.decodeUint64Array();\n  }\n\n  /**\n   * @notice Decode a boolean value from a Result as an `bool` value.\n   * @param _result An instance of Result.\n   * @return The `bool` decoded from the Result.\n   */\n  function asBool(Result memory _result) external pure returns(bool) {\n    require(_result.success, \"Tried to read `bool` value from errored Result\");\n    return _result.cborValue.decodeBool();\n  }\n\n  /**\n   * @notice Decode a fixed16 (half-precision) numeric value from a Result as an `int32` value.\n   * @dev Due to the lack of support for floating or fixed point arithmetic in the EVM, this method offsets all values.\n   * by 5 decimal orders so as to get a fixed precision of 5 decimal positions, which should be OK for most `fixed16`.\n   * use cases. In other words, the output of this method is 10,000 times the actual value, encoded into an `int32`.\n   * @param _result An instance of Result.\n   * @return The `int128` decoded from the Result.\n   */\n  function asFixed16(Result memory _result) external pure returns(int32) {\n    require(_result.success, \"Tried to read `fixed16` value from errored Result\");\n    return _result.cborValue.decodeFixed16();\n  }\n\n  /**\n   * @notice Decode an array of fixed16 values from a Result as an `int128[]` value.\n   * @param _result An instance of Result.\n   * @return The `int128[]` decoded from the Result.\n   */\n  function asFixed16Array(Result memory _result) external pure returns(int32[] memory) {\n    require(_result.success, \"Tried to read `fixed16[]` value from errored Result\");\n    return _result.cborValue.decodeFixed16Array();\n  }\n\n  /**\n   * @notice Decode a integer numeric value from a Result as an `int128` value.\n   * @param _result An instance of Result.\n   * @return The `int128` decoded from the Result.\n   */\n  function asInt128(Result memory _result) external pure returns(int128) {\n    require(_result.success, \"Tried to read `int128` value from errored Result\");\n    return _result.cborValue.decodeInt128();\n  }\n\n  /**\n   * @notice Decode an array of integer numeric values from a Result as an `int128[]` value.\n   * @param _result An instance of Result.\n   * @return The `int128[]` decoded from the Result.\n   */\n  function asInt128Array(Result memory _result) external pure returns(int128[] memory) {\n    require(_result.success, \"Tried to read `int128[]` value from errored Result\");\n    return _result.cborValue.decodeInt128Array();\n  }\n\n  /**\n   * @notice Decode a string value from a Result as a `string` value.\n   * @param _result An instance of Result.\n   * @return The `string` decoded from the Result.\n   */\n  function asString(Result memory _result) external pure returns(string memory) {\n    require(_result.success, \"Tried to read `string` value from errored Result\");\n    return _result.cborValue.decodeString();\n  }\n\n  /**\n   * @notice Decode an array of string values from a Result as a `string[]` value.\n   * @param _result An instance of Result.\n   * @return The `string[]` decoded from the Result.\n   */\n  function asStringArray(Result memory _result) external pure returns(string[] memory) {\n    require(_result.success, \"Tried to read `string[]` value from errored Result\");\n    return _result.cborValue.decodeStringArray();\n  }\n\n  /**\n   * @notice Decode a natural numeric value from a Result as a `uint64` value.\n   * @param _result An instance of Result.\n   * @return The `uint64` decoded from the Result.\n   */\n  function asUint64(Result memory _result) external pure returns(uint64) {\n    require(_result.success, \"Tried to read `uint64` value from errored Result\");\n    return _result.cborValue.decodeUint64();\n  }\n\n  /**\n   * @notice Decode an array of natural numeric values from a Result as a `uint64[]` value.\n   * @param _result An instance of Result.\n   * @return The `uint64[]` decoded from the Result.\n   */\n  function asUint64Array(Result memory _result) external pure returns(uint64[] memory) {\n    require(_result.success, \"Tried to read `uint64[]` value from errored Result\");\n    return _result.cborValue.decodeUint64Array();\n  }\n\n  /**\n   * @notice Convert a stage index number into the name of the matching Witnet request stage.\n   * @param _stageIndex A `uint64` identifying the index of one of the Witnet request stages.\n   * @return The name of the matching stage.\n   */\n  function stageName(uint64 _stageIndex) public pure returns(string memory) {\n    if (_stageIndex == 0) {\n      return \"retrieval\";\n    } else if (_stageIndex == 1) {\n      return \"aggregation\";\n    } else if (_stageIndex == 2) {\n      return \"tally\";\n    } else {\n      return \"unknown\";\n    }\n  }\n\n  /**\n   * @notice Get an `ErrorCodes` item from its `uint64` discriminant.\n   * @param _discriminant The numeric identifier of an error.\n   * @return A member of `ErrorCodes`.\n   */\n  function supportedErrorOrElseUnknown(uint64 _discriminant) private pure returns(ErrorCodes) {\n      return ErrorCodes(_discriminant);\n  }\n\n  /**\n   * @notice Convert a `uint64` into a 1, 2 or 3 characters long `string` representing its.\n   * three less significant decimal values.\n   * @param _u A `uint64` value.\n   * @return The `string` representing its decimal value.\n   */\n  function utoa(uint64 _u) private pure returns(string memory) {\n    if (_u < 10) {\n      bytes memory b1 = new bytes(1);\n      b1[0] = bytes1(uint8(_u) + 48);\n      return string(b1);\n    } else if (_u < 100) {\n      bytes memory b2 = new bytes(2);\n      b2[0] = bytes1(uint8(_u / 10) + 48);\n      b2[1] = bytes1(uint8(_u % 10) + 48);\n      return string(b2);\n    } else {\n      bytes memory b3 = new bytes(3);\n      b3[0] = bytes1(uint8(_u / 100) + 48);\n      b3[1] = bytes1(uint8(_u % 100 / 10) + 48);\n      b3[2] = bytes1(uint8(_u % 10) + 48);\n      return string(b3);\n    }\n  }\n\n  /**\n   * @notice Convert a `uint64` into a 2 characters long `string` representing its two less significant hexadecimal values.\n   * @param _u A `uint64` value.\n   * @return The `string` representing its hexadecimal value.\n   */\n  function utohex(uint64 _u) private pure returns(string memory) {\n    bytes memory b2 = new bytes(2);\n    uint8 d0 = uint8(_u / 16) + 48;\n    uint8 d1 = uint8(_u % 16) + 48;\n    if (d0 > 57)\n      d0 += 7;\n    if (d1 > 57)\n      d1 += 7;\n    b2[0] = bytes1(d0);\n    b2[1] = bytes1(d1);\n    return string(b2);\n  }\n}\n",
  "sourcePath": "/home/ay/harmony/lottery/node_modules/witnet-ethereum-bridge/contracts/Witnet.sol",
  "compiler": {
    "name": "solc",
    "version": "0.8.4+commit.c7e474f2.Emscripten.clang"
  },
  "schemaVersion": "3.4.2",
  "updatedAt": "2021-07-25T13:12:32.358Z",
  "devdoc": {
    "kind": "dev",
    "methods": {
      "asBool(Witnet.Result)": {
        "params": {
          "_result": "An instance of Result."
        },
        "returns": {
          "_0": "The `bool` decoded from the Result."
        }
      },
      "asBytes(Witnet.Result)": {
        "params": {
          "_result": "An instance of Result."
        },
        "returns": {
          "_0": "The `bytes` decoded from the Result."
        }
      },
      "asErrorCode(Witnet.Result)": {
        "params": {
          "_result": "An instance of `Result`."
        },
        "returns": {
          "_0": "The `CBORValue.Error memory` decoded from the Result."
        }
      },
      "asErrorMessage(Witnet.Result)": {
        "details": "WARN: Note that client contracts should wrap this function into a try-catch foreseing potential errors generated in this function",
        "params": {
          "_result": "An instance of `Result`."
        },
        "returns": {
          "_0": "A tuple containing the `CBORValue.Error memory` decoded from the `Result`, plus a loggable error message."
        }
      },
      "asFixed16(Witnet.Result)": {
        "details": "Due to the lack of support for floating or fixed point arithmetic in the EVM, this method offsets all values. by 5 decimal orders so as to get a fixed precision of 5 decimal positions, which should be OK for most `fixed16`. use cases. In other words, the output of this method is 10,000 times the actual value, encoded into an `int32`.",
        "params": {
          "_result": "An instance of Result."
        },
        "returns": {
          "_0": "The `int128` decoded from the Result."
        }
      },
      "asFixed16Array(Witnet.Result)": {
        "params": {
          "_result": "An instance of Result."
        },
        "returns": {
          "_0": "The `int128[]` decoded from the Result."
        }
      },
      "asInt128(Witnet.Result)": {
        "params": {
          "_result": "An instance of Result."
        },
        "returns": {
          "_0": "The `int128` decoded from the Result."
        }
      },
      "asInt128Array(Witnet.Result)": {
        "params": {
          "_result": "An instance of Result."
        },
        "returns": {
          "_0": "The `int128[]` decoded from the Result."
        }
      },
      "asRawError(Witnet.Result)": {
        "params": {
          "_result": "An instance of `Result`."
        },
        "returns": {
          "_0": "The `uint64[]` raw error as decoded from the `Result`."
        }
      },
      "asString(Witnet.Result)": {
        "params": {
          "_result": "An instance of Result."
        },
        "returns": {
          "_0": "The `string` decoded from the Result."
        }
      },
      "asStringArray(Witnet.Result)": {
        "params": {
          "_result": "An instance of Result."
        },
        "returns": {
          "_0": "The `string[]` decoded from the Result."
        }
      },
      "asUint64(Witnet.Result)": {
        "params": {
          "_result": "An instance of Result."
        },
        "returns": {
          "_0": "The `uint64` decoded from the Result."
        }
      },
      "asUint64Array(Witnet.Result)": {
        "params": {
          "_result": "An instance of Result."
        },
        "returns": {
          "_0": "The `uint64[]` decoded from the Result."
        }
      },
      "isError(Witnet.Result)": {
        "params": {
          "_result": "An instance of Result."
        },
        "returns": {
          "_0": "`true` if errored, `false` if successful."
        }
      },
      "isOk(Witnet.Result)": {
        "params": {
          "_result": "An instance of Result."
        },
        "returns": {
          "_0": "`true` if successful, `false` if errored."
        }
      },
      "resultFromCborBytes(bytes)": {
        "params": {
          "_cborBytes": "Raw bytes representing a CBOR-encoded value."
        },
        "returns": {
          "_0": "A `Result` instance."
        }
      },
      "resultFromCborValue(CBOR.Value)": {
        "params": {
          "_cborValue": "An instance of `CBOR.Value`."
        },
        "returns": {
          "_0": "A `Result` instance."
        }
      },
      "stageName(uint64)": {
        "params": {
          "_stageIndex": "A `uint64` identifying the index of one of the Witnet request stages."
        },
        "returns": {
          "_0": "The name of the matching stage."
        }
      }
    },
    "title": "A library for decoding Witnet request results",
    "version": 1
  },
  "userdoc": {
    "kind": "user",
    "methods": {
      "asBool(Witnet.Result)": {
        "notice": "Decode a boolean value from a Result as an `bool` value."
      },
      "asBytes(Witnet.Result)": {
        "notice": "Decode a bytes value from a Result as a `bytes` value."
      },
      "asErrorCode(Witnet.Result)": {
        "notice": "Decode an error code from a Result as a member of `ErrorCodes`."
      },
      "asErrorMessage(Witnet.Result)": {
        "notice": "Generate a suitable error message for a member of `ErrorCodes` and its corresponding arguments."
      },
      "asFixed16(Witnet.Result)": {
        "notice": "Decode a fixed16 (half-precision) numeric value from a Result as an `int32` value."
      },
      "asFixed16Array(Witnet.Result)": {
        "notice": "Decode an array of fixed16 values from a Result as an `int128[]` value."
      },
      "asInt128(Witnet.Result)": {
        "notice": "Decode a integer numeric value from a Result as an `int128` value."
      },
      "asInt128Array(Witnet.Result)": {
        "notice": "Decode an array of integer numeric values from a Result as an `int128[]` value."
      },
      "asRawError(Witnet.Result)": {
        "notice": "Decode a raw error from a `Result` as a `uint64[]`."
      },
      "asString(Witnet.Result)": {
        "notice": "Decode a string value from a Result as a `string` value."
      },
      "asStringArray(Witnet.Result)": {
        "notice": "Decode an array of string values from a Result as a `string[]` value."
      },
      "asUint64(Witnet.Result)": {
        "notice": "Decode a natural numeric value from a Result as a `uint64` value."
      },
      "asUint64Array(Witnet.Result)": {
        "notice": "Decode an array of natural numeric values from a Result as a `uint64[]` value."
      },
      "isError(Witnet.Result)": {
        "notice": "Tell if a Result is errored."
      },
      "isOk(Witnet.Result)": {
        "notice": "Tell if a Result is successful."
      },
      "resultFromCborBytes(bytes)": {
        "notice": "Decode raw CBOR bytes into a Result instance."
      },
      "resultFromCborValue(CBOR.Value)": {
        "notice": "Decode a CBOR value into a Result instance."
      },
      "stageName(uint64)": {
        "notice": "Convert a stage index number into the name of the matching Witnet request stage."
      }
    },
    "notice": "The library exposes functions to check the Witnet request success. and retrieve Witnet results from CBOR values into solidity types.",
    "version": 1
  }
}